:100000000A308A00842A0000FF00030E8301A10049
:100010000A08A0008A010408A2007708A300780853
:10002000A4007908A5007A08A60003170D08031399
:10003000A70003170F080313A80003170C080313E6
:10004000A90003170E080313AA00831383120B1EC3
:100050002B288B1852288C308400801E31288C1A53
:100060005528220884002308F7002408F8002508F2
:10007000F9002608FA00270803178D000313280843
:1000800003178F000313290803178C0003132A0892
:1000900003178E00031320088A00210E8300FF0E31
:1000A0007F0E09008A110A124F2C8A110A12632846
:1000B0000A108A100A11820700340A108A100A11E5
:1000C00082072A34003410306A07840083178C1E9C
:1000D00067281A08800010306A07840083176608B2
:1000E0000002031D75280130EB0010306A07840000
:1000F000831700082E3C031D862810306A078400F1
:1001000083178001EA010130EB008728EA0A8C128C
:100110008A110A12312843244F27A024441D20109D
:10012000000043244F272022452BC921451D2010C4
:100130000001202A54108003C320D3223100C320A1
:10014000D3223A100000C3274E23C92320224F2771
:100150004500AD16201FA0214F27C62447000317D6
:100160006C18B62803130710B828031703130714D5
:10017000321032088316870083120317EC18C42844
:1001800003138710C628031703138714B21032080D
:1001900083168700831203176C19D22803130711E3
:1001A000D42803170313071532113208831687006A
:1001B00083120317EC19E02803138711E2280317B1
:1001C00003138715B21132088316870000008312CB
:1001D0000914831609100230F700F70BED28F028F8
:1001E0000000831209108316091083120800831679
:1001F00009108910091183128910831689100714B8
:100200008714071587158312091583160911000035
:100210008312091483160910000083120317ED01DD
:100220000313321432088316870000308312071834
:1002300001300317ED040313B2143208831687004C
:100240000030831287180130F7000310F70D77088C
:100250000317ED04031332153208831687000030AC
:10026000831207190130F700F70DF70DFC30F70581
:1002700077080317ED040313B215320883168700BD
:100280000030831287190130F700F70DF70DF70DD5
:10029000F830F70577080317ED046D08F8007808C3
:1002A000EC000313091083160910000083120914CF
:1002B000831609105B295C29000083120317ED01E6
:1002C0000313321432088316870000308312071894
:1002D00001300317ED040313B214320883168700AC
:1002E0000030831287180130F7000310F70D7708EC
:1002F0000317ED040313321532088316870000300C
:10030000831207190130F700F70DF70DFC30F705E0
:1003100077080317ED040313B2153208831687001C
:100320000030831287190130F700F70DF70DF70D34
:10033000F830F70577080317ED046D08F800780822
:10034000EB000313091083160910831232103208D0
:10035000831687008312B210320883168700831237
:1003600032113208831687008312B21132088316C5
:100370008700831203176C0EF700F030F70577083B
:100380006B04F8007808EB00EB1FC92983160313F0
:10039000FF28E908031DD02903138910D229031768
:1003A0000313891483168910000083120911831620
:1003B0000911000083120910831609108312031714
:1003C0006A0EEB000F30EB056B08EC000313AF2057
:1003D00003176A080F39EB00EC000313AF20080085
:1003E0000317660BF429F7294030E700F829E701E5
:1003F00001306502E70767088038E800E90168080E
:10040000EA000313F7200800653084008317000812
:100410000319172A0630F800F701F70B0D2AF80B1D
:100420000C2A7B30F700F70B132A800B0A2A0800EE
:10043000031761080739F700610CF800F80CF80C95
:100440001F30F80578086207840083136318831748
:100450000008F800F70A2D2AF80CF70B2C2A0313D2
:1004600008008318362AA9308400831783160317DF
:10047000240828068039AE00A41F492AA109A20930
:10048000A309A409A10A0319A20A0319A30A0319BB
:10049000A40AA81F562AA509A609A709A809A50AFA
:1004A0000319A60A0319A70A0319A80AF701F801F4
:1004B000F901FA01A901AA01AB01AC01280827043E
:1004C000260425040319942A2030AD000310A10D41
:1004D000A20DA30DA40DA90DAA0DAB0DAC0D2808FE
:1004E0002C02031D7D2A27082B02031D7D2A2608C6
:1004F0002A02031D7D2A25082902031C8E2A2508AD
:10050000A9022608031C260FAA022708031C270F8E
:10051000AB022808031C280FAC020314F70DF80DDA
:10052000F90DFA0DAD0B662AAE1FA12AF709F809DD
:10053000F909FA09F70A0319F80A0319F90A03195C
:10054000FA0A29088000840A2A088000840A2B08F5
:100550008000840A2C08800083120313080003170C
:10056000E201E101E0010130DF00E401E501DB1F10
:10057000012B0130E4005B0883169C0083125A08AB
:1005800083169B008312590883169A008312580819
:1005900083169900FF30A0009F009E009D00203030
:1005A000A500A101A201A301A4011C08FA001B08D7
:1005B000F9001A08F8001908F7000310771CEE2A52
:1005C0001D08A1071E0803181E0FA2071F08031805
:1005D0001F0FA30720080318200FA407A40CA30CC7
:1005E000A20CA10CFA0CF90CF80CF70CA50BDD2AE7
:1005F0007A088312DB007908DA007808D9007708D6
:10060000D800DF08031D0D2BE008031D0D2BE108AA
:10061000031D0D2BE2080319A12B83105B08831621
:10062000A40083125A088316A30083125908831664
:10063000A200831258088316A100A801A701A601F1
:1006400083125C088316A5008312031331227A08F3
:100650000317E2007908E1007808E0007708DF007E
:1006600065085D07F8005E08FA000318FA0A7808C2
:10067000831690007A0891009301040892001310E9
:10068000831B1314831494308400831783125B0834
:100690008316A40083125A088316A30083125908F4
:1006A0008316A200831258088316A100A801A7018F
:1006B000A60183125C088316A5008312031331225E
:1006C000831603171208840083131318831730301E
:1006D0001407F7001508F800003003180130F80778
:1006E0001608F900003003180130F9071708FA005E
:1006F000003003180130FA07100884008313111822
:10070000831777088000831265085D0784008313D0
:100710005E1883170008393C0318972B65085D079E
:10072000840083135E188317073000078000E50AF2
:100730006208DB006108DA006008D9005F08D800B1
:10074000012B640BAC2B65085D07840083135E18D6
:1007500083172D308000E50AE3010310650C630266
:100760000318E62B63085D07840083135E18831764
:100770000008E60063085D07F8005E08FA00031849
:10078000FA0A7808831690007A08910083126308A9
:100790006502FF3E5D07840083135E18831700081F
:1007A000831692001008840083131118831712080F
:1007B0008000831263086502FF3E5D078400831397
:1007C0005E18831766088000E30AAD2B65085D0795
:1007D000840083135E18831780015D08F8005E08AB
:1007E000F9000313080003175908DD005808DC005E
:1007F0005D08FA005C08840083137A188317800868
:100800000319062CDC0A0319DD0AF82B5B08FA0031
:100810005A08840083137A18831780080319252C3B
:100820005A08840083135B1883170008E0005C08F3
:10083000840083135D18831760088000DC0A0319A5
:10084000DD0ADA0A0319DB0A062C5C08840083132C
:100850005D18831780015808F8005908F900031340
:100860000800800803194E2C0317E4010408E30074
:100870006410831B6414000803130C1E3D2C9900A4
:10088000031763088400831364188317840A031D05
:100890004C2C0313850A03170313312C080083160D
:1008A000861483128618A12F01300317E500E60095
:1008B0000313F0210A300317E5000313042242302A
:1008C0000317E4006408073A03130319712C0B3A69
:1008D0000319782C063A0319842C023A03198C2C3C
:1008E000932C01300317E500E6000313F0219A2C46
:1008F0000317E9010130EA000313F7200230031760
:10090000E500031304229A2C01300317E50002309E
:10091000E6000313F0219A2C0317E9011030EA00D6
:100920000313F7209A2C01300317E9006408EA004A
:100930000313F72054300317E4006408073A031345
:100940000319AC2C0B3A0319B32C063A0319BF2C2C
:10095000023A0319C72CCE2C01300317E500E6003C
:100960000313F021D52C0317E9010130EA0003132A
:10097000F72002300317E50003130422D52C0130C1
:100980000317E5000230E6000313F021D52C03170E
:10099000E9011030EA000313F720D52C01300317CA
:1009A000E9006408EA000313F72031300317E4007C
:1009B0006408073A03130319E72C0B3A0319EE2CCA
:1009C000063A0319FA2C023A0319022D092D0130B7
:1009D0000317E500E6000313F021102D0317E901CA
:1009E0000130EA000313F72002300317E500031378
:1009F0000422102D01300317E5000230E600031336
:100A0000F021102D0317E9011030EA000313F7203D
:100A1000102D01300317E9006408EA000313F720E2
:100A20000317D5015508043C031CA02F831603139C
:100A3000861483128618992F04300317D600FA30D3
:100A4000E500031304220317D60B1F2D5508043CA1
:100A5000031D972F01300313BC06A93003178D0027
:100A600000308F0003130B080317D80003138B13F8
:100A7000831603178C170C14000000008312D81F74
:100A8000442D03138B1703170C087F390319EB2D23
:100A9000D8000D08D9000F08DA005808E4006408EF
:100AA000073A031303195E2D0B3A0319652D063A15
:100AB0000319712D023A0319792D802D0130031786
:100AC000E500E6000313F021872D0317E90101304B
:100AD000EA000313F72002300317E5000313042292
:100AE000872D01300317E5000230E6000313F021E3
:100AF000872D0317E9011030EA000313F720872D33
:100B000001300317E9006408EA000313F720031714
:100B100059088D005A088F0003130B080317DB00D8
:100B200003138B13831603178C170C14000000009B
:100B30008312DB1F9E2D03138B1703170C0D0E0D55
:100B40007F390319EB2DD8000D08D9000F08DA0002
:100B50005808E4006408073A03130319B92D0B3A47
:100B60000319C02D063A0319CC2D023A0319D42DCE
:100B7000DB2D01300317E500E6000313F021E22D21
:100B80000317E9010130EA000313F72002300317CD
:100B9000E50003130422E22D01300317E5000230C3
:100BA000E6000313F021E22D0317E9011030EA00FB
:100BB0000313F720E22D01300317E9006408EA006F
:100BC0000313F720031759088D005A088F008D0A68
:100BD00003198F0A322D03133C18962F0317D801DF
:100BE000D9013F3084008313580884075908031340
:100BF0005820800000380319022E0317D90AD80A9A
:100C0000F12D03130317D6015608073C031C2A2EA7
:100C10005608E100E3013D30E20003131822781C7E
:100C2000272E0317DB01DA01D9015608D8000A3054
:100C3000DC00DE016830DD000313AF220317D901A9
:100C40003F30D800DB016830DA000313F3230317C9
:100C5000D60A042ED801D9016830840083135808BD
:100C60008407590803135D208000003803193D2EC6
:100C70000317D90AD80A2C2E03130317D9013F30C2
:100C8000D800DB016830DA000313F323DB013F30C7
:100C9000DA00D3016630D2000317D7015708073CAA
:100CA000031C6B2E0310570D503E84008313840ADF
:100CB0000008D90084030008D80084008313591861
:100CC00083170313312401300317E50003130422B3
:100CD0000317D70A4E2E0130E500E6000313F0217A
:100CE0000A300317E50003130422A33003178D0015
:100CF00000308F0003130B080317D80003138B1366
:100D0000831603178C170C14000000008312D81FE1
:100D10008C2E03138B1703170C087F390319332FFD
:100D2000D8000D08D9000F08DA005808E40064085C
:100D3000073A03130319A62E0B3A0319AD2E063AF0
:100D40000319B92E023A0319C12EC82E0130031718
:100D5000E500E6000313F021CF2E0317E90101306F
:100D6000EA000313F72002300317E50003130422FF
:100D7000CF2E01300317E5000230E6000313F02107
:100D8000CF2E0317E9011030EA000313F720CF2E0E
:100D900001300317E9006408EA000313F720031782
:100DA00059088D005A088F0003130B080317DB0046
:100DB00003138B13831603178C170C140000000009
:100DC0008312DB1FE62E03138B1703170C0D0E0D7A
:100DD0007F390319332FD8000D08D9000F08DA0026
:100DE0005808E4006408073A03130319012F0B3A6B
:100DF0000319082F063A0319142F023A03191C2F5E
:100E0000232F01300317E500E6000313F0212A2FFA
:100E10000317E9010130EA000313F720023003173A
:100E2000E500031304222A2F01300317E5000230E6
:100E3000E6000313F0212A2F0317E9011030EA001E
:100E40000313F7202A2F01300317E9006408EA0092
:100E50000313F720031759088D005A088F008D0AD5
:100E600003198F0A7A2E0130E5000230E6000313E1
:100E7000F0210A300317E500031304223F308400F9
:100E8000831380080319932F0317D9010408D8008E
:100E90005910831B59140008E4006408073A03132F
:100EA00003195C2F0B3A0319632F063A03196F2FAE
:100EB000023A0319772F7E2F01300317E500E60071
:100EC0000313F021852F0317E9010130EA00031312
:100ED000F72002300317E50003130422852F0130A9
:100EE0000317E5000230E6000313F021852F0317F6
:100EF000E9011030EA000313F720852F01300317B2
:100F0000E9006408EA000313F72003175808840077
:100F1000831359188317840A031D912F0313850A1D
:100F200003170313412FC3016630C20003179E2F1E
:100F30000313BC103C110A300317D500D50A122D3B
:100F400003138B108A110A1231280317300807394E
:100F5000F700300CF800F80CF80C1F30F805780892
:100F600032078400831333188317F801F80AF70A4D
:100F7000BA2FF80DF70BB92FB1080319C22F780853
:100F80008004C52FF8097808800503138A110A1612
:100F9000202D0317AF012F081E3C031CE32F8316DF
:100FA00003138810023083128806AB018B1BAB172A
:100FB0008B1364300317E50003130422AB1B8B175C
:0E0FC0000317AF0ACB2F03138A150A126D2DEB
:1010000028300317B0000C30B1000130B2000630B8
:10101000B300031309108316091083128910831675
:1010200089108312091183160911831232103208B4
:10103000831687008312B21032088316870083124A
:1010400032113208831687008312B21132088316D8
:1010500087000910891009118312AB018B1BAB1794
:101060008B130F300317E5008A11031304228A152E
:10107000AB1B8B1701300317AF002F08033C031C79
:101080005F280313AB018B1BAB178B1303300317C4
:10109000EC008A110313AF208A15AB1B8B17AB0131
:1010A0008B1BAB178B1305300317E5008A11031355
:1010B00004228A15AB1B8B170317AF0A3D280313B5
:1010C000AB018B1BAB178B1302300317EC008A119B
:1010D0000313AF208A15AB1B8B17AB018B1BAB1710
:1010E0008B1305300317E5008A11031304228A15B8
:1010F000AB1B8B170317AF012F08033C031C982869
:1011000030302F07840083170008B4000313AB01AD
:101110008B1BAB178B130317E9013408EA008A1104
:101120000313F7208A15AB1B8B170317AF0A7C2814
:1011300003138A150A12AE2B03172F0DF700F70DB4
:10114000FC30F70503131F08C33977049F00B4016F
:10115000B3010317B0013008633C031CCB28031311
:101160009F149F18B12883161E088312B3071E0808
:1011700003181E0FB407AB018B1BAB178B13013089
:101180000317E5008A11031304228A15AB1B8B1782
:101190000317B00AAB28031334080317B200031374
:1011A00033080317B1008E30F7003208F800310819
:1011B000F900FA01F808031DE7287908F800F90199
:1011C0000830F702F808031DE728F701EF2803109D
:1011D000F81BEE28F90DF80DF703E728F8137A0845
:1011E000B4007908B3007808B2007708B1009A30EB
:1011F000B8009930B7004C30B6008630B5003108E1
:101200000319C429BD0035080319C429BD02031CF4
:101210000E297F30BD070318C42914298130BD026F
:10122000031CC4290319C4293D08F700F801F9017A
:10123000FA01BC013208BB00BB173308BA003408FE
:10124000B9001930BD003808B90203183729013038
:10125000BA0203183729BB0203183729BC02031846
:101260003729BC0ABB0ABA0A3808B90769293708FE
:10127000BA02031852290130BB0203185229BC02DA
:1012800003185229BC0ABB0A3708BA073808B9073D
:10129000031C6929BA0A031D6929BB0A031D6929B0
:1012A000BC0A692936088038BB0203186829013056
:1012B000BC0203186829BC0A36088038BB07370807
:1012C000BA07031C4629BB0A031D4629BC0A462946
:1012D0007A14BD0B6C2977290310B90DBA0DBB0D1B
:1012E000BC0D0310FA0DF90DF80DBE0D23293E1C9F
:1012F0007F290310F80CF90CFA0CBE0C8229F703B5
:101300000319C429BE1BAB290310B90DBA0DBB0DBF
:10131000BC0D3808B902031897290130BA02031826
:101320009729BB0203189729BC02031CBA29370866
:10133000BA020318A2290130BB020318A229BC0279
:10134000031CBA2936088038BB020318AB290130C8
:10135000BC02031CBA29FA0A031DBA29F90A031DA3
:10136000BA29F80A031DBA29F70A0319C429F80C87
:10137000F90CFA0C3208BD003608BD06BD1FC229A3
:10138000F817C829F813C829F701F801F901FA017B
:101390007A08B4007908B3007808B2007708B10081
:1013A0008E30F7003108F7023208F9003308F800F0
:1013B000F917F7080319E7290310F908031DE329B2
:1013C000F8080319E729F90CF80CF70BDC29B21F10
:1013D000EE29F809F909F80A0319F90A790803133B
:1013E000B4007808B3003308F8008A150A12B82B45
:1013F000AB018B1BAB178B1301300317E500E60025
:101400008A110313F0218A15AB1B8B17AB018B1BC1
:10141000AB178B130A300317E5008A11031304225C
:101420008A15AB1B8B1710308400831780080319B3
:10143000742A0317D9010408D8005910831B5914C2
:101440000008E4006408073A03130319312A0B3A31
:1014500003193A2A063A03194A2A023A0319542A66
:101460005D2A01300317E500E6008A110313F0211D
:101470008A15662A0317E9010130EA008A1103136D
:10148000F7208A1502300317E5008A11031304229E
:101490008A15662A01300317E5000230E6008A113A
:1014A0000313F0218A15662A0317E9011030EA00B8
:1014B0008A110313F7208A15662A01300317E90001
:1014C0006408EA008A110313F7208A1503175808E5
:1014D0008400831359188317840A031D722A031387
:1014E000850A03170313162AAB018B1BAB178B134B
:1014F00001300317E5008A11031304228A15AB1B80
:101500008B178A150A12F62D03081F3983008316DC
:101510000317871508300313990002309A00A6308C
:101520009800903083129800FF30B200B901BA01E0
:10153000BB013C10BC103C11EA01EB018316031700
:101540000908C039890003131F129F1200300317C6
:101550008800831287018801890183130313AC017A
:10156000AD01BD01BE01BF0153308316A000A10132
:101570004930A2004430A300A4014330A5004F30FD
:10158000A6004D30A700A8004130A9004E30AA00A7
:101590004430AB00AC014C30AD004530AE004E30B5
:1015A000AF004730B0004830B1005430B200B30152
:1015B0004430B4004130B5005430B6004130B7007B
:1015C0003130B800B9014430BA004130BB0054306A
:1015D000BC004130BD003230BE00BF014330C0000E
:1015E0004830C1004530C2004330C3004B30C40016
:1015F0005330C5005530C6004D30C700C8012330F8
:10160000C900CA018312C101A030C000C301A230C9
:10161000C200C501A530C400C701AD30C600C90174
:10162000B430C800CB01BA30CA00CD01C030CC0004
:10163000CF01C930CE0053308316CB00CC014930E6
:10164000CD004430CE00CF014330D0005F30D10018
:101650004630D200D3014C30D4004530D5004E3056
:10166000D6004730D7004830D8005430D900DA01CE
:101670004930DB004430DC005F30DD00DE01443007
:10168000DF004530E0005630E1004930E2004330F1
:10169000E3004530E400E5015330E6004530E70063
:1016A0004E30E8005330E9004F30EA005230EB0092
:1016B000EC012330ED00EE018312D101CB30D000DC
:1016C000D301CD30D200D501D030D400D701D430F1
:1016D000D600D901DB30D800DB01DF30DA00DD01D4
:1016E000E630DC00DF01ED30DE003230E000373084
:1016F000E100E2013230E3003730E400E501303050
:10170000E600E701E800E901003083168800FF30B9
:101710008600091089100911891180308700831211
:10172000B2001F179F1383169F1783121F1483166F
:1017300003170908C039890003131F129F120130D3
:101740000317880003138C16C03083128B048B168A
:101750000B160B168316011383120028BA013C10D6
:1017600083168801831288010317AF0103139C2895
:10177000B6017808B5003C1C6B2DBC14AB018B1B6B
:10178000AB178B1301300317E500E6008A11031332
:10179000F0218A15AB1B8B17AB018B1BAB178B137F
:1017A0000A300317E5008A11031304228A15AB1BC4
:1017B0008B179F3003178D0000308F0003130B0829
:1017C0000317D80003138B13831603178C170C14FD
:1017D000000000008312D81FF02B03138B17031790
:1017E0000C087F390319AF2CD8000D08D9000F0859
:1017F000DA005808E4006408073A031303190A2CB6
:101800000B3A0319132C063A0319232C023A031935
:101810002D2C362C01300317E500E6008A11031346
:10182000F0218A153F2C0317E9010130EA008A11E3
:101830000313F7208A1502300317E5008A110313FA
:1018400004228A153F2C01300317E5000230E60020
:101850008A110313F0218A153F2C0317E901103078
:10186000EA008A110313F7208A153F2C0130031771
:10187000E9006408EA008A110313F7208A150317A8
:1018800059088D005A088F0003130B080317DB005B
:1018900003138B13831603178C170C14000000001E
:1018A0008312DB1F562C03138B1703170C0D0E0D21
:1018B0007F390319AF2CD8000D08D9000F08DA00C2
:1018C0005808E4006408073A03130319712C0B3A13
:1018D00003197A2C063A03198A2C023A0319942C1C
:1018E0009D2C01300317E500E6008A110313F02157
:1018F0008A15A62C0317E9010130EA008A110313A7
:10190000F7208A1502300317E5008A110313042219
:101910008A15A62C01300317E5000230E6008A1173
:101920000313F0218A15A62C0317E9011030EA00F1
:101930008A110313F7208A15A62C01300317E9003A
:101940006408EA008A110313F7208A15031759085F
:101950008D005A088F008D0A03198F0ADE2B03139E
:10196000BC1C662D8316061583120619652DB90A4F
:101970003908033C031CB90102300317AF000313FD
:10198000AB018B1BAB178B1396300317E5008A1145
:10199000031304228A15AB1B8B170317AF0BBF2C45
:1019A0000313AB018B1BAB178B1307300317E50039
:1019B0000230E6008A110313F0218A15AB1B8B1746
:1019C000AB018B1BAB178B130317DB01DA01D901BA
:1019D000031339080317D8000A30DC00DE01683031
:1019E000DD008A110313AF228A15AB1B8B17AB01E5
:1019F0008B1BAB178B130A300317E5008A110313F7
:101A000004228A15AB1B8B1768308400831380086F
:101A10000319652D0317D9010408D8005910831B39
:101A200059140008E4006408073A03130319222D2F
:101A30000B3A03192B2D063A03193B2D023A0319D1
:101A4000452D4E2D01300317E500E6008A110313E2
:101A5000F0218A15572D0317E9010130EA008A1198
:101A60000313F7208A1502300317E5008A110313C8
:101A700004228A15572D01300317E5000230E600D5
:101A80008A110313F0218A15572D0317E90110302D
:101A9000EA008A110313F7208A15572D0130031726
:101AA000E9006408EA008A110313F7208A15031776
:101AB00058088400831359188317840A031D632D63
:101AC0000313850A03170313072DB02C0A168A1176
:101AD00000280A128A158A11C92F8A15B608031D13
:101AE000752D35081A3C0318F22DAB018B1BAB1773
:101AF0008B130317DB01DA01031336080317D90030
:101B0000031335080317D8000A30DC00DE0160300B
:101B1000DD008A110313AF228A15AB1B8B17C90195
:101B20006030C800AB018B1BAB178B130317DB01B5
:101B3000DA01031338080317D90003133708031712
:101B4000D8000A30DC00DE016330DD008A110313A7
:101B5000AF228A15AB1B8B17CB016330CA0003176A
:101B6000AE012E08073C031CDE2D03102E0D403E57
:101B700084008313840A0008B00084030008AF00C7
:101B800084008313301883170313AB018B1BAB172F
:101B90008B138A1131248A15AB1B8B17AB018B1B5E
:101BA000AB178B1301300317E5008A1103130422CE
:101BB0008A15AB1B8B170317AE0AB12D0430AF008B
:101BC0000313AB018B1BAB178B13FA300317E50024
:101BD0008A11031304228A15AB1B8B170317AF0B53
:101BE000E02D03136B0B0A2EEB01F8298316081066
:101BF000013083128806831688100230831288060B
:101C00008316081104308312880683168811083061
:081C100083128806B42B630067
:102000003908FC3E0318C82E043ECB2E3C15AB010C
:102010008B1BAB178B1301300317E500E6000A1288
:102020000313F0210A16AB1B8B17AB018B1BAB17ED
:102030008B130A300317E5000A12031304220A1651
:10204000AB1B8B178B3003178D0000308F000313F1
:102050000B080317D80003138B13831603178C1771
:102060000C14000000008312D81F392803138B17AB
:1020700003170C087F390319F828D8000D08D90078
:102080000F08DA005808E4006408073A031303193C
:1020900053280B3A03195C28063A03196C28023AB4
:1020A000031976287F2801300317E500E6000A129D
:1020B0000313F0210A1688280317E9010130EA000A
:1020C0000A120313F7200A1602300317E5000A125A
:1020D000031304220A16882801300317E500023092
:1020E000E6000A120313F0210A1688280317E901F3
:1020F0001030EA000A120313F7200A16882801306C
:102100000317E9006408EA000A120313F7200A160D
:10211000031759088D005A088F0003130B08031783
:10212000DB0003138B13831603178C170C140000AA
:1021300000008312DB1F9F2803138B1703170C0D5E
:102140000E0D7F390319F828D8000D08D9000F08A3
:10215000DA005808E4006408073A03130319BA28A0
:102160000B3A0319C328063A0319D328023A031974
:10217000DD28E62801300317E500E6000A12031304
:10218000F0210A16EF280317E9010130EA000A12CC
:102190000313F7200A1602300317E5000A1203138F
:1021A00004220A16EF2801300317E5000230E6008A
:1021B0000A120313F0210A16EF280317E901103061
:1021C000EA000A120313F7200A16EF28013003175A
:1021D000E9006408EA000A120313F7200A1603173D
:1021E00059088D005A088F008D0A03198F0A272875
:1021F00003133C1DC1298316061583120619C02935
:10220000BA0A3A080F3C031CBA0102300317AF00A8
:102210000313AB018B1BAB178B1396300317E50031
:102220000A12031304220A16AB1B8B170317AF0BFA
:1022300008290313AB018B1BAB178B130317DB01AF
:10224000DA01D90103133A080317D8000A30DC0079
:10225000DE016630DD000A120313AF220A16AB1B43
:102260008B17AB018B1BAB178B1307300317E500E4
:102270000230E6000A120313F0210A16AB1B8B177B
:10228000AB018B1BAB178B130A300317E5000A1247
:10229000031304220A16AB1B8B17663084008313CA
:1022A00080080319AE290317D9010408D800591072
:1022B000831B59140008E4006408073A0313031948
:1022C0006B290B3A03197429063A03198429023A37
:1022D00003198E29972901300317E500E6000A1239
:1022E0000313F0210A16A0290317E9010130EA00BF
:1022F0000A120313F7200A1602300317E5000A1228
:10230000031304220A16A02901300317E500023046
:10231000E6000A120313F0210A16A0290317E901A7
:102320001030EA000A120313F7200A16A029013020
:102330000317E9006408EA000A120313F7200A16DB
:10234000031758088400831359188317840A031D40
:10235000AC290313850A031703135029AB018B1B08
:10236000AB178B1301300317E5000A120313042285
:102370000A16AB1B8B1783160810013083128806D0
:10238000F928C82E3C15AB018B1BAB178B13013002
:102390000317E500E6000A120313F0210A16AB1B2F
:1023A0008B17AB018B1BAB178B130A300317E500A0
:1023B0000A12031304220A16AB1B8B179130031762
:1023C0008D0000308F0003130B080317D800031390
:1023D0008B13831603178C170C1400000000831254
:1023E000D81FF52903138B1703170C087F3903191E
:1023F000B42AD8000D08D9000F08DA005808E40004
:102400006408073A031303190F2A0B3A0319182A11
:10241000063A0319282A023A0319322A3B2A0130C4
:102420000317E500E6000A120313F0210A16442AF6
:102430000317E9010130EA000A120313F7200A1614
:1024400002300317E5000A12031304220A16442A75
:1024500001300317E5000230E6000A120313F021F1
:102460000A16442A0317E9011030EA000A1203137E
:10247000F7200A16442A01300317E9006408EA002D
:102480000A120313F7200A16031759088D005A0879
:102490008F0003130B080317DB0003138B13831642
:1024A00003178C170C14000000008312DB1F5B2A3B
:1024B00003138B1703170C0D0E0D7F390319B42A64
:1024C000D8000D08D9000F08DA005808E4006408A5
:1024D000073A03130319762A0B3A03197F2A063A9F
:1024E00003198F2A023A0319992AA22A01300317E5
:1024F000E500E6000A120313F0210A16AB2A0317BF
:10250000E9010130EA000A120313F7200A1602302B
:102510000317E5000A12031304220A16AB2A01303E
:102520000317E5000230E6000A120313F0210A1631
:10253000AB2A0317E9011030EA000A120313F7204F
:102540000A16AB2A01300317E9006408EA000A12F0
:102550000313F7200A16031759088D005A088F0035
:102560008D0A03198F0AE32903133C1DD22D83160C
:10257000061583120619FA2CBB0A3B08073C031CFC
:10258000BB0102300317AF000313AB018B1BAB176A
:102590008B1396300317E5000A12031304220A1660
:1025A000AB1B8B170317AF0BC42A0313AB018B1B99
:1025B000AB178B130317DB01DA01D90103133B08B7
:1025C0000317D8000A30DC00DE016830DD000A1293
:1025D0000313AF220A16AB1B8B17AB018B1BAB1778
:1025E0008B1307300317E5000230E6000A120313CD
:1025F000F0210A16AB1B8B17AB018B1BAB178B1390
:102600000A300317E5000A12031304220A16AB1B53
:102610008B17683084008313800803196A2B031713
:10262000D9010408D8005910831B59140008E4008C
:102630006408073A03130319272B0B3A0319302BAD
:10264000063A0319402B023A03194A2B532B013047
:102650000317E500E6000A120313F0210A165C2BAB
:102660000317E9010130EA000A120313F7200A16E2
:1026700002300317E5000A12031304220A165C2B2A
:1026800001300317E5000230E6000A120313F021BF
:102690000A165C2B0317E9011030EA000A12031333
:1026A000F7200A165C2B01300317E9006408EA00E2
:1026B0000A120313F7200A1603175808840083131D
:1026C00059188317840A031D682B0313850A0317FF
:1026D00003130C2BAB018B1BAB178B1301300317B0
:1026E000E5000A12031304220A16AB1B8B1799305C
:1026F00003178D0000308F0003130B080317D80059
:1027000003138B13831603178C170C14000000009F
:102710008312D81F8E2B03138B1703170C087F39D6
:1027200003194D2CD8000D08D9000F08DA005808FD
:10273000E4006408073A03130319A82B0B3A0319A2
:10274000B12B063A0319C12B023A0319CB2BD42B18
:1027500001300317E500E6000A120313F0210A1600
:10276000DD2B0317E9010130EA000A120313F720F9
:102770000A1602300317E5000A12031304220A1690
:10278000DD2B01300317E5000230E6000A120313C7
:10279000F0210A16DD2B0317E9011030EA000A12B6
:1027A0000313F7200A16DD2B01300317E900640834
:1027B000EA000A120313F7200A16031759088D00BE
:1027C0005A088F0003130B080317DB0003138B1346
:1027D000831603178C170C14000000008312DB1FF4
:1027E000F42B03138B1703170C0D0E0D7F390319F0
:1027F0004D2CD8000D08D9000F08DA005808E40065
:102800006408073A031303190F2C0B3A0319182C09
:10281000063A0319282C023A0319322C3B2C0130BA
:102820000317E500E6000A120313F0210A16442CF0
:102830000317E9010130EA000A120313F7200A1610
:1028400002300317E5000A12031304220A16442C6F
:1028500001300317E5000230E6000A120313F021ED
:102860000A16442C0317E9011030EA000A12031378
:10287000F7200A16442C01300317E9006408EA0027
:102880000A120313F7200A16031759088D005A0875
:102890008F008D0A03198F0A7C2B0313AB018B1B4E
:1028A000AB178B1301300317E5000A120313042240
:1028B0000A16AB1B8B17AB018B1BAB178B133B089B
:1028C0000317E100E3013D30E2000A12031318226E
:1028D0000A16AB1B8B170030781801300317AF00B6
:1028E0000313AB018B1BAB178B130317DB01DA014F
:1028F000D9012F08D8000A30DC00DE016830DD0085
:102900000A120313AF220A16AB1B8B176830840020
:10291000831380080319E72C0317D9010408D80092
:102920005910831B59140008E4006408073A031384
:102930000319A42C0B3A0319AD2C063A0319BD2C2C
:10294000023A0319C72CD02C01300317E500E6002A
:102950000A120313F0210A16D92C0317E9010130DA
:10296000EA000A120313F7200A1602300317E500E3
:102970000A12031304220A16D92C01300317E500AA
:102980000230E6000A120313F0210A16D92C0317AD
:10299000E9011030EA000A120313F7200A16D92CB5
:1029A00001300317E9006408EA000A120313F72054
:1029B0000A16031758088400831359188317840ACA
:1029C000031DE52C0313850A03170313892CAB01A0
:1029D0008B1BAB178B1301300317E5000A1203138F
:1029E00004220A16AB1B8B178316081001308312C2
:1029F0008806D12D8316861583128619D12DAB0139
:102A00008B1BAB178B133B080317E100E3013D3031
:102A1000E2000A12031318220A16AB1B8B170030B0
:102A2000781C01300317AF0003133B080317B000F5
:102A30002F08B100B3013D30B2000A120313A52FD5
:102A40000A16AB018B1BAB178B130C300317E50079
:102A50000230E6000A120313F0210A16AB1B8B1793
:102A600002300317AF000313AB018B1BAB178B13A3
:102A700096300317E5000A12031304220A16AB1B53
:102A80008B170317AF0B332D0313AB018B1BAB1746
:102A90008B133B080317E100E3013D30E2000A120B
:102AA000031318220A16AB1B8B170030781801305D
:102AB0000317AF000313AB018B1BAB178B1303176B
:102AC000DB01DA01D9012F08D8000A30DC00DE0171
:102AD0006830DD000A120313AF220A16AB1B8B17F6
:102AE00068308400831380080319D12D0317D9019E
:102AF0000408D8005910831B59140008E400640826
:102B0000073A031303198E2D0B3A0319972D063A32
:102B10000319A72D023A0319B12DBA2D013003175D
:102B2000E500E6000A120313F0210A16C32D03176D
:102B3000E9010130EA000A120313F7200A160230F5
:102B40000317E5000A12031304220A16C32D0130ED
:102B50000317E5000230E6000A120313F0210A16FB
:102B6000C32D0317E9011030EA000A120313F720FE
:102B70000A16C32D01300317E9006408EA000A129F
:102B80000313F7200A1603175808840083135918F3
:102B90008317840A031DCF2D0313850A031703131C
:102BA000732DB52AC82EAB018B1BAB178B130A30C4
:102BB0000317E5000230E6000A120313F0210A169B
:102BC000AB1B8B17AB018B1BAB178B130A30031797
:102BD000E5000A12031304220A16AB1B8B179C3064
:102BE00003178D0000308F0003130B080317D80064
:102BF00003138B13831603178C170C1400000000AB
:102C00008312D81F062E03138B1703170C087F3966
:102C10000319C52ED8000D08D9000F08DA0058088E
:102C2000E4006408073A03130319202E0B3A031932
:102C3000292E063A0319392E023A0319432E4C2E37
:102C400001300317E500E6000A120313F0210A160B
:102C5000552E0317E9010130EA000A120313F72089
:102C60000A1602300317E5000A12031304220A169B
:102C7000552E01300317E5000230E6000A12031357
:102C8000F0210A16552E0317E9011030EA000A1246
:102C90000313F7200A16552E01300317E9006408C4
:102CA000EA000A120313F7200A16031759088D00C9
:102CB0005A088F0003130B080317DB0003138B1351
:102CC000831603178C170C14000000008312DB1FFF
:102CD0006C2E03138B1703170C0D0E0D7F39031980
:102CE000C52ED8000D08D9000F08DA005808E400F6
:102CF0006408073A03130319872E0B3A0319902E21
:102D0000063A0319A02E023A0319AA2EB32E013057
:102D10000317E500E6000A120313F0210A16BC2E81
:102D20000317E9010130EA000A120313F7200A161B
:102D300002300317E5000A12031304220A16BC2E00
:102D400001300317E5000230E6000A120313F021F8
:102D50000A16BC2E0317E9011030EA000A12031309
:102D6000F7200A16BC2E01300317E9006408EA00B8
:102D70000A120313F7200A16031759088D005A0880
:102D80008F008D0A03198F0AF42D0313C82EBA0180
:102D90008A150A12692D0A108A140A158207062854
:062DA000C229D32DC72E4D
:04400E00E22FFF3F5F
:00000001FF
;PIC16F887
;CRC=83E6  CREATED="14-Oct-21 18:09"
