:1000000003308A003A2B0000FF00030E8301A10099
:100010000A08A0008A010408A2007708A300780853
:10002000A4007908A5007A08A600831383128C30F7
:100030008400801E1D288C1A2E2822088400230884
:10004000F7002408F8002508F9002608FA0020081F
:100050008A00210E8300FF0E7F0E09008A110A120A
:1000600031288C1E31281A08CE0083160810013062
:10007000831288068C128A110A121D2850308400BF
:1000800083130008031951280630F800F701F70B15
:100090004728F80B46287B30F700F70B4D28800BDC
:1000A00044280800AE01AD01CF014F08633C031C9A
:1000B00069289F149F185A2883161E088312AD07BB
:1000C0001E0803181E0FAE070130D0003E20CF0AD5
:1000D00055282E08D1002D08D0008E30F700510889
:1000E000F8005008F900FA01F808031D8128790882
:1000F000F800F9010830F702F808031D8128F7011C
:1001000089280310F81B8828F90DF80DF7038128BA
:10011000F8137A08D3007908D2007808D10077085C
:10012000D0009A30D7009930D6004C30D5008630B8
:10013000D400500803195E29DC00540803195E2915
:10014000DC02031CA8287F30DC0703185E29AE28D8
:100150008130DC02031C5E2903195E295C08F7006C
:10016000F801F901FA01DB015108DA00DA17520847
:10017000D9005308D8001930DC005708D8020318FA
:10018000D1280130D9020318D128DA020318D12866
:10019000DB020318D128DB0ADA0AD90A5708D80784
:1001A00003295608D9020318EC280130DA02031893
:1001B000EC28DB020318EC28DB0ADA0A5608D90718
:1001C0005708D807031C0329D90A031D0329DA0A93
:1001D000031D0329DB0A032955088038DA020318B6
:1001E00002290130DB0203180229DB0A5508803896
:1001F000DA075608D907031CE028DA0A031DE028AD
:10020000DB0AE0287A14DC0B062911290310D80D2B
:10021000D90DDA0DDB0D0310FA0DF90DF80DDD0D1A
:10022000BD285D1C19290310F80CF90CFA0CDD0C23
:100230001C29F70303195E29DD1B45290310D80D7E
:10024000D90DDA0DDB0D5708D8020318312901301A
:10025000D90203183129DA0203183129DB02031C01
:1002600054295608D90203183C290130DA02031830
:100270003C29DB02031C542955088038DA02031894
:1002800045290130DB02031C5429FA0A031D5429B5
:10029000F90A031D5429F80A031D5429F70A031902
:1002A0005E29F80CF90CFA0C5108DC005508DC0644
:1002B000DC1F5C29F8176229F8136229F701F8019D
:1002C000F901FA017A08D3007908D2007808D10040
:1002D0007708D0008E30F7005008F7025108F90077
:1002E0005208F800F917F708031981290310F908D3
:1002F000031D7D29F80803198129F90CF80CF70B67
:100300007629D11F8829F809F909F80A0319F90A89
:100310007908AE007808AD008A110A12932B831871
:1003200094296E308400831369086D068039F300C8
:10033000E91FA529E609E709E809E909E60A031919
:10034000E70A0319E80A0319E90AED1FB229EA09C5
:10035000EB09EC09ED09EA0A0319EB0A0319EC0AA7
:100360000319ED0AF701F801F901FA01EE01EF01B5
:10037000F001F1016D086C046B046A040319F029A3
:100380002030F2000310E60DE70DE80DE90DEE0D4B
:10039000EF0DF00DF10D6D087102031DD9296C08E8
:1003A0007002031DD9296B086F02031DD9296A0841
:1003B0006E02031CEA296A08EE026B08031C6B0F2D
:1003C000EF026C08031C6C0FF0026D08031C6D0F2C
:1003D000F1020314F70DF80DF90DFA0DF20BC22915
:1003E000F31FFD29F709F809F909FA09F70A0319B2
:1003F000F80A0319F90A0319FA0A6E088000840A38
:100400006F088000840A70088000840A71088000E8
:100410000800D901D801D7010130D600DB01DC0189
:10042000D21F522A0130DB005208E1005108E000DF
:100430005008DF004F08DE00FF30E500E400E30075
:10044000E2002030EA00E601E701E801E901610885
:10045000FA006008F9005F08F8005E08F700031072
:10046000771C402A6208E60763080318630FE70752
:1004700064080318640FE80765080318650FE907A7
:10048000E90CE80CE70CE60CFA0CF90CF80CF70C8C
:10049000EA0B2F2A7A08D2007908D1007808D00018
:1004A0007708CF00D608031D5E2AD708031D5E2AF1
:1004B000D808031D5E2AD9080319D62A83105208CA
:1004C000E9005108E8005008E7004F08E600ED0198
:1004D000EC01EB015308EA008F217A08D900790872
:1004E000D8007808D7007708D6005C085407F800D1
:1004F0005508FA000318FA0A7808DE007A08DF00C7
:10050000E1010408E0006110831B61148314623070
:10051000840083135208E9005108E8005008E700FE
:100520004F08E600ED01EC01EB015308EA008F21D2
:100530006008840083136118831730306207F70066
:100540006308F800003003180130F8076408F90068
:10055000003003180130F9076508FA00003003186D
:100560000130FA075E08840083135F188317770849
:1005700080005C0854078400831355188317000813
:10058000393C0318CC2A5C0854078400831355189F
:100590008317073000078000DC0A5908D20058088A
:1005A000D1005708D0005608CF00522A5B0BE12A31
:1005B0005C08540784008313551883172D3080007E
:1005C000DC0ADA0103105C0C5A020318132B5A08D8
:1005D000540784008313551883170008DD005A0858
:1005E0005407F8005508FA000318FA0A5A085C0282
:1005F000FF3E540784008313551883170008E0005A
:100600007808840083137A188317600880005A08DA
:100610005C02FF3E540784008313551883175D085E
:100620008000DA0AE22A5C08540784008313551814
:10063000831780015408F8005508F9008A110A123E
:10064000A62B80080319372BD0010408CF005010C7
:10065000831B501400080C1E2B2B99004F0884009C
:10066000831350188317840A0319850A212B8A11D2
:100670000A12AA2B03081F39830083160317871554
:1006800008300313990002309A00A6309800903089
:1006900083129800AF015830CE0083160317090863
:1006A000C039890003131F129F12003003178800FE
:1006B000831287018801890183130313A701A8010D
:1006C0003230B0003030B100B20100308316880003
:1006D000F030860083121F179F1383169F17831213
:1006E0001F14831603170908C039890003131F124A
:1006F0009F120130031788000030F80083120313A3
:100700001F08C33978049F0083160810831208104D
:10071000831688018312880183168C16C0308312D9
:100720008B048B165228AE08031D9A2B2D081A3CF9
:100730000318AD2BD201D1012E08D0002D08CF0017
:100740000A30D300D5013030D400092A303084007B
:100750008313212BC830D0003E20C830D0003E206B
:04076000922B630075
:04400E00E22FFF3F5F
:00000001FF
;PIC16F887
;CRC=2501  CREATED="03-Oct-21 00:45"
