:1000000009308A003A290000FF00030E8301A10095
:100010000A08A0008A010408A2007708A300780853
:10002000A4007908A5007A08A60003170D08031399
:10003000A70003170F080313A80003170C080313E6
:10004000A90003170E080313AA00831383120B1EC3
:100050002B288B1852288C308400801E31288C1A53
:100060005528220884002308F7002408F8002508F2
:10007000F9002608FA00270803178D000313280843
:1000800003178F000313290803178C0003132A0892
:1000900003178E00031320088A00210E8300FF0E31
:1000A0007F0E09008A110A129C288A110A126528FB
:1000B0000A108A100A11820700340A108A100A11E5
:1000C000820720342A34203400341030760784002C
:1000D00083178C1E69281A08800010307607840068
:1000E000831700082E3C031D7E28103076078400FD
:1000F00083178001F6010130FE007F28F60A8C127A
:100100008A110A12312849223A100000C422D6244A
:10011000C3223A100001C320D3223100C3274E234B
:10012000C9230001C320D3223A100000C3274E2365
:10013000C92320224F2745000317D6018316031336
:10014000861483128618B2280C1CAF280C108E015E
:100150000B308F00DC308E000317D60A0313031711
:100160009E28031303175608283C0318BD280130A6
:100170000313BB06BB14C12803170313BB103B11A9
:10018000BB118B108A110A12312835308400831775
:1001900000080319D8280630F800F701F70BCE281D
:1001A000F80BCD287B30F700F70BD428800BCB2839
:1001B000080003173C18E02803130710E228031770
:1001C00003130714311031088316870083120317B5
:1001D000BC18EE2803138710F028031703138714A5
:1001E000B110310883168700831203173C19FC28CD
:1001F00003130711FE2803170313071531113108E4
:100200008316870083120317BC190A290313871169
:100210000C29031703138715B111310883168700C2
:10022000000083120914831609100230F700F70B3F
:1002300017291A2900008312091083160910831246
:1002400008000317BD01031331143108831687001A
:1002500000308312071801300317BD040313B114D3
:100260003108831687000030831287180130F700A9
:100270000310F70D77080317BD0403133115310878
:10028000831687000030831207190130F700F70D3D
:10029000F70DFC30F70577080317BD040313B115FC
:1002A0003108831687000030831287190130F70068
:1002B000F70DF70DF70DF830F70577080317BD04B4
:1002C0003D08F8000313080083160910891009116E
:1002D0008312891083168910071487140715871550
:1002E000831209158316091100008312091483165D
:1002F000091000008312212178080317BC000313A2
:1003000009108316091000008312091483160910BE
:1003100089298A2900008312212178080317BB004C
:100320000313091083160910831231103108831644
:1003300087008312B11031088316870083123111B0
:100340003108831687008312B111310883168700A4
:10035000831203173C0EF700F030F70577083B04D3
:10036000F8007808BB00BB1FB829831603136C295B
:10037000B908031DBF2903138910C12903170313EB
:10038000891483168910000083120911831609113C
:1003900000008312091083160910831203173A0E06
:1003A000BB000F30BB053B08BC000313D92003176B
:1003B0003A080F39BB00BC000313D92008002830CD
:1003C0000317B0000C30B1000130B2000630B300AA
:1003D00003130910831609108312891083168910DC
:1003E0008312091183160911831231103108831603
:1003F00087008312B11031088316870083123111F0
:100400003108831687008312B111310883168700E3
:100410000910891009110F3083120317B500031357
:10042000C52001300317AF002F08033C031C242A0A
:100430000330BC000313D92005300317B5000313A4
:10044000C5200317AF0A142A0230BC000313D920B9
:1004500005300317B5000313C5200317AF012F089C
:10046000033C031C412A30302F0784008317000807
:10047000B400B9013408BA00031364210317AF0AAA
:100480002F2A03138A150A12642A03172F0DF70067
:10049000F70DFC30F70503131F08C33977049F00DD
:1004A000B301B2010317B0013008633C031C6C2A8E
:1004B00003139F149F185A2A83161E088312B2072B
:1004C0001E0803181E0FB30701300317B5000313EE
:1004D000C5200317B00A542A031333080317B200C8
:1004E000031332080317B1008E30F7003208F8000A
:1004F0003108F900FA01F808031D882A7908F80084
:10050000F9010830F702F808031D882AF701902A3C
:100510000310F81B8F2AF90DF80DF703882AF8133A
:100520007A08B4007908B3007808B2007708B100FF
:100530009A30B8009930B7004C30B6008630B5001C
:1005400031080319652BBD0035080319652BBD0261
:10055000031CAF2A7F30BD070318652BB52A8130F5
:10056000BD02031C652B0319652B3D08F700F8013C
:10057000F901FA01BC013208BB00BB173308BA000D
:100580003408B9001930BD003808B9020318D82A58
:100590000130BA020318D82ABB020318D82ABC02B9
:1005A0000318D82ABC0ABB0ABA0A3808B9070A2BAA
:1005B0003708BA020318F32A0130BB020318F32AE2
:1005C000BC020318F32ABC0ABB0A3708BA0738086A
:1005D000B907031C0A2BBA0A031D0A2BBB0A031D09
:1005E0000A2BBC0A0A2B36088038BB020318092BD9
:1005F0000130BC020318092BBC0A36088038BB073F
:100600003708BA07031CE72ABB0A031DE72ABC0AFE
:10061000E72A7A14BD0B0D2B182B0310B90DBA0D58
:10062000BB0DBC0D0310FA0DF90DF80DBE0DC42A5B
:100630003E1C202B0310F80CF90CFA0CBE0C232BDB
:10064000F7030319652BBE1B4C2B0310B90DBA0D14
:10065000BB0DBC0D3808B9020318382B0130BA02A3
:100660000318382BBB020318382BBC02031C5B2B6E
:100670003708BA020318432B0130BB020318432B7F
:10068000BC02031C5B2B36088038BB0203184C2BC2
:100690000130BC02031C5B2BFA0A031D5B2BF90A19
:1006A000031D5B2BF80A031D5B2BF70A0319652B4F
:1006B000F80CF90CFA0C3208BD003608BD06BD1F57
:1006C000632BF817692BF813692BF701F801F9016F
:1006D000FA017A08B4007908B3007808B200770804
:1006E000B1008E30F7003108F7023208F900330804
:1006F000F800F917F7080319882B0310F908031DF0
:10070000842BF8080319882BF90CF80CF70B7D2BB8
:10071000B21F8F2BF809F909F80A0319F90A7908A9
:100720000313B3007808B2003208F8008A150A12E1
:10073000722A0317360B9D2BA02B4030B700A12B3C
:10074000B70101303502B70737088038B800B90162
:100750003808BA0003136421080003173408073A65
:1007600003130319BD2B0B3A0319C42B063A0319C3
:10077000D02B023A0319D82BDF2B01300317B50019
:10078000B60003139923E62B0317B9010130BA0011
:100790000313642102300317B5000313C520E62BB1
:1007A00001300317B5000230B60003139923E62B7E
:1007B0000317B9011030BA0003136421E62B01308E
:1007C0000317B9003408BA000313642108000B08AA
:1007D0000317B10003138B13831603178C170C1424
:1007E000000000008312B11FF82B03138B170317AF
:1007F0000C087F390319352CB1000D08B2000F0821
:10080000B3003108B4000313AD23031732088D0081
:1008100033088F0003130B080317B40003138B1363
:10082000831603178C170C14000000008312B41FEA
:100830001C2C03138B1703170C0D0E0D7F39031996
:10084000352CB1000D08B2000F08B3003108B40018
:100850000313AD23031732088D0033088F008D0A70
:1008600003198F0A0313E72B0317031308008318D8
:100870003C2C50308400831703174B084F068039F7
:10088000D500CB1F4E2CC809C909CA09CB09C80A13
:100890000319C90A0319CA0A0319CB0ACF1F5B2C13
:1008A000CC09CD09CE09CF09CC0A0319CD0A031909
:1008B000CE0A0319CF0AF701F801F901FA01D001B4
:1008C000D101D201D3014F084E044D044C04031949
:1008D000992C2030D4000310C80DC90DCA0DCB0DC2
:1008E000D00DD10DD20DD30D4F085302031D822C14
:1008F0004E085202031D822C4D085102031D822C0A
:100900004C085002031C932C4C08D0024D08031CC9
:100910004D0FD1024E08031C4E0FD2024F08031C8C
:100920004F0FD3020314F70DF80DF90DFA0DD40B88
:100930006B2CD51FA62CF709F809F909FA09F70A53
:100940000319F80A0319F90A0319FA0A5008800072
:10095000840A51088000840A52088000840A5308DF
:100960008000031308000317BB01BA01B90101306D
:10097000B800BD01BE01B41FFD2C0130BD0034081C
:10098000C3003308C2003208C1003108C000FF3084
:10099000C700C600C500C4002030CC00C801C90192
:1009A000CA01CB014308FA004208F9004108F800E7
:1009B0004008F7000310771CEB2C4408C8074508D3
:1009C0000318450FC90746080318460FCA0747080A
:1009D0000318470FCB07CB0CCA0CC90CC80CFA0C78
:1009E000F90CF80CF70CCC0BDA2C7A08B400790867
:1009F000B3007808B2007708B100B808031D092DCC
:100A0000B908031D092DBA08031D092DBB080319D8
:100A1000852D83103408CB003308CA003208C90082
:100A20003108C800CF01CE01CD013508CC00031339
:100A300037247A080317BB007908BA007808B90090
:100A40007708B8003E083607F8003708FA000318A0
:100A5000FA0A7808C0007A08C100C3010408C2007D
:100A60004310831B431483144430840083173408D9
:100A7000CB003308CA003208C9003108C800CF01D2
:100A8000CE01CD013508CC000313372403174208EB
:100A9000840083134318831730304407F700450858
:100AA000F800003003180130F8074608F90000305C
:100AB00003180130F9074708FA0000300318013025
:100AC000FA074008840083134118831777088000D1
:100AD0003E08360784008313371883170008393C13
:100AE00003187B2D3E0836078400831337188317BD
:100AF000073000078000BE0A3B08B4003A08B30084
:100B00003908B2003808B100FD2C3D0B902D3E088D
:100B1000360784008313371883172D308000BE0AF0
:100B2000BC0103103E0C3C020318C62D3C083607DE
:100B300084008313371883170008BF003C0836076A
:100B4000F8003708FA000318FA0A7808C0007A0893
:100B5000C1003C083E02FF3E36078400831337186D
:100B600083170008C20040088400831341188317CC
:100B7000420880003C083E02FF3E36078400831393
:100B8000371883173F088000BC0A912D3E083607AE
:100B9000840083133718831780013608F80037085C
:100BA000F9000313080080080319EF2D0317B201A1
:100BB0000408B1003210831B32140008B400031380
:100BC000AD23031731088400831332188317840A76
:100BD000031DED2D0313850A03170313D32D0800FE
:100BE000031731080739F700310CF800F80CF80C3E
:100BF0001F30F805780832078400831333188317F1
:100C00000008F800F70A052EF80CF70B042E031362
:100C10000800031730080739F700300CF800F80C0B
:100C2000F80C1F30F8057808320784008313331856
:100C30008317F801F80AF70A1E2EF80DF70B1D2E80
:100C4000B1080319262E78088004292EF80978089F
:100C5000800503138A110A12262FBB103808FC3EA8
:100C600003186D2F043E702FBB10BB150130031706
:100C7000B5000230B600031399230A300317B500FC
:100C80000313C520833003178D0000308F0003133A
:100C9000E723BB1D882E8316061583120619872E9F
:100CA000B90A39080F3C031CB90102300317AF0021
:100CB0009630B5000313C5200317AF0B582EB401AF
:100CC000B301B201031339080317B1000A30B500AC
:100CD000B701D730B6000313B32409300317B500AA
:100CE0000230B600031399230A300317B50003132B
:100CF000C520D73084008313D32501300317B500F6
:100D00000313C52083160810013083128806492E6C
:100D10006D2FBB10BB1501300317B5000230B600B4
:100D2000031399230A300317B5000313C520863037
:100D300003178D0000308F000313E723BB1D562FD0
:100D40008316061583120619092FBA0A3A08073CBA
:100D5000031CBA0102300317AF009630B50003132D
:100D6000C5200317AF0BAD2EB401B301B2010313BD
:100D70003A080317B1000A30B500B701D930B60000
:100D80000313B32409300317B5000230B600031370
:100D900099230A300317B5000313C520D930840006
:100DA0008313D32501300317B5000313C5203A3050
:100DB0000317B4000313AD2301300317B500031369
:100DC000C5203A080317B100B3013C30B200031349
:100DD000F0250030781801300317AF00B401B301DB
:100DE000B2012F08B1000A30B500B701D930B60002
:100DF0000313B324D93084008313D32501300317A0
:100E0000B5000313C520831608100130831288062D
:100E1000552F8316861583128619552F3A08031706
:100E2000B100B3013C30B2000313F0250030781C50
:100E300001300317AF0003133A080317B0002F085F
:100E4000B100B3013C30B2000313092E0C3003177C
:100E5000B5000230B6000313992302300317AF0028
:100E60009630B5000313C5200317AF0B302F0313C3
:100E70003A080317B100B3013C30B2000313F02568
:100E80000030781801300317AF00B401B301B2018C
:100E90002F08B1000A30B500B701D930B6000313EE
:100EA000B324D93084008313D3259E2E6D2F0A30AE
:100EB0000317B5000230B600031399230A30031755
:100EC000B5000313C5208B3003178D0000308F0051
:100ED0000313E7236D2FBB10B9018A110A12D42F17
:100EE0000A148A140A158207342E892E572F6B2F65
:100EF0003B1501300317B500B600031399230A30E0
:100F00000317B5000313C5208E3003178D00003082
:100F10008F000313E72301300317B5000230B6003A
:100F2000031399230A300317B5000313C520923029
:100F300003178D0000308F000313E7233B1DD32FD1
:100F40008316061583120619D22FB80A3808033CF7
:100F5000031CB80102300317AF009630B50003132D
:100F6000C5200317AF0BAD2F0930B5000230B60016
:100F7000031399230317B401B301B2010313380813
:100F80000317B1000A30B500B701D930B60003131A
:100F9000B3240A300317B5000313C520D9308400E9
:100FA0008313D3259E2F2D2E8A150A127A2A8008A4
:100FB0000319F42F0317B4010408B3003410831B82
:100FC0003414000803130C1EE32F99000317330891
:100FD0008400831334188317840A031DF22F03132C
:0A0FE000850A03170313D72F08003A
:1010000003173208B6003108B5003608FA00350873
:10101000840083137A188317800803191328B50AEC
:101020000319B60A05283408FA003308840083132C
:101030007A1883178008031936283508B700360850
:10104000B800330884008313341883170008B900EC
:101050003708840083133818831739088000B50ACD
:101060000319B60AB30A0319B40A13283508840011
:1010700083133618831780013108F8003208F9000D
:10108000031308000317B101B2013D30840083133C
:101090003108840732088A11031358208A1580000A
:1010A0000038031958280317B20AB10A4528031358
:1010B0000317AF012F08073C031C84282F08B10039
:1010C000B3013C30B2008A110313F0258A15781C55
:1010D00081280317B401B301B2012F08B1000A300F
:1010E000B500B701D930B6008A110313B3248A15AD
:1010F0000317B2013D30B100B401D930B30003137E
:1011000000200317AF0A5A28B101B201D930840078
:1011100083133108840732088A1103135D208A156E
:1011200080000038031999280317B20AB10A8628EB
:1011300003130317B2013D30B100B401D930B3003D
:10114000031300208316AB013D30AA00A301D73062
:10115000A20083120317B0013008073C031CCD28FE
:101160000310300DA03E84008313840A0008B200EF
:1011700084030008B10084008313321883178A1196
:101180000313D7278A1501300317B5008A110313FB
:10119000C5208A150317B00AAC280130B500B60087
:1011A0008A11031399238A150A300317B5008A118F
:1011B0000313C5208A15963003178D0000308F0069
:1011C0008A110313E7238A1501300317B500023093
:1011D000B6008A11031399238A150A300317B50044
:1011E0008A110313C5208A153D30840083138A11A8
:1011F000D3258A15C201D730C100BB108A150A1247
:101200007E2A0317AF012F081E3C031C17298316E3
:101210000313881002308312880664300317B50068
:101220008A110313C5208A150317AF0A0329031374
:101230008A150A127F2A01300317B500B6008A11F9
:10124000031399238A150A300317B5008A11031373
:10125000C5208A151030840083178A11D3258A157A
:1012600001300317B5008A110313C5208A158A15AA
:101270000A12E72A03081F3983008316031787150C
:1012800008300313990002309A00A630980090307D
:1012900083129800FF30B100B801B901BA013B10C8
:1012A000BB103B11BB11F601FE01831603170908A1
:1012B000C039890003131F129F12003003178800E2
:1012C000831287018801890183130313AB01AC01E9
:1012D000BC012030BD00BE015330CF00D0014930E9
:1012E000D1004430D200D3015330D4005F30D50058
:1012F0005330D600D7014C30D8004530D9004E309D
:10130000DA004730DB004830DC005430DD00DE011D
:101310004430DF004130E0005430E1004130E20071
:101320003130E300E4014430E5004130E600543060
:10133000E7004130E8003230E900EA014330EB00D9
:101340004830EC004530ED004330EE004B30EF000C
:101350005330F0005530F1004D30F200F3012330EE
:10136000F400F501C0014F30BF00C2015130C1008F
:10137000C4015430C300C6015830C500C8015F30F5
:10138000C700CA016530C900CC016B30CB00CE016B
:101390007430CD0053308316B000B1014930B20033
:1013A0004430B300B4014330B5005F30B60046307E
:1013B000B700B8014C30B9004530BA004E30BB0020
:1013C0004730BC004830BD005430BE00BF0149303A
:1013D000C0004430C1005F30C200C3014430C400CB
:1013E0004530C5005630C6004930C7004330C800FC
:1013F0004530C900CA015330CB004530CC004E30D7
:10140000CD005330CE004F30CF005230D000D1014C
:101410002330D200D301A101B030A000A301B2302B
:10142000A200A501B530A400A701B930A600A9010A
:10143000C030A800AB01C430AA00AD01CB30AC0075
:10144000AF01D230AE003230FB003730FC00FD017E
:101450003230D4003730D500D6013030D700D80133
:10146000D900DA0100308800FF30860009108910A9
:1014700009118911803087008312B1001F179F1353
:1014800083169F1783121F14831603170908C03988
:10149000890003131F129F12013003178800831263
:1014A00003138B160B160B16831601138C16C03004
:1014B00083128B04353090008E010B308F00DC30AE
:1014C0008E000C108A11DF298A15B9013B10BB1060
:1014D0008316880183128801FE010317AF018A1168
:1014E0000313452A8A15B5017808B4003B1C7C2AF1
:1014F0008A11782F8A157E2ABB1842280129B5083F
:10150000031D862A34081A3C0318E32A0317B40182
:10151000B301031335080317B2000313340803178C
:10152000B1000A30B500B7017B30B6008A11031351
:10153000B3248A15C8017B30C7000317B401B30177
:10154000031337080317B200031336080317B1005B
:101550000A30B500B701D430B6008A110313B324A2
:101560008A15CA01D430C9000317AE012E08073C02
:10157000031CD72A03102E0D3F3E84008313840AD8
:101580000008B00084030008AF0084008313301803
:1015900083178A110313D7278A1501300317B50063
:1015A0008A110313C5208A150317AE0AB62A043020
:1015B000AF00FA30B5008A110313C5208A1503174E
:1015C000AF0BD92A03137E0BFB2AFE011B298316BE
:1015D00008100130831288068316881002308312A7
:1015E0008806831608110430831288068316881132
:0A15F0000830831288066D2A63009C
:04400E00E22FFF3F5F
:00000001FF
;PIC16F887
;CRC=E3D9  CREATED="15-Oct-21 15:54"
