:1000000003308A00BB2B0000FF00030E8301A10018
:100010000A08A0008A010408A2007708A300780853
:10002000A4007908A5007A08A600831383128C30F7
:100030008400801E1D288C1A2E2822088400230884
:10004000F7002408F8002508F9002608FA0020081F
:100050008A00210E8300FF0E7F0E09008A110A120A
:1000600031280330AF0083168810023083128806CF
:100070006830CE006530CF006F30D2007730D300CB
:10008000500884008313511883178403840A8C1E3C
:1000900047281A0880000D300002031D4628800101
:1000A00051088316A700831250088316A6008312F6
:1000B0004F088316A90083124E088316A80027084C
:1000C000FA002608840083137A1883170008AA0010
:1000D0002908FA002808840083137A188317000877
:1000E0002A02031D8A282708FA00260884008313A1
:1000F0007A1883178008031D80280030F800A22892
:100100002708FA002608A60A0319A70AA80A03194D
:10011000A90A5F282708FA002608840083132718F5
:1001200083170008AA002908FA002808840083130E
:100130002918831700082A020318A028FF30A128D5
:100140000130F80078088312AF00AF08031DAD2816
:10015000831608100130831288068C128A110A1245
:100160001D2855308400831300080319C428063065
:10017000F800F701F70BBA28F80BB9287B30F70025
:10018000F70BC028800BB7280800AE01AD01D401E1
:100190005408633C031CDC289F149F18CD28831649
:1001A0001E088312AD071E0803181E0FAE0701308C
:1001B000D500B120D40AC8282E08D6002D08D500B5
:1001C0008E30F7005608F8005508F900FA01F808D3
:1001D000031DF4287908F800F9010830F702F8083F
:1001E000031DF428F701FC280310F81BFB28F90D68
:1001F000F80DF703F428F8137A08D8007908D70027
:100200007808D6007708D5009A30DC009930DB00FA
:100210004C30DA008630D90055080319D129E100A5
:1002200059080319D129E102031C1B297F30E1077A
:100230000318D12921298130E102031CD129031996
:10024000D1296108F700F801F901FA01E001560827
:10025000DF00DF175708DE005808DD001930E10025
:100260005C08DD02031844290130DE02031844292A
:10027000DF0203184429E00203184429E00ADF0AD8
:10028000DE0A5C08DD0776295B08DE0203185F29B9
:100290000130DF0203185F29E00203185F29E00A3A
:1002A000DF0A5B08DE075C08DD07031C7629DE0A2F
:1002B000031D7629DF0A031D7629E00A76295A08EC
:1002C0008038DF02031875290130E0020318752910
:1002D000E00A5A088038DF075B08DE07031C532951
:1002E000DF0A031D5329E00A53297A14E10B792907
:1002F00084290310DD0DDE0DDF0DE00D0310FA0D76
:10030000F90DF80DE20D3029621C8C290310F80C50
:10031000F90CFA0CE20C8F29F7030319D129E21B1F
:10032000B8290310DD0DDE0DDF0DE00D5C08DD02E8
:100330000318A4290130DE020318A429DF020318E0
:10034000A429E002031CC7295B08DE020318AF29B9
:100350000130DF020318AF29E002031CC7295A0845
:100360008038DF020318B8290130E002031CC729D6
:10037000FA0A031DC729F90A031DC729F80A031D34
:10038000C729F70A0319D129F80CF90CFA0C5608F9
:10039000E1005A08E106E11FCF29F817D529F81323
:1003A000D529F701F801F901FA017A08D80079088E
:1003B000D7007808D6007708D5008E30F7005508AA
:1003C000F7025608F9005708F800F917F70803195B
:1003D000F4290310F908031DF029F8080319F4297A
:1003E000F90CF80CF70BE929D61FFB29F809F909D4
:1003F000F80A0319F90A7908AE007808AD008A11E5
:100400000A12132C8318072AA030840083136E0865
:10041000720680398316A5008312EE1F1A2AEB0993
:10042000EC09ED09EE09EB0A0319EC0A0319ED0AD0
:100430000319EE0AF21F272AEF09F009F109F20960
:10044000EF0A0319F00A0319F10A0319F20AF70176
:10045000F801F901FA018316A001A101A201A3018B
:1004600072087104700483126F0403196F2A20301C
:100470008316A40003108312EB0DEC0DED0DEE0DB1
:100480008316A00DA10DA20DA30D72082302031D5A
:10049000552A71082202031D552A70082102031DE6
:1004A000552A83126F0883162002031C682A8312C0
:1004B0006F088316A0027008031C700FA102710858
:1004C000031C710FA2027208031C720FA302031413
:1004D000F70DF80DF90DFA0DA40B3A2A83128316C5
:1004E000A51F7D2AF709F809F909FA09F70A03197E
:1004F000F80A0319F90A0319FA0A20088000840A85
:1005000021088000840A22088000840A23088000D1
:1005100083120800DE01DD01DC010130DB00E001B7
:10052000E101D71FD32A0130E0005708E600560842
:10053000E5005508E4005408E300FF30EA00E90054
:10054000E800E7002030EF00EB01EC01ED01EE01E7
:100550006608FA006508F9006408F8006308F70007
:100560000310771CC12A6708EB0768080318680F97
:10057000EC0769080318690FED076A0803186A0F8A
:10058000EE07EE0CED0CEC0CEB0CFA0CF90CF80C85
:10059000F70CEF0BB02A7A08D7007908D600780854
:1005A000D5007708D400DB08031DDF2ADC08031D13
:1005B000DF2ADD08031DDF2ADE080319572B83100D
:1005C0005708EE005608ED005508EC005408EB0003
:1005D000F201F101F0015808EF0002227A08DE0072
:1005E0007908DD007808DC007708DB00610859072E
:1005F000F8005A08FA000318FA0A7808E3007A08A3
:10060000E400E6010408E5006610831B6614831409
:100610006730840083135708EE005608ED00550834
:10062000EC005408EB00F201F101F0015808EF0072
:100630000222650884008313661883173030670729
:10064000F7006808F800003003180130F80769085F
:10065000F900003003180130F9076A08FA00003089
:1006600003180130FA0763088400831364188317A2
:100670007708800061085907840083135A1883178C
:100680000008393C03184D2B610859078400831377
:100690005A188317073000078000E10A5E08D70068
:1006A0005D08D6005C08D5005B08D400D32A600B37
:1006B000622B61085907840083135A1883172D3061
:1006C0008000E10ADF010310610C5F020318942B24
:1006D0005F085907840083135A1883170008E20043
:1006E0005F085907F8005A08FA000318FA0A5F0869
:1006F0006102FF3E5907840083135A1883170008CC
:10070000E5007808840083137A1883176508800051
:100710005F086102FF3E5907840083135A1883174C
:1007200062088000DF0A632B610859078400831385
:100730005A18831780015908F8005A08F9008A11DD
:100740000A12262C80080319B82BD5010408D400FE
:100750005510831B551400080C1EAC2B990054082F
:100760008400831355188317840A0319850AA22B62
:100770008A110A122A2C03081F39830083160317D3
:10078000871508300313990002309A00A6309800AC
:100790009030831298000430AF00831603170908C5
:1007A000C039890003131F129F12003003178800FD
:1007B000831287018801890183130313A701A8010C
:1007C0003230B0003030B100B20100308316880002
:1007D000F030860083121F179F1383169F17831212
:1007E0001F14831603170908C039890003131F1249
:1007F0009F120130031788000030F80083120313A2
:100800001F08C33978049F0083160810831208104C
:10081000831688018312880183168C16C0308312D8
:100820008B048B16C528AE08031D1A2C2D081A3C04
:1008300003182D2CD701D6012E08D5002D08D40081
:100840000A30D800DA013030D9008A2A30308400EA
:0E0850008313A22BC830D500B120122C6300F8
:04400E00E22FFF3F5F
:00000001FF
;PIC16F887
;CRC=24DD  CREATED="03-Oct-21 01:42"
