:1000000009308A003A290000FF00030E8301A10095
:100010000A08A0008A010408A2007708A300780853
:10002000A4007908A5007A08A60003170D08031399
:10003000A70003170F080313A80003170C080313E6
:10004000A90003170E080313AA00831383120B1EC3
:100050002B288B1852288C308400801E31288C1A53
:100060005528220884002308F7002408F8002508F2
:10007000F9002608FA00270803178D000313280843
:1000800003178F000313290803178C0003132A0892
:1000900003178E00031320088A00210E8300FF0E31
:1000A0007F0E09008A110A127E288A110A12A728D7
:1000B0000A108A100A11820700340A108A100A11E5
:1000C000820720342A342034003449223A100000B8
:1000D000C422D624C3223A100001C320D322310007
:1000E000C3274E23C9230001C320D3223A100000A6
:1000F000C3274E23C92320224F2745000317DC01C5
:100100008316031386148312861894280C1C9128D6
:100110000C108E010B308F00DC308E000317DC0AD0
:10012000031303178028031303175C08283C0318E4
:100130009F2801300313DE06DE14A32803170313E0
:10014000DE105E11DE118B108A110A1231283B304D
:100150005907840083138C1EAB281A0880003B309B
:1001600059078400831300082E3C031DC0283B3030
:100170005907840083138001D9010130DA00C128B6
:10018000D90A8C128A110A1231283B308400831755
:1001900000080319D8280630F800F701F70BCE281D
:1001A000F80BCD287B30F700F70BD428800BCB2839
:1001B000080003174218E02803130710E22803176A
:1001C00003130714311031088316870083120317B5
:1001D000C218EE2803138710F0280317031387149F
:1001E000B110310883168700831203174219FC28C7
:1001F00003130711FE2803170313071531113108E4
:100200008316870083120317C2190A290313871163
:100210000C29031703138715B111310883168700C2
:10022000000083120914831609100230F700F70B3F
:1002300017291A2900008312091083160910831246
:1002400008000317C3010313311431088316870014
:1002500000308312071801300317C3040313B114CD
:100260003108831687000030831287180130F700A9
:100270000310F70D77080317C30403133115310872
:10028000831687000030831207190130F700F70D3D
:10029000F70DFC30F70577080317C3040313B115F6
:1002A0003108831687000030831287190130F70068
:1002B000F70DF70DF70DF830F70577080317C304AE
:1002C0004308F80003130800831609108910091168
:1002D0008312891083168910071487140715871550
:1002E000831209158316091100008312091483165D
:1002F000091000008312212178080317C20003139C
:1003000009108316091000008312091483160910BE
:1003100089298A2900008312212178080317C10046
:100320000313091083160910831231103108831644
:1003300087008312B11031088316870083123111B0
:100340003108831687008312B111310883168700A4
:1003500083120317420EF700F030F70577084104C7
:10036000F8007808C100C11FB829831603136C294F
:10037000BF08031DBF2903138910C12903170313E5
:10038000891483168910000083120911831609113C
:100390000000831209108316091083120317400E00
:1003A000C1000F30C1054108C2000313D920031753
:1003B00040080F39C100C2000313D92008002830BB
:1003C0000317B6000C30B7000130B8000630B90092
:1003D00003130910831609108312891083168910DC
:1003E0008312091183160911831231103108831603
:1003F00087008312B11031088316870083123111F0
:100400003108831687008312B111310883168700E3
:100410000910891009110F3083120317BB00031351
:10042000C52001300317B5003508033C031C242AFE
:100430000330C2000313D92005300317BB00031398
:10044000C5200317B50A142A0230C2000313D920AD
:1004500005300317BB000313C5200317B50135088A
:10046000033C031C412A36303507840083170008FB
:10047000BA00BF013A08C000031364210317B50A8C
:100480002F2A03138A150A126F2A0317350DF70056
:10049000F70DFC30F70503131F08C33977049F00DD
:1004A000B301B2010317B6013608633C031C6C2A82
:1004B00003139F149F185A2A83161E088312B2072B
:1004C0001E0803181E0FB30701300317BB000313E8
:1004D000C5200317B60A542A031333080317B800BC
:1004E000031332080317B7008E30F7003808F800FE
:1004F0003708F900FA01F808031D882A7908F8007E
:10050000F9010830F702F808031D882AF701902A3C
:100510000310F81B8F2AF90DF80DF703882AF8133A
:100520007A08BA007908B9007808B8007708B700E7
:100530009A30BE009930BD004C30BC008630BB0004
:1005400037080319652BC3003B080319652BC30249
:10055000031CAF2A7F30C3070318652BB52A8130EF
:10056000C302031C652B0319652B4308F700F80130
:10057000F901FA01C2013808C100C1173908C000E9
:100580003A08BF001930C3003E08BF020318D82A3A
:100590000130C0020318D82AC1020318D82AC202A7
:1005A0000318D82AC20AC10AC00A3E08BF070A2B8C
:1005B0003D08C0020318F32A0130C1020318F32AD0
:1005C000C2020318F32AC20AC10A3D08C0073E0846
:1005D000BF07031C0A2BC00A031D0A2BC10A031DF7
:1005E0000A2BC20A0A2B3C088038C1020318092BC7
:1005F0000130C2020318092BC20A3C088038C10727
:100600003D08C007031CE72AC10A031DE72AC20AE6
:10061000E72A7A14C30B0D2B182B0310BF0DC00D46
:10062000C10DC20D0310FA0DF90DF80DC40DC42A49
:10063000441C202B0310F80CF90CFA0CC40C232BCF
:10064000F7030319652BC41B4C2B0310BF0DC00D02
:10065000C10DC20D3E08BF020318382B0130C00285
:100660000318382BC1020318382BC202031C5B2B62
:100670003D08C0020318432B0130C1020318432B6D
:10068000C202031C5B2B3C088038C10203184C2BB0
:100690000130C202031C5B2BFA0A031D5B2BF90A13
:1006A000031D5B2BF80A031D5B2BF70A0319652B4F
:1006B000F80CF90CFA0C3808C3003C08C306C31F39
:1006C000632BF817692BF813692BF701F801F9016F
:1006D000FA017A08BA007908B9007808B8007708F2
:1006E000B7008E30F7003708F7023808F9003908EC
:1006F000F800F917F7080319882B0310F908031DF0
:10070000842BF8080319882BF90CF80CF70B7D2BB8
:10071000B81F8F2BF809F909F80A0319F90A7908A3
:100720000313B3007808B2003208F8008A150A12E1
:100730007D2A03173C0B9D2BA02B4030BD00A12B25
:10074000BD0101303B02BD073D088038BE00BF013E
:100750003E08C00003136421080003173A08073A53
:1007600003130319BD2B0B3A0319C42B063A0319C3
:10077000D02B023A0319D82BDF2B01300317BB0013
:10078000BC0003139923E62B0317BF010130C000FF
:100790000313642102300317BB000313C520E62BAB
:1007A00001300317BB000230BC0003139923E62B72
:1007B0000317BF011030C00003136421E62B013082
:1007C0000317BF003A08C0000313642108000B0898
:1007D0000317B70003138B13831603178C170C141E
:1007E000000000008312B71FF82B03138B170317A9
:1007F0000C087F390319352CB7000D08B8000F0815
:10080000B9003708BA000313AD23031738088D0069
:1008100039088F0003130B080317BA0003138B1357
:10082000831603178C170C14000000008312BA1FE4
:100830001C2C03138B1703170C0D0E0D7F39031996
:10084000352CB7000D08B8000F08B9003708BA00FA
:100850000313AD23031738088D0039088F008D0A64
:1008600003198F0A0313E72B0317031308008318D8
:100870003C2C5630840083170317510855068039E5
:10088000DB00D11F4E2CCE09CF09D009D109CE0AE9
:100890000319CF0A0319D00A0319D10AD51F5B2CFB
:1008A000D209D309D409D509D20A0319D30A0319E5
:1008B000D40A0319D50AF701F801F901FA01D601A2
:1008C000D701D801D901550854045304520403191F
:1008D000992C2030DA000310CE0DCF0DD00DD10DA4
:1008E000D60DD70DD80DD90D55085902031D822CF0
:1008F00054085802031D822C53085702031D822CF2
:1009000052085602031C932C5208D6025308031CAB
:10091000530FD7025408031C540FD8025508031C68
:10092000550FD9020314F70DF80DF90DFA0DDA0B76
:100930006B2CDB1FA62CF709F809F909FA09F70A4D
:100940000319F80A0319F90A0319FA0A560880006C
:10095000840A57088000840A58088000840A5908CD
:100960008000031308000317C101C001BF0101305B
:10097000BE00C301C401BA1FFD2C0130C3003A08F8
:10098000C9003908C8003808C7003708C600FF305A
:10099000CD00CC00CB00CA002030D200CE01CF0168
:1009A000D001D1014908FA004808F9004708F800C9
:1009B0004608F7000310771CEB2C4A08CE074B08BB
:1009C00003184B0FCF074C0803184C0FD0074D08E6
:1009D00003184D0FD107D10CD00CCF0CCE0CFA0C54
:1009E000F90CF80CF70CD20BDA2C7A08BA0079085B
:1009F000B9007808B8007708B700BE08031D092DB4
:100A0000BF08031D092DC008031D092DC1080319C6
:100A1000852D83103A08D1003908D0003808CF005E
:100A20003708CE00D501D401D3013B08D20003130F
:100A300037247A080317C1007908C0007808BF007E
:100A40007708BE0044083C07F8003D08FA00031888
:100A5000FA0A7808C6007A08C700C9010408C80065
:100A60004910831B491483144A30840083173A08C1
:100A7000D1003908D0003808CF003708CE00D501A2
:100A8000D401D3013B08D2000313372403174808CD
:100A9000840083134918831730304A07F7004B0846
:100AA000F800003003180130F8074C08F900003056
:100AB00003180130F9074D08FA000030031801301F
:100AC000FA074608840083134718831777088000C5
:100AD00044083C07840083133D1883170008393C01
:100AE00003187B2D44083C07840083133D188317AB
:100AF000073000078000C40A4108BA004008B90066
:100B00003F08B8003E08B700FD2C430B902D440869
:100B10003C07840083133D1883172D308000C40ADE
:100B2000C2010310440C42020318C62D42083C07C0
:100B3000840083133D1883170008C50042083C0752
:100B4000F8003D08FA000318FA0A7808C6007A0887
:100B5000C70042084402FF3E3C07840083133D184F
:100B600083170008C80046088400831347188317BA
:100B70004808800042084402FF3E3C07840083137B
:100B80003D18831745088000C20A912D44083C0790
:100B9000840083133D18831780013C08F8003D084A
:100BA000F9000313080080080319EF2D0317B8019B
:100BB0000408B7003810831B38140008BA00031368
:100BC000AD23031737088400831338188317840A6A
:100BD000031DED2D0313850A03170313D32D0800FE
:100BE000031737080739F700370CF800F80CF80C32
:100BF0001F30F805780838078400831339188317E5
:100C00000008F800F70A052EF80CF70B042E031362
:100C10000800031736080739F700360CF800F80CFF
:100C2000F80C1F30F805780838078400831339184A
:100C30008317F801F80AF70A1E2EF80DF70B1D2E80
:100C4000B7080319262E78088004292EF809780899
:100C5000800503130800DE103808FC3E03186B2FD4
:100C6000043E6E2FDE10DE1501300317BB0002308C
:100C7000BC00031399230A300317BB000313C520DC
:100C8000653003178D0000308F000313E723DE1D4E
:100C9000862E8316061583120619852EB90A390881
:100CA0000F3C031CB90102300317B5009630BB009E
:100CB0000313C5200317B50B562EBA01B901B801AD
:100CC000031339080317B7000A30BB00BD017530A4
:100CD000BC000313B32409300317BB000230BC006F
:100CE000031399230A300317BB000313C520753083
:100CF00084008313D32501300317BB000313C520E1
:100D000083160810013083128806472E6B2FDE10E1
:100D1000DE1501300317BB000230BC00031399231A
:100D20000A300317BB000313C520683003178D007A
:100D300000308F000313E723DE1D542F83160615A2
:100D400083120619072FBA0A3A08073C031CBA0196
:100D500002300317B5009630BB000313C5200317FC
:100D6000B50BAB2EBA01B901B80103133A0803174A
:100D7000B7000A30BB00BD01D730BC000313B32459
:100D800009300317BB000230BC00031399230A305B
:100D90000317BB000313C520D73084008313D3256A
:100DA00001300317BB000313C5203A300317BA0004
:100DB0000313AD2301300317BB000313C5203A080A
:100DC0000317B700B9015F30B8000313F0250030F6
:100DD000781801300317B500BA01B901B801350818
:100DE000B7000A30BB00BD01D730BC000313B324E9
:100DF000D73084008313D32501300317BB000313BE
:100E0000C52083160810013083128806532F8316DD
:100E1000861583128619532F3A080317B700B901B4
:100E20005F30B8000313F0250030781C0130031741
:100E3000B50003133A080317B6003508B700B90127
:100E40005F30B800031309260C300317BB000230D3
:100E5000BC000313992302300317B5009630BB0082
:100E60000313C5200317B50B2E2F03133A080317DE
:100E7000B700B9015F30B8000313F02500307818CF
:100E800001300317B500BA01B901B8013508B70040
:100E90000A30BB00BD01D730BC000313B324D730E8
:100EA00084008313D3259C2E6B2F0A300317BB00BD
:100EB0000230BC00031399230A300317BB0003134D
:100EC000C5206D3003178D0000308F000313E7231A
:100ED0006B2FDE10B9018A110A12D22F0A148A145C
:100EE0000A158207322E872E552F692F5E15013085
:100EF0000317BB00BC00031399230A300317BB0080
:100F00000313C520703003178D0000308F000313CA
:100F1000E72301300317BB000230BC000313992301
:100F20000A300317BB000313C520743003178D006C
:100F300000308F000313E7235E1DD12F83160615A3
:100F400083120619D02FB80A3808033C031CB801D5
:100F500002300317B5009630BB000313C5200317FA
:100F6000B50BAB2F0930BB000230BC000313992333
:100F70000317BA01B901B801031338080317B70002
:100F80000A30BB00BD01D730BC000313B3240A30C4
:100F90000317BB000313C520D73084008313D32568
:100FA0009C2F2B2E8A150A12852A80080319F22FEE
:100FB0000317BA010408B9003A10831B3A14000859
:100FC00003130C1EE12F99000317390884008313C3
:100FD0003A188317840A031DF02F0313850A031799
:060FE0000313D52F0800E9
:1010000003173808BC003708BB003C08FA003B084F
:10101000840083137A188317800803191328BB0AE6
:101020000319BC0A05283A08FA003908840083131A
:101030007A1883178008031936283B08BD003C083E
:10104000BE003908840083133A1883170008BF00D4
:101050003D08840083133E1883173F088000BB0AB5
:101060000319BC0AB90A0319BA0A13283B088400F9
:1010700083133C18831780013708F8003808F900FB
:10108000031308000317B701B8016030840083130D
:101090003708840738088A11031358208A158000FE
:1010A0000038031958280317B80AB70A452803134C
:1010B0000317B5013508073C031C84283508B70021
:1010C000B9015F30B8008A110313F0258A15781C26
:1010D00081280317BA01B901B8013508B7000A30F1
:1010E000BB00BD01D730BC008A110313B3248A159D
:1010F0000317B8016030B700BA01D730B900031345
:1011000000200317B50A5A28B701B801D730840068
:1011100083133708840738088A1103135D208A1562
:1011200080000038031999280317B80AB70A8628DF
:1011300003130317B8016030B700BA01D730B90004
:10114000031300208316D2016030D100CA0175302C
:10115000C90083120317B6013608073C031CCD28CB
:101160000310360DC73E84008313840A0008B800BC
:1011700084030008B70084008313381883178A118A
:101180000313D5278A1501300317BB008A110313F7
:10119000C5208A150317B60AAC280130BB00BC0075
:1011A0008A11031399238A150A300317BB008A1189
:1011B0000313C5208A15783003178D0000308F0087
:1011C0008A110313E7238A1501300317BB0002308D
:1011D000BC008A11031399238A150A300317BB0038
:1011E0008A110313C5208A156030840083138A1185
:1011F000D3258A15E5017530E400DE108A150A1240
:10120000892A0317B50135081E3C031C17298316CC
:101210000313881002308312880664300317BB0062
:101220008A110313C5208A150317B50A032903136E
:101230008A150A128A2A01300317BB00BC008A11E2
:10124000031399238A150A300317BB008A1103136D
:10125000C5208A153B30840083138A11D3258A1553
:1012600001300317BB008A110313C5208A158A15A4
:101270000A12FC2A03081F398300831603178715F7
:1012800008300313990002309A00A630980090307D
:1012900083129800FF30B100B801B901BA01D90139
:1012A000DA015E10DE105E11DE11831603170908E5
:1012B000C039890003131F129F12003003178800E2
:1012C000831287018801890183130313AB01AC01E9
:1012D000DF012030E000E10153308316A000A101BE
:1012E0004930A2004430A300A4015330A5005F3070
:1012F000A6005330A700A8014C30A9004530AA0031
:101300004E30AB004730AC004830AD005430AE003A
:10131000AF014430B0004130B1005430B200413030
:10132000B3003130B400B5014430B6004130B700ED
:101330005430B8004130B9003230BA00BB014330FC
:10134000BC004830BD004530BE004330BF004B30CC
:10135000C0005330C1005530C2004D30C300C4013D
:101360002330C500C6018312E301A030E200E5018D
:10137000A230E400E701A530E600E901A930E80069
:10138000EB01B030EA00ED01B630EC00EF01BC300B
:10139000EE00F101C530F0005330031790009101C9
:1013A00049309200443093009401433095005F30FF
:1013B00096004630970098014C30990045309A00CD
:1013C0004E309B0047309C0048309D0054309E00BA
:1013D0009F014930A0004430A1005F30A200A3016A
:1013E0004430A4004530A5005630A6004930A7007F
:1013F0004330A8004530A900AA015330AB00453066
:10140000AC004E30AD005330AE004F30AF00523024
:10141000B000B1012330B200B301013083160313D1
:10142000C8001030C7000130CA001230C9000130B6
:10143000CC001530CB000130CE001930CD0001308A
:10144000D0002030CF000130D2002430D100013054
:10145000D4002B30D3000130D6003230D500F2005A
:101460003730F300F4013230FB003730FC00FD016F
:101470003030F500F601D700D80100308800FF3089
:1014800086000910891009118911803087008312A4
:10149000B1001F179F1383169F1783121F14831603
:1014A00003170908C039890003131F129F12013066
:1014B00003178800831203138B160B160B16831663
:1014C00001138C16C03083128B04353090008E01CE
:1014D0000B308F00DC308E000C108A11DF298A154A
:1014E000B9015E10DE108316880183128801DA01CB
:1014F0000317B5018A110313452A8A15B501780827
:10150000B4005E1C872A8A11762F8A15892ADE1874
:1015100042280129B508031D912A34081A3C0318F2
:10152000EE2A0317BA01B901031335080317B800EF
:10153000031334080317B7000A30BB00BD01723033
:10154000BC008A110313B3248A15EB017230EA0040
:101550000317BA01B901031337080317B8000313BF
:1015600036080317B7000A30BB00BD017B30BC0052
:101570008A110313B3248A15ED017B30EC000317A5
:10158000B4013408073C031CE22A0310340D623E08
:1015900084008313840A0008B60084030008B500A1
:1015A00084008313361883178A110313D5278A15ED
:1015B00001300317BB008A110313C5208A150317D6
:1015C000B40AC12A0430B500FA30BB008A110313F3
:1015D000C5208A150317B50BE42A03135A0B1D2BDC
:1015E000DA0130303B02DB0030303C02403EDC00B0
:1015F00030303D02DD001B2939085B02031D1D2B25
:10160000DD08031D052B0030062B0130F7005C08B8
:101610000317B6007708B700B901B8018A110313A0
:1016200009268A155C080317B600B701B901803096
:0E163000B8008A11031309268A15782A630070
:04400E00E22FFF3F5F
:00000001FF
;PIC16F887
;CRC=6628  CREATED="15-Oct-21 22:38"
