:1000000009308A006A290000FF00030E8301A10065
:100010000A08A0008A010408A2007708A300780853
:10002000A4007908A5007A08A60003170D08031399
:10003000A70003170F080313A80003170C080313E6
:10004000A90003170E080313AA00831383120B1EC3
:100050002B288B1852288C308400801E31288C1A53
:100060005528220884002308F7002408F8002508F2
:10007000F9002608FA00270803178D000313280843
:1000800003178F000313290803178C0003132A0892
:1000900003178E00031320088A00210E8300FF0E31
:1000A0007F0E09008A110A123D2A8A110A1262285B
:1000B0000A108A100A1182074334413453344534FC
:1000C00031340034CB306B07840083138C1E6628D8
:1000D0001A088000CB306B0784008313600800028D
:1000E000031D74280130EC00CB306B0784008313B0
:1000F00000082E3C031D8528CB306B07840083133A
:100100008001EB010130EC008628EB0A8C128A1189
:100110000A123128E3376E33E933000003173F1822
:100120009528031307109728031703130714321099
:1001300032088316870083120317BF18A3280313FE
:100140008710A528031703138714B21032088316EB
:100150008700831203173F19B12803130711B3282F
:100160000317031307153211320883168700831211
:100170000317BF19BF2803138711C12803170313DF
:100180008715B21132088316870000008312091404
:10019000831609100230F700F70BCC28CF28000097
:1001A00083120910831609108312080083160910A0
:1001B0008910091183128910831689100714871476
:1001C000071587158312091583160911000083127C
:1001D000091483160910000083120317C0010313CA
:1001E000321432088316870000308312071801305A
:1001F0000317C0040313B2143208831687000030BB
:10020000831287180130F7000310F70D77080317E2
:10021000C00403133215320883168700003083129E
:1002200007190130F700F70DF70DFC30F7057708D7
:100230000317C0040313B215320883168700003079
:10024000831287190130F700F70DF70DF70DF8301D
:10025000F70577080317C0044008F8007808BF00C6
:100260000313091083160910000083120914831662
:1002700009103A293B29000083120317C001031318
:1002800032143208831687000030831207180130B9
:100290000317C0040313B21432088316870000301A
:1002A000831287180130F7000310F70D7708031742
:1002B000C0040313321532088316870000308312FE
:1002C00007190130F700F70DF70DFC30F705770837
:1002D0000317C0040313B2153208831687000030D9
:1002E000831287190130F700F70DF70DF70DF8307D
:1002F000F70577080317C0044008F8007808BE0027
:100300000313091083160910831232103208831662
:1003100087008312B21032088316870083123211CD
:100320003208831687008312B211320883168700C1
:10033000831203173F0EF700F030F70577083E04ED
:10034000F8007808BE00BE1FA82983160313DE2814
:10035000BC08031DAF2903138910B1290317031328
:10036000891483168910000083120911831609115C
:1003700000008312091083160910831203173D0E23
:10038000BE000F30BE053E08BF0003138E200317CA
:100390003D080F39BE00BF0003138E20080038301F
:1003A0008400831700080319E2290630F800F701DA
:1003B000F70BD829F80BD7297B30F700F70BDE298C
:1003C000800BD529080003173708073A03130319D0
:1003D000F3290B3A03190A2A063A0319162A023A94
:1003E00003192E2A352A01300317B800B900390B3A
:1003F000FA29FD294030BA00FE29BA01013038023D
:10040000BA073A088038BB00BC013B08BD000313A3
:10041000D6203C2A0317BC010130BD000313D620AF
:1004200002300317B8000313CF213C2A0130031711
:10043000B8000230B900390B1E2A212A4030BA0018
:10044000222ABA0101303802BA073A088038BB00C4
:10045000BC013B08BD000313D6203C2A0317BC0196
:100460001030BD000313D6203C2A01300317BC0016
:100470003708BD000313D6200800831686148312A4
:100480008618E52A01300317B800B900390B492A4C
:100490004C2A4030BA004D2ABA0101303802BA075E
:1004A0003A088038BB00BC013B08BD000313D620CE
:1004B0000A300317B8000313CF2142300317B700E7
:1004C0000313E32154300317B7000313E321313042
:1004D0000317B7000313E3210317B3013308093CE3
:1004E000031CE42A83160313861483128618DD2A5C
:1004F00004300317B400FA30B8000313CF210317F8
:10050000B40B7B2A3308093C031DDB2A013003139B
:10051000BC068A3003178D0000308F0003130B08D0
:100520000317B40003138B13831603178C170C14D3
:10053000000000008312B41FA02A03138B170317B7
:100540000C087F390319DB2AB4000D08B5000F0829
:10055000B6003408B7000313E321031735088D00F4
:1005600036088F0003130B080317B70003138B1310
:10057000831603178C170C14000000008312B71F9A
:10058000C42A03138B1703170C0D0E0D7F390319A3
:10059000DB2AB4000D08B5000F08B6003408B70018
:1005A0000313E321031735088D0036088F008D0AE9
:1005B00003198F0A8E2AE22A0313BC103C110A3059
:1005C0000317B300B30A6E2A03138B108A110A12A1
:1005D000312828308316EB000C30EC000130ED00A0
:1005E0000630EE0083120910831609108312891059
:1005F0008316891083120911831609118312321090
:100600003208831687008312B210320883168700DF
:10061000831232113208831687008312B211320816
:10062000831687000910891009118312AB018B1BF7
:10063000AB178B130F300317B8000313CF21AB1B7D
:100640008B1701308316EA006A08033C031C422B17
:100650008312AB018B1BAB178B1303300317BF0047
:1006600003138E20AB1B8B17AB018B1BAB178B13AC
:1006700005300317B8000313CF21AB1B8B1783166C
:10068000EA0A242B8312AB018B1BAB178B130230AE
:100690000317BF0003138E20AB1B8B17AB018B1B03
:1006A000AB178B1305300317B8000313CF21AB1B17
:1006B0008B178316EA016A08033C031C792BEB3085
:1006C0006A07840083130008EF008312AB018B1BC1
:1006D000AB178B130317BC01831603136F08831228
:1006E0000317BD000313D620AB1B8B178316EA0A32
:1006F0005B2B83128A150A12582A83166A0DF7009B
:10070000F70DFC30F70583121F08C33977049F00EB
:10071000B401B3018316EB016B08633C031CAA2BE5
:1007200083129F149F18922B83161E088312B307FF
:100730001E0803181E0FB407AB018B1BAB178B13DE
:1007400001300317B8000313CF21AB1B8B1783169F
:10075000EB0A8C2B831234088316ED0083123308C6
:100760008316EC008E30F7006D08F8006C08F90075
:10077000FA01F808031DC62B7908F800F9010830C2
:10078000F702F808031DC62BF701CE2B0310F81B48
:10079000CD2BF90DF80DF703C62BF8137A08EF00EF
:1007A0007908EE007808ED007708EC009A308312A3
:1007B00003179300993092004C30910086309000DE
:1007C000831603136C080319CC2C831203179800AB
:1007D0001008031DEE2B83160313CC2C9802031C68
:1007E000F92B7F309807031CF82B83160313CC2CAE
:1007F000052C813098020318002C83160313CC2C8F
:10080000031D052C83160313CC2C1808F700F801E0
:10081000F901FA019701831603136D088312031778
:1008200096009617831603136E088312031795001C
:10083000831603136F08831203179400193098006E
:10084000130894020318342C013095020318342C39
:1008500096020318342C97020318342C970A960A30
:10086000950A13089407662C1208950203184F2C5A
:100870000130960203184F2C970203184F2C970A49
:10088000960A1208950713089407031C662C950A0C
:10089000031D662C960A031D662C970A662C110808
:1008A000803896020318652C013097020318652CD6
:1008B000970A11088038960712089507031C432CE5
:1008C000960A031D432C970A432C7A14980B692C23
:1008D000742C0310940D950D960D970D0310FA0DC1
:1008E000F90DF80D990D202C191C7C2C0310F80C17
:1008F000F90CFA0C990C812CF70B812C831603133D
:10090000CC2C991BAA2C0310940D950D960D970DC8
:10091000130894020318962C013095020318962CA4
:1009200096020318962C9702031CBC2C1208950201
:100930000318A12C013096020318A12C9702031C66
:10094000BC2C1108803896020318AA2C013097029B
:10095000031CBC2CFA0A031DBC2CF90A031DBC2C79
:10096000F80A031DBC2CF70A031DB92C83160313C8
:10097000CC2CF80CF90CFA0C831603136D088312B7
:100980000317980011089806981FC82CF817D22C46
:10099000F813D22C83160313F701F801F901FA01B9
:1009A000831203177A0883160313EF007908EE0009
:1009B0007808ED007708EC008E30F7006C08F7023D
:1009C0006D08F9006E08F800F917F7080319F32C01
:1009D0000310F908031DEF2CF8080319F32CF90C88
:1009E000F80CF70BE82CED1FFA2CF809F909F80AB6
:1009F0000319F90A79088312B4007808B3003308A0
:100A0000F8008A150A12602A0317950194019301D0
:100A1000013092009601970183160313ED1F642D98
:100A20000130831203179600831603136D08831297
:100A300003179D00831603136C08831203179C0091
:100A4000831603136B08831203179B00831603138B
:100A50006A08831203179A00FF30A100A0009F00CC
:100A60009E002030A600A201A301A401A5011D083B
:100A7000FA001C08F9001B08F8001A08F700031018
:100A8000771C502D1E08A2071F0803181F0FA3076D
:100A900020080318200FA40721080318210FA50719
:100AA000A50CA40CA30CA20CFA0CF90CF80CF70C76
:100AB000A60B3F2D7A0883160313ED007908EC008E
:100AC0007808EB007708EA00831203179208031DE9
:100AD000722D9308031D722D9408031D722D950825
:100AE0000319122F8310831603136D088312031743
:100AF000A500831603136C0883120317A400831642
:100B000003136B0883120317A300831603136A08E9
:100B100083120317A200A901A801A70183160313DA
:100B20006E0883120317A6008318992D2A308400BB
:100B30008317250829068039AF00A51FAA2DA20911
:100B4000A309A409A509A20A0319A30A0319A40A5F
:100B50000319A50AA91FB72DA609A709A809A9095C
:100B6000A60A0319A70A0319A80A0319A90AF70173
:100B7000F801F901FA01AA01AB01AC01AD012908A4
:100B80002804270426040319F52D2030AE00031095
:100B9000A20DA30DA40DA50DAA0DAB0DAC0DAD0DB1
:100BA00029082D02031DDE2D28082C02031DDE2D31
:100BB00027082B02031DDE2D26082A02031CEF2D19
:100BC0002608AA022708031C270FAB022808031CCB
:100BD000280FAC022908031C290FAD020314F70DDE
:100BE000F80DF90DFA0DAE0BC72DAF1F022EF70948
:100BF000F809F909FA09F70A0319F80A0319F90AB1
:100C00000319FA0A2A088000840A2B088000840A43
:100C10002C088000840A2D0880007A089500790845
:100C20009400780893007708920017081007F800DE
:100C30001108FA000318FA0A780899007A089A004D
:100C40009C0104089B001C10831B1C1483141D3082
:100C500084008317831603136D0883120317A500FE
:100C6000831603136C0883120317A400831603135F
:100C70006B0883120317A300831603136A088312F9
:100C80000317A200A901A801A701831603136E0888
:100C900083120317A6008318502E2A30840083176E
:100CA000250829068039AF00A51F612EA209A309D6
:100CB000A409A509A20A0319A30A0319A40A03197E
:100CC000A50AA91F6E2EA609A709A809A909A60A9F
:100CD0000319A70A0319A80A0319A90AF701F801B9
:100CE000F901FA01AA01AB01AC01AD012908280400
:100CF000270426040319AC2E2030AE000310A20DE9
:100D0000A30DA40DA50DAA0DAB0DAC0DAD0D2908BD
:100D10002D02031D952E28082C02031D952E270851
:100D20002B02031D952E26082A02031CA62E260838
:100D3000AA022708031C270FAB022808031C280F50
:100D4000AC022908031C290FAD020314F70DF80D9E
:100D5000F90DFA0DAE0B7E2EAF1FB92EF709F8096B
:100D6000F909FA09F70A0319F80A0319F90A031924
:100D7000FA0A2A088000840A2B088000840A2C08BA
:100D80008000840A2D0880001B08840083131C182F
:100D9000831730301D07F7001E08F80000300318D5
:100DA0000130F8071F08F900003003180130F90777
:100DB0002008FA00003003180130FA0719088400EF
:100DC00083131A1883177708800017081007840008
:100DD0008313111883170008393C0318F82E1708DD
:100DE0001007840083131118831707300007800051
:100DF000970A150883160313ED00831203171408CE
:100E000083160313EC0083120317130883160313CE
:100E1000EB0083120317120883160313EA00642DF4
:100E200083120317160B1D2F170810078400831356
:100E3000111883172D308000970A83160313EF01D2
:100E4000031083120317170C831603136F02031882
:100E5000692F6F088312031710078400831311187A
:100E6000831700089800831603136F088312031773
:100E70001007F8001108FA000318FA0A7808990018
:100E80007A089A00831603136F0883120317170258
:100E9000FF3E1007840083131118831700089B007E
:100EA0001908840083131A1883171B0880008316FF
:100EB00003136F08831203171702FF3E1007840005
:100EC0008313111883171808800083160313EF0A81
:100ED000202F83120317170810078400831311189B
:100EE000831780011008F8001108F90003130800A7
:100EF0008316EA016A081E3C031C902F88100230FA
:100F000083128806AB018B1BAB178B13643003175E
:100F1000B8000313CF21AB1B8B178316EA0A7A2F75
:100F200083128A150A12E62A80080319B12F831644
:100F3000ED010408EC006D10831B6D140008831292
:100F40000C1EA02F990083166C08840083136D1863
:100F50008317840A031DAF2F8312850A8316831219
:080F6000942F8A150A12382BA8
:101000003908FC3E03180129043E04293C153C1D07
:10101000952883168615831286199428BB0A3B08E7
:101020000F3C031CBB01AB018B1BAB178B13C830F0
:101030000317B8008A110313CF218A15AB1B8B1736
:101040008316ED01EC01EB0183123B088316EA00E5
:101050000A30EE00831203179101603090008A116C
:10106000031304258A1501300317B8000230B900B4
:10107000390B3B283E284030BA003F28BA010130E6
:101080003802BA073A088038BB00BC013B08BD00F3
:101090008A110313D6208A15AB018B1BAB178B1358
:1010A0000A300317B8008A110313CF218A15AB1B2E
:1010B0008B176030840083138008031982288316FD
:1010C000EB010408EA006B10831B6B148312AB0165
:1010D0008B1BAB178B1300080317B7008A11031380
:1010E000E3218A15AB1B8B1783166A0884008313D0
:1010F0006B188317840A031D80288312850A8316C0
:1011000083125C28AB018B1BAB178B1301300317C9
:10111000B8008A110313CF218A15AB1B8B178316D6
:1011200008100130831288060728CD016030CC00FA
:1011300001298316EA01EB014230840083136A0817
:1011400084076B088A11831258208A1580000038A2
:101150000319AF288316EB0AEA0A9C2883120A3087
:101160000317B8000230B900390BB728BA2840304D
:10117000BA00BB28BA0101303802BA073A088038F1
:10118000BB00BC013B08BD008A110313D6208A15A1
:10119000AB018B1BAB178B130A300317B8008A11F6
:1011A0000313CF218A15AB1B8B17423084008313A6
:1011B00080080319FE288316EB010408EA006B106F
:1011C000831B6B148312AB018B1BAB178B130008B3
:1011D0000317B7008A110313E3218A15AB1B8B1782
:1011E00083166A08840083136B188317840A031D0F
:1011F000FC288312850A83168312D8280129012925
:10120000BB018A150A12E42A0A148A100A118207FD
:1012100006289928FF28002901300317B800B900D3
:10122000390B132916294030BA001729BA010130A9
:101230003802BA073A088038BB00BC013B08BD0041
:101240008A110313D6208A15AB018B1BAB178B13A6
:101250000A300317B8008A110313CF218A15AB1B7C
:101260008B17CB3084008313800803195A29831607
:10127000EB010408EA006B10831B6B148312AB01B3
:101280008B1BAB178B1300080317B7008A110313CE
:10129000E3218A15AB1B8B1783166A08840083131E
:1012A0006B188317840A031D58298312850A831635
:1012B00083123429AB018B1BAB178B13013003173F
:1012C000B8008A110313CF218A15AB1B8B178A151F
:1012D0000A12612B03081F39830083160317871531
:1012E00008300313990002309A00A630980090301D
:1012F00083129800FF30B200B901BA01BB013C1063
:10130000BC103C110230BF00EB01EC018316031747
:101310000908C039890003131F129F1200300317F8
:101320008800831287018801890183130313AC01AC
:10133000AD01BD01BE014830C4004530C5004C3090
:10134000C600C7004F30C800C901C3014430C20005
:1013500053308316A000A1014930A2004430A300FD
:10136000A4014330A5004F30A6004D30A700A800CF
:101370004130A9004E30AA004430AB00AC014C30E3
:10138000AD004530AE004E30AF004730B0004830C1
:10139000B1005430B200B3014430B4004130B50064
:1013A0005430B6004130B7003130B800B901443094
:1013B000BA004130BB005430BC004130BD00323077
:1013C000BE00BF014330C0004830C1004530C200FC
:1013D0004330C3004B30C4005330C5005530C60005
:1013E0004D30C700C8012330C900CA018312CB01A8
:1013F000A030CA00CD01A230CC00CF01A530CE0074
:10140000D101AD30D000D301B430D200D501BA3013
:10141000D400D701C030D600D901C930D80032304D
:10142000DA003730DB00DC013230DD003730DE003F
:10143000DF013030E000E1015230E2004530E300EE
:101440004330E4004530E5004930E6005630E7001F
:101450004530E8004430E900EA01F03083168800A6
:10146000FF3086000910891009118911803087002A
:101470008312B2001F179F1383169F1783121F1426
:10148000831603170908C039890003131F129F121E
:1014900001300317880003138C16C03083128B04AD
:1014A0008B160B160B16831601138A118312E92A69
:1014B0008A15BB013C108316EA018A1183127D2B29
:1014C0008A15B6017808B5003C1CE42ABC14BC1C83
:1014D000E32A8316061583120619E22AB90A390887
:1014E000033C031CB901AB018B1BAB178B13C8303A
:1014F0000317B8008A110313CF218A15AB1B8B1772
:101500008316ED01EC01EB01831239088316EA0022
:101510000A30EE00831203179101603090008A11A7
:10152000031304258A1501300317B8000230B900EF
:10153000390B9B2A9E2A4030BA009F2ABA010130FB
:101540003802BA073A088038BB00BC013B08BD002E
:101550008A110313D6208A15AB018B1BAB178B1393
:101560000A300317B8008A110313CF218A15AB1B69
:101570008B1760308400831380080319E22A8316D6
:10158000EB010408EA006B10831B6B148312AB01A0
:101590008B1BAB178B1300080317B7008A110313BB
:1015A000E3218A15AB1B8B1783166A08840083130B
:1015B0006B188317840A031DE02A8312850A831699
:1015C0008312BC2A672A00288A11782F8A15B60848
:1015D000031DEE2A35081A3C03185D2B8316ED0116
:1015E000EC01831236088316EB008312350883164C
:1015F000EA000A30EE008312031791015A3090007E
:101600008A11031304258A15D3015A30D200831698
:10161000ED01EC01831238088316EB0083123708C2
:101620008316EA000A30EE008312031791015D3041
:1016300090008A11031304258A15D5015D30D4006A
:101640008316E9016908073C031C492B0310690D47
:101650004A3E84008313840A0008EB0084030008D8
:10166000EA00840083136B1883178A118312942F66
:101670008A15AB018B1BAB178B1301300317B80016
:101680008A110313CF218A15AB1B8B178316E90A26
:10169000222B0430EA008312AB018B1BAB178B1398
:1016A000FA300317B8008A110313CF218A15AB1B38
:1016B0008B178316EA0B4B2B83126C0B752BEC01EB
:1016C0000C298316081001308312880683168810AF
:1016D00002308312880683160811043083128806AC
:0E16E000831688110830831288065B2A630087
:04400E00E22FFF3F5F
:00000001FF
;PIC16F887
;CRC=40EF  CREATED="14-Oct-21 02:27"
