:1000000003308A00722B0000FF00030E8301A10061
:100010000A08A0008A010408A2007708A300780853
:10002000A4007908A5007A08A600831383128C30F7
:100030008400801E1D288C1A2E2822088400230884
:10004000F7002408F8002508F9002608FA0020081F
:100050008A00210E8300FF0E7F0E09008A110A120A
:1000600031280330AF008C128A110A121D286C301F
:1000700084008313000803194A280630F800F701AA
:10008000F70B4028F80B3F287B30F700F70B46288A
:10009000800B3D280800AE01AD01EB016B08633C0D
:1000A000031C62289F149F18532883161E0883126E
:1000B000AD071E0803181E0FAE070130EC003720F5
:1000C000EB0A4E282E08ED002D08EC008E30F700CC
:1000D0006D08F8006C08F900FA01F808031D7A2889
:1000E0007908F800F9010830F702F808031D7A28AA
:1000F000F70182280310F81B8128F90DF80DF7038A
:100100007A28F8137A08EF007908EE007808ED00F5
:100110007708EC009A30F3009930F2004C30F1008F
:100120008630F0006C0803196C298316A40070084F
:10013000031D9C2883126C29A402031CA6287F306F
:10014000A407031CA52883126C29B0288130A402BF
:100150000318AC2883126C29031DB02883126C2964
:100160002408F700F801F901FA01A30183126D08D0
:100170008316A200A21783126E088316A1008312B1
:100180006F088316A0001930A4007308A00203189A
:10019000D9280130A1020318D928A2020318D928AE
:1001A000A3020318D928A30AA20AA10A7308A00768
:1001B0000B297208A1020318F4280130A2020318C7
:1001C000F428A3020318F428A30AA20A7208A107BC
:1001D0007308A007031C0B29A10A031D0B29A20AFF
:1001E000031D0B29A30A0B2971088038A2020318EA
:1001F0000A290130A30203180A29A30A71088038CA
:10020000A2077208A107031CE828A20A031DE82818
:10021000A30AE8287A14A40B0E2919290310A00DAB
:10022000A10DA20DA30D0310FA0DF90DF80DA50DEA
:10023000C528251C21290310F80CF90CFA0CA50C73
:100240002529F70B252983126C29A51B4E2903109C
:10025000A00DA10DA20DA30D7308A00203183A2949
:100260000130A10203183A29A20203183A29A30275
:10027000031C5F297208A102031845290130A2025C
:1002800003184529A302031C5F2971088038A202C4
:1002900003184E290130A302031C5F29FA0A031D2B
:1002A0005F29F90A031D5F29F80A031D5F29F70A70
:1002B000031D5C2983126C29F80CF90CFA0C8312CB
:1002C0006D088316A4007108A406A41F6929F817F5
:1002D0007129F81371298312F701F801F901FA0164
:1002E00083167A088312EF007908EE007808ED0093
:1002F0007708EC008E30F7006C08F7026D08F90003
:100300006E08F800F917F708031991290310F90886
:10031000031D8D29F80803199129F90CF80CF70B26
:100320008629ED1F9829F809F909F80A0319F90A2D
:100330007908AE007808AD008A110A122E2C8318B5
:10034000A429B0308400831383162B082F0680392C
:10035000B500AB1FB629A809A909AA09AB09A80AC3
:100360000319A90A0319AA0A0319AB0AAF1FC32963
:10037000AC09AD09AE09AF09AC0A0319AD0A0319FE
:10038000AE0A0319AF0AF701F801F901FA01B00149
:10039000B101B201B3012F082E042D042C0403195E
:1003A000012A2030B4000310A80DA90DAA0DAB0D31
:1003B000B00DB10DB20DB30D2F083302031DEA29A4
:1003C0002E083202031DEA292D083102031DEA29F5
:1003D0002C083002031CFB292C08B0022D08031C3A
:1003E0002D0FB1022E08031C2E0FB2022F08031C82
:1003F0002F0FB3020314F70DF80DF90DFA0DB40B1E
:10040000D329B51F0E2AF709F809F909FA09F70ADD
:100410000319F80A0319F90A0319FA0A30088000C7
:10042000840A31088000840A32088000840A330874
:10043000800083120800F501F401F3010130F2009D
:10044000FB01FC01EE1F6C2A0130FB006E088316D5
:10045000A30083126D088316A20083126C08831612
:10046000A10083126B088316A000FF30A700A6002E
:10047000A500A4002030AC00A801A901AA01AB018D
:100480002308FA002208F9002108F8002008F700E4
:100490000310771C592A2408A80725080318250FDC
:1004A000A90726080318260FAA0727080318270FED
:1004B000AB07AB0CAA0CA90CA80CFA0CF90CF80CA5
:1004C000F70CAC0B482A7A088312EE007908ED008D
:1004D0007808EC007708EB00F208031D782AF3088F
:1004E000031D782AF408031D782AF5080319082B40
:1004F00083106E088316AB0083126D088316AA0062
:1005000083126C088316A90083126B088316A80057
:10051000AF01AE01AD0183126F088316AC008312E8
:100520009F217A08F5007908F4007808F30077082D
:10053000F2007C087007F8007108FA000318FA0A44
:1005400078088316A0007A08A100A3010408A2007D
:100550002310831B23148314A43084008313831279
:100560006E088316AB0083126D088316AA008312EF
:100570006C088316A90083126B088316A800AF01CC
:10058000AE01AD0183126F088316AC0083129F2168
:10059000831622088400831323188317303024071E
:1005A000F7002508F800003003180130F807260886
:1005B000F900003003180130F9072708FA0000306D
:1005C00003180130FA0720088400831321188317C9
:1005D000770880007C0870078400831371188317E4
:1005E0000008393C0318FD2A7C0870078400831337
:1005F00071188317073000078000FC0A7508831202
:10060000EE007408ED007308EC007208EB006C2A31
:100610007B0B132B7C0870078400831371188317DE
:100620002D308000FC0AF60103107C0C76020318C2
:100630004B2B76087007840083137118831700080A
:10064000FD0076087007F8007108FA000318FA0A2E
:1006500078088316A0007A08A10076087C02FF3E85
:10066000700784008313711883170008A200200804
:1006700084008313211883172208800076087C02E7
:10068000FF3E700784008313711883177D08800074
:10069000F60A8312142B7C087007840083137118E8
:1006A000831780017008F8007108F9008A110A1296
:1006B000412C800803196F2BEE010408ED006E1029
:1006C000831B6E1400080C1E632B99006D088400B8
:1006D00083136E188317840A0319850A592B8A110C
:1006E0000A12592C03081F39830083160317871534
:1006F00008300313990002309A00A6309800903019
:10070000831298000430AF00831603170908C0391C
:10071000890003131F129F120030031788008312F1
:1007200087018801890183130313A701A8015330AE
:10073000BE00BF014930C0004430C100C201433097
:10074000C3004F30C4004D30C500C6004130C70063
:100750004E30C8004430C900CA014C30CB0045308F
:10076000CC004E30CD004730CE004830CF00543062
:10077000D000D1014430D2004130D3005430D400F5
:100780004130D500D6014330D7004830D80045303D
:10079000D9004330DA004B30DB005330DC005530F9
:1007A000DD004D30DE00DF015330E0005430E10069
:1007B0004F30E2005030E3002030E4002A30E50002
:1007C000E601B1013E30B000B3014030B200B501E6
:1007D0004330B400B7014B30B600B9015230B80015
:1007E000BB015730BA00BD016030BC003230E700B9
:1007F0003730E800E901003083168800F0308600C9
:1008000083121F179F1383169F1783121F148316BB
:1008100003170908C039890003131F129F12013002
:10082000031788000030F800831203131F08C33930
:1008300078049F008316081083120810831688011D
:100840008312880183168C16C03083128B048B169A
:10085000831688010F30831288004B28AE08031DD1
:10086000352C2D081A3C0318442CEE01ED012E08FE
:10087000EC002D08EB000A30EF00F1016730F000CA
:100880001B2AB9016730B800EA016A08063C031C5C
:100890005E2C03106A0D303E84008313840A000826
:1008A000EC0084030008EB00840083136C188317AA
:1008B000592BC830EC003720EA0A452C282C63005D
:04400E00E22FFF3F5F
:00000001FF
;PIC16F887
;CRC=BE61  CREATED="03-Oct-21 21:46"
