:1000000009308A003C290000FF00030E8301A10093
:100010000A08A0008A010408A2007708A300780853
:10002000A4007908A5007A08A60003170D08031399
:10003000A70003170F080313A80003170C080313E6
:10004000A90003170E080313AA00831383120B1EC3
:100050002B288B1852288C308400801E31288C1A53
:100060005528220884002308F7002408F8002508F2
:10007000F9002608FA00270803178D000313280843
:1000800003178F000313290803178C0003132A0892
:1000900003178E00031320088A00210E8300FF0E31
:1000A0007F0E09008A110A127E288A110A12AC28D2
:1000B0000A108A100A11820700340A108A100A11E5
:1000C000820720342A342034003449223A100000B8
:1000D000C422D624C3223A100001C320D322310007
:1000E000C3274E23C9230001C320D3223A100000A6
:1000F000C3274E23C92320224F2745000317DC01C5
:100100008316031386148312861899280C1C9628CC
:10011000831608110430831288060C108E010B30F0
:100120008F00DC308E000317DC0A031303178028CE
:10013000031303175C08283C0318A4280130031399
:10014000DF06DF14A82803170313DF105F11DF1188
:100150008B108A110A1231283B305907840083130F
:100160008C1EB0281A0880003B3059078400831386
:1001700000082E3C031DC5283B305907840083131B
:100180008001D9010130DA00C628D90A8C128A11FF
:100190000A1231283B308400831700080319DD2838
:1001A0000630F800F701F70BD328F80BD2287B3084
:1001B000F700F70BD928800BD02808000317421846
:1001C000E52803130710E72803170313071431105A
:1001D00031088316870083120317C218F32803130C
:1001E0008710F528031703138714B11031088316FD
:1001F00087008312031742190129031307110329EA
:100200000317031307153111310883168700831272
:100210000317C2190F290313871111290317031399
:100220008715B11131088316870000008312091465
:10023000831609100230F700F70B1C291F29000054
:100240008312091083160910831208000317C301D3
:100250000313311431088316870000308312071806
:1002600001300317C3040313B11431088316870048
:100270000030831287180130F7000310F70D77085C
:100280000317C304031331153108831687000030A8
:10029000831207190130F700F70DF70DFC30F70551
:1002A00077080317C3040313B115310883168700B9
:1002B0000030831287190130F700F70DF70DF70DA5
:1002C000F830F70577080317C3044308F800031351
:1002D00008008316091089100911831289108316EA
:1002E00089100714871407158715831209158316BB
:1002F00009110000831209148316091000008312EB
:10030000262178080317C200031309108316091069
:10031000000083120914831609108E298F2900000A
:100320008312262178080317C100031309108316CE
:100330000910831231103108831687008312B1101F
:100340003108831687008312311131088316870024
:100350008312B11131088316870083120317420EEE
:10036000F700F030F70577084104F8007808C1007D
:10037000C11FBD29831603137129BF08031DC4299A
:1003800003138910C62903170313891483168910D0
:10039000000083120911831609110000831209104D
:1003A0008316091083120317400EC1000F30C105D8
:1003B0004108C2000313DE20031740080F39C100B3
:1003C000C2000313DE20080028300317B6000C30EB
:1003D000B7000130B8000630B900031309108316C6
:1003E000091083128910831689108312091183164C
:1003F0000911831231103108831687008312B1105E
:100400003108831687008312311131088316870063
:100410008312B11131088316870009108910091160
:100420000F3083120317BB000313CA2001300317D8
:10043000B5003508033C031C292A0330C20003130E
:10044000DE2005300317BB000313CA200317B50ACB
:10045000192A0230C2000313DE2005300317BB0047
:100460000313CA200317B5013508033C031C462AB1
:1004700036303507840083170008BA00BF013A08F8
:10048000C000031369210317B50A342A03138A1520
:100490000A12712A0317350DF700F70DFC30F70526
:1004A00003131F08C33977049F00B301B201031778
:1004B000B6013608633C031C712A03139F149F186E
:1004C0005F2A83161E088312B2071E0803181E0F28
:1004D000B30701300317BB000313CA200317B60A82
:1004E000592A031333080317B800031332080317FC
:1004F000B7008E30F7003808F8003708F900FA0125
:10050000F808031D8D2A7908F800F9010830F70270
:10051000F808031D8D2AF701952A0310F81B942A69
:10052000F90DF80DF7038D2AF8137A08BA00790847
:10053000B9007808B8007708B7009A30BE00993043
:10054000BD004C30BC008630BB00370803196A2B55
:10055000C3003B0803196A2BC302031CB42A7F3073
:10056000C30703186A2BBA2A8130C302031C6A2B03
:1005700003196A2B4308F700F801F901FA01C201D7
:100580003808C100C1173908C0003A08BF00193047
:10059000C3003E08BF020318DD2A0130C002031861
:1005A000DD2AC1020318DD2AC2020318DD2AC20AAD
:1005B000C10AC00A3E08BF070F2B3D08C00203183E
:1005C000F82A0130C1020318F82AC2020318F82AD7
:1005D000C20AC10A3D08C0073E08BF07031C0F2B13
:1005E000C00A031D0F2BC10A031D0F2BC20A0F2BBC
:1005F0003C088038C10203180E2B0130C2020318D8
:100600000E2BC20A3C088038C1073D08C007031CF6
:10061000EC2AC10A031DEC2AC20AEC2A7A14C30B85
:10062000122B1D2B0310BF0DC00DC10DC20D0310E9
:10063000FA0DF90DF80DC40DC92A441C252B031021
:10064000F80CF90CFA0CC40C282BF70303196A2BCD
:10065000C41B512B0310BF0DC00DC10DC20D3E08B0
:10066000BF0203183D2B0130C00203183D2BC1020D
:1006700003183D2BC202031C602B3D08C002031867
:10068000482B0130C1020318482BC202031C602B07
:100690003C088038C1020318512B0130C202031CF0
:1006A000602BFA0A031D602BF90A031D602BF80A60
:1006B000031D602BF70A03196A2BF80CF90CFA0CCE
:1006C0003808C3003C08C306C31F682BF8176E2BFD
:1006D000F8136E2BF701F801F901FA017A08BA0054
:1006E0007908B9007808B8007708B7008E30F700AD
:1006F0003708F7023808F9003908F800F917F70841
:1007000003198D2B0310F908031D892BF808031911
:100710008D2BF90CF80CF70B822BB81F942BF809D2
:10072000F909F80A0319F90A79080313B3007808DC
:10073000B2003208F8008A150A127F2A03173C0B10
:10074000A22BA52B4030BD00A62BBD0101303B02E2
:10075000BD073D088038BE00BF013E08C00003133E
:100760006921080003173A08073A03130319C22B3B
:100770000B3A0319C92B063A0319D52B023A031970
:10078000DD2BE42B01300317BB00BC0003139E23B9
:10079000EB2B0317BF010130C000031369210230A6
:1007A0000317BB000313CA20EB2B01300317BB0058
:1007B0000230BC0003139E23EB2B0317BF01103044
:1007C000C00003136921EB2B01300317BF003A0867
:1007D000C0000313692108000B080317B7000313B7
:1007E0008B13831603178C170C1400000000831260
:1007F000B71FFD2B03138B1703170C087F39031941
:100800003A2CB7000D08B8000F08B9003708BA0035
:100810000313B223031738088D0039088F00031320
:100820000B080317BA0003138B13831603178C17D7
:100830000C14000000008312BA1F212C03138B1725
:1008400003170C0D0E0D7F3903193A2CB7000D0854
:10085000B8000F08B9003708BA000313B223031712
:1008600038088D0039088F008D0A03198F0A031389
:10087000EC2B0317031308008318412C5630840017
:1008800083170317510855068039DB00D11F532CFD
:10089000CE09CF09D009D109CE0A0319CF0A03190D
:1008A000D00A0319D10AD51F602CD209D309D40963
:1008B000D509D20A0319D30A0319D40A0319D50A90
:1008C000F701F801F901FA01D601D701D801D901E0
:1008D000550854045304520403199E2C2030DA00A6
:1008E0000310CE0DCF0DD00DD10DD60DD70DD80DD7
:1008F000D90D55085902031D872C54085802031DB1
:10090000872C53085702031D872C52085602031CDC
:10091000982C5208D6025308031C530FD7025408D0
:10092000031C540FD8025508031C550FD902031499
:10093000F70DF80DF90DFA0DDA0B702CDB1FAB2C4F
:10094000F709F809F909FA09F70A0319F80A031966
:10095000F90A0319FA0A56088000840A5708800029
:10096000840A58088000840A59088000031308008C
:100970000317C101C001BF010130BE00C301C401A2
:10098000BA1F022D0130C3003A08C9003908C80057
:100990003808C7003708C600FF30CD00CC00CB00B8
:1009A000CA002030D200CE01CF01D001D1014908C8
:1009B000FA004808F9004708F8004608F700031055
:1009C000771CF02C4A08CE074B0803184B0FCF07B3
:1009D0004C0803184C0FD0074D0803184D0FD107D2
:1009E000D10CD00CCF0CCE0CFA0CF90CF80CF70C87
:1009F000D20BDF2C7A08BA007908B9007808B80061
:100A00007708B700BE08031D0E2DBF08031D0E2D6D
:100A1000C008031D0E2DC10803198A2D83103A0842
:100A2000D1003908D0003808CF003708CE00D501F2
:100A3000D401D3013B08D20003133C247A080317E6
:100A4000C1007908C0007808BF007708BE004408DC
:100A50003C07F8003D08FA000318FA0A7808C600B7
:100A60007A08C700C9010408C8004910831B49144B
:100A700083144A30840083173A08D1003908D00023
:100A80003808CF003708CE00D501D401D3013B0888
:100A9000D20003133C240317480884008313491829
:100AA000831730304A07F7004B08F800003003186E
:100AB0000130F8074C08F900003003180130F9073D
:100AC0004D08FA00003003180130FA074608840088
:100AD0008313471883177708800044083C07840075
:100AE00083133D1883170008393C0318802D4408F0
:100AF0003C07840083133D188317073000078000EC
:100B0000C40A4108BA004008B9003F08B8003E08CE
:100B1000B700022D430B952D44083C078400831336
:100B20003D1883172D308000C40AC2010310440C05
:100B300042020318CB2D42083C07840083133D1862
:100B400083170008C50042083C07F8003D08FA007A
:100B50000318FA0A7808C6007A08C7004208440257
:100B6000FF3E3C07840083133D1883170008C8002C
:100B700046088400831347188317480880004208FA
:100B80004402FF3E3C07840083133D188317450849
:100B90008000C20A962D44083C07840083133D1848
:100BA000831780013C08F8003D08F9000313080092
:100BB00080080319F42D0317B8010408B700381092
:100BC000831B38140008BA000313B2230317370835
:100BD0008400831338188317840A031DF22D03132E
:100BE000850A03170313D82D0800031737080739A0
:100BF000F700370CF800F80CF80C1F30F8057808EF
:100C0000380784008313391883170008F800F70A9F
:100C10000A2EF80CF70B092E0313080003173608E9
:100C20000739F700360CF800F80CF80C1F30F805FF
:100C3000780838078400831339188317F801F80AF5
:100C4000F70A232EF80DF70B222EB70803192B2EC7
:100C5000780880042E2EF809780880050313080010
:100C6000DF103808FC3E0318702F043E732FDF108E
:100C7000DF1501300317BB000230BC0003139E23B5
:100C80000A300317BB000313CA20653003178D0019
:100C900000308F000313EC23DF1D8B2E8316061507
:100CA000831206198A2EB90A39080F3C031CB901B0
:100CB00002300317B5009630BB000313CA20031798
:100CC000B50B5B2EBA01B901B8010313390803173C
:100CD000B7000A30BB00BD01D730BC000313B824F5
:100CE00009300317BB000230BC0003139E230A30F7
:100CF0000317BB000313CA20D73084008313D82501
:100D000001300317BB000313CA20831608100130FB
:100D1000831288064C2E702FDF10DF150130031769
:100D2000BB000230BC0003139E230A300317BB0034
:100D30000313CA20683003178D0000308F0003139F
:100D4000EC23DF1D592F83160615831206190C2F6D
:100D5000BA0A3A08073C031CBA0102300317B5006F
:100D60009630BB000313CA200317B50BB02EBA018F
:100D7000B901B80103133A080317B7000A30BB00E2
:100D8000BD01D930BC000313B82409300317BB00E0
:100D90000230BC0003139E230A300317BB00031369
:100DA000CA20D93084008313D82501300317BB0033
:100DB0000313CA203A300317BA000313B2230130D9
:100DC0000317BB000313CA203A080317B700B90181
:100DD0006030B8000313F525003078180130031790
:100DE000B500BA01B901B8013508B7000A30BB0037
:100DF000BD01D930BC000313B824D930840083135B
:100E0000D82501300317BB000313CA20831608102E
:100E1000013083128806582F83168615831286198F
:100E2000582F3A080317B700B9016030B800031310
:100E3000F5250030781C01300317B50003133A087C
:100E40000317B6003508B700B9016030B8000313C6
:100E50000E260C300317BB000230BC0003139E2388
:100E600002300317B5009630BB000313CA200317E6
:100E7000B50B332F03133A080317B700B9016030DD
:100E8000B8000313F5250030781801300317B500BA
:100E9000BA01B901B8013508B7000A30BB00BD017D
:100EA000D930BC000313B824D93084008313D8256B
:100EB000A12E702F0A300317BB000230BC000313B1
:100EC0009E230A300317BB000313CA206D3003179B
:100ED0008D0000308F000313EC23702FDF10B90159
:100EE0008A110A12D72F0A148A140A158207372E7C
:100EF0008C2E5A2F6E2F5F1501300317BB00BC00DC
:100F000003139E230A300317BB000313CA2070305B
:100F100003178D0000308F000313EC2301300317FB
:100F2000BB000230BC0003139E230A300317BB0032
:100F30000313CA20743003178D0000308F00031391
:100F4000EC235F1DD62F8316061583120619D52FA5
:100F5000B80A3808033C031CB80102300317B50077
:100F60009630BB000313CA200317B50BB02F09300E
:100F7000BB000230BC0003139E230317BA01B90162
:100F8000B801031338080317B7000A30BB00BD01CE
:100F9000D930BC000313B8240A300317BB00031375
:100FA000CA20D93084008313D825A12F302E8A156A
:100FB0000A12872A80080319F72F0317BA010408B9
:100FC000B9003A10831B3A14000803130C1EE62FD5
:100FD000990003173908840083133A188317840A89
:100FE000031DF52F0313850A03170313DA2F0800D7
:1010000003173808BC003708BB003C08FA003B084F
:10101000840083137A188317800803191328BB0AE6
:101020000319BC0A05283A08FA003908840083131A
:101030007A1883178008031936283B08BD003C083E
:10104000BE003908840083133A1883170008BF00D4
:101050003D08840083133E1883173F088000BB0AB5
:101060000319BC0AB90A0319BA0A13283B088400F9
:1010700083133C18831780013708F8003808F900FB
:10108000031308005F11DF110317B701B8016130C6
:10109000840083133708840738088A110313582003
:1010A0008A158000003803195A280317B80AB70AAE
:1010B000472803130317B5013508073C031C86288E
:1010C0003508B700B9016030B8008A110313F5255F
:1010D0008A15781C83280317BA01B901B8013508AD
:1010E000B7000A30BB00BD01D930BC008A11031320
:1010F000B8248A150317B8016130B700BA01D93096
:10110000B900031300200317B50A5C28B701B80122
:10111000D930840083133708840738088A110313F1
:101120005D208A158000003803199B280317B80A30
:10113000B70A882803130317B8016130B700BA0152
:10114000D930B900031300208316D2016130D100D9
:10115000CA01D730C90083120317B6013608073C0D
:10116000031CCF280310360DC73E84008313840A66
:101170000008B80084030008B700840083133818FF
:1011800083178A110313DA278A1501300317BB006E
:101190008A110313CA208A150317B60AAE28013034
:1011A000BB00BC008A1103139E238A150A30031763
:1011B000BB008A110313CA208A15783003178D00EB
:1011C00000308F008A110313EC238A1501300317B6
:1011D000BB000230BC008A1103139E238A150A301B
:1011E0000317BB008A110313CA208A1561308400DB
:1011F00083138A11D8258A15E601D730E500DF1060
:101200008A150A128B2A0317B50135081E3C031CE8
:10121000192983160313881002308312880664305C
:101220000317BB008A110313CA208A150317B50AD6
:10123000052903138A150A128C2A01300317BB00F3
:10124000BC008A1103139E238A150A300317BB00C2
:101250008A110313CA208A153B30840083138A1134
:10126000D8258A1501300317BB008A110313CA2041
:101270008A158A150A12FE2A03081F39830083166D
:101280000317871508300313990002309A00A6301F
:101290009800903083129800FF30B100B801B90176
:1012A000BA01D901DA015F10DF105F11DF11831677
:1012B00003170908C039890003131F129F12003059
:1012C00003178800831287018801890183130313A0
:1012D000AB01AC01E0012030E100E20153308316A4
:1012E000A000A1014930A2004430A300A401533062
:1012F000A5005F30A6005330A700A8014C30A9001C
:101300004530AA004E30AB004730AC004830AD004D
:101310005430AE00AF014430B0004130B100543021
:10132000B2004130B3003130B400B5014430B600F2
:101330004130B7005430B8004130B9003230BA0003
:10134000BB014330BC004830BD004530BE004330D7
:10135000BF004B30C0005330C1005530C2004D308B
:10136000C300C4012330C500C6018312E401A030CC
:10137000E300E601A230E500E801A530E700EA015C
:10138000A930E900EC01B030EB00EE01B630ED0021
:10139000F001BC30EF00F201C530F100533003170B
:1013A0009000910149309200443093009401433001
:1013B00095005F3096004630970098014C309900B8
:1013C00045309A004E309B0047309C0048309D00CD
:1013D00054309E009F014930A0004430A1005F308E
:1013E000A200A3014430A4004530A5005630A60059
:1013F0004930A7004330A8004530A900AA01533066
:10140000AB004530AC004E30AD005330AE004F3035
:10141000AF005230B000B1012330B200B30101304F
:1014200083160313C8001030C7000130CA00123001
:10143000C9000130CC001530CB000130CE0019308E
:10144000CD000130D0002030CF000130D200243058
:10145000D1000130D4002B30D3000130D60032301F
:10146000D500F3003730F400F5013230FB0037309F
:10147000FC00FD013030D700D801D900DA0100307E
:101480008800FF3086000910891009118911803009
:1014900087008312B1001F179F1383169F178312B3
:1014A0001F14831603170908C039890003131F127C
:1014B0009F12013003178800831203138B160B163B
:1014C0000B16831601138C16C03083128B04353033
:1014D00090008E010B308F00DC308E000C108A11D2
:1014E000E4298A15B9015F10DF1083168801831281
:1014F0008801DA010317B5018A1103134A2A8A15F4
:10150000B5017808B4005F1C892A8A117B2F8A15DF
:101510008B2ADF1842280329B508031D932A3408B3
:101520001A3C0318F02A0317BA01B901031335084E
:101530000317B800031334080317B7000A30BB00C1
:10154000BD017330BC008A110313B8248A15EC0165
:101550007330EB000317BA01B901031337080317FF
:10156000B800031336080317B7000A30BB00BD01EB
:101570007B30BC008A110313B8248A15EE017B303E
:10158000ED000317B4013408073C031CE42A0310E0
:10159000340D633E84008313840A0008B60084037C
:1015A0000008B50084008313361883178A110313CB
:1015B000DA278A1501300317BB008A110313CA20EA
:1015C0008A150317B40AC32A0430B500FA30BB00E9
:1015D0008A110313CA208A150317B50BE62A0313D1
:1015E0005A0B1F2BDA0130303C02DB0030303D0259
:1015F000403EDC0030303E02DD001D2939085B0230
:10160000031D1F2BDD08031D072B0030082B0130A5
:10161000F7005C080317B6007708B700B901B801F6
:101620008A1103130E268A155C080317B600B7014A
:10163000B9018030B8008A1103130E268A157A2A60
:02164000630045
:04400E00E22FFF3F5F
:00000001FF
;PIC16F887
;CRC=6614  CREATED="16-Oct-21 12:56"
