:1000000005308A00D52D0000FF00030E8301A100FA
:100010000A08A0008A010408A2007708A300780853
:10002000A4007908A5007A08A600831383128C30F7
:100030008400801E1D288C1A2E2822088400230884
:10004000F7002408F8002508F9002608FA0020081F
:100050008A00210E8300FF0E7F0E09008A110A120A
:100060003A280A108A100A1182074334483441346E
:100070004F340034CB305E07840083138C1E3E283F
:100080001A088000CB305E078400831300082E3CE2
:10009000031D5328CB305E07840083138001013099
:1000A000DF00DE015428DE0A8C128A110A121D2894
:1000B000EF3084008313000803196B280630F80022
:1000C000F701F70B6128F80B60287B30F700F70B7E
:1000D0006728800B5E280800031714187328031381
:1000E00008127528031703130816831608128312C3
:1000F000031794187F28031388128128031703130A
:100100008816831688128312031714198B28031379
:1001100008138D2803170313081783160813831277
:1001200003179419972803138813992803170313A7
:100130008817831688130000831209148316091088
:100140000230F700F70BA228A5280000831209103F
:1001500083160910831208000317950183160313F1
:10016000081600308312081A01300317950483160D
:100170000313881600308312881A0130F700031029
:10018000F70D77080317950483160313081700303B
:100190008312081B0130F700F70DF70DFC30F7054F
:1001A000770803179504831603138817003083120A
:1001B000881B0130F700F70DF70DF70DF830F70544
:1001C0007708031795041508F80003130800831631
:1001D00009108910091183128910831689100816D5
:1001E000881608178817831209158316091100004D
:1001F000831209148316091000008312AC207808BA
:1002000003179400031309108316091000008312CA
:100210000914831609100C290D2900008312AC2043
:1002200078080317930003130910831609100812A6
:1002300088120813881383120317140EF700F03086
:10024000F70577081304F80078089300931F2B290B
:1002500083160313EF289108031D32290313891015
:10026000342903170313891483168910000083129D
:100270000911831609110000831209108316091051
:1002800083120317120E93000F3093051308940086
:1002900003136C20031712080F3993009400031303
:1002A0006C20080028308316EB000C30EC00013085
:1002B000ED000630EE008312091083160910831238
:1002C00089108316891083120911831609110812E7
:1002D0008812081388130910891009110F30EF00D4
:1002E0008312582001308316EA006A08033C031C7D
:1002F0008729033083120317940003136C20053001
:100300008316EF00831258208316EA0A75290230FB
:1003100083120317940003136C2005308316EF003B
:10032000831258208316EA016A08033C031CAC2997
:10033000EB306A07840083130008EF008312031771
:100340009101831603136F0883120317920003139E
:10035000E7208316EA0A942983128A110A12AF2E23
:1003600083166A0DF700F70DFC30F70583121F089E
:10037000C33977049F00AE01AD018316EB016B0812
:10038000633C031CD72983129F149F18C529831629
:100390001E088312AD071E0803181E0FAE0701309A
:1003A0008316EF00831258208316EB0ABF298312AD
:1003B0002E088316ED0083122D088316EC008E3074
:1003C000F7006D08F8006C08F900FA01F808031D41
:1003D000F3297908F800F9010830F702F808031D3D
:1003E000F329F701FB290310F81BFA29F90DF80D81
:1003F000F703F329F8137A08EF007908EE0078087C
:10040000ED007708EC009A308312031793009930BF
:1004100092004C30910086309000831603136C08D4
:100420000319F92A8312031798001008031D1B2AC9
:1004300083160313F92A9802031C262A7F30980793
:10044000031C252A83160313F92A322A81309802C5
:1004500003182D2A83160313F92A031D322A831643
:100460000313F92A1808F700F801F901FA019701B6
:10047000831603136D0883120317960096178316CD
:1004800003136E08831203179500831603136F0876
:10049000831203179400193098001308940203186C
:1004A000612A013095020318612A96020318612A15
:1004B00097020318612A970A960A950A1308940767
:1004C000932A1208950203187C2A01309602031819
:1004D0007C2A970203187C2A970A960A1208950725
:1004E00013089407031C932A950A031D932A960A5E
:1004F000031D932A970A932A11088038960203183D
:10050000922A013097020318922A970A110880381C
:10051000960712089507031C702A960A031D702A75
:10052000970A702A7A14980B962AA12A0310940D20
:10053000950D960D970D0310FA0DF90DF80D990D07
:100540004D2A191CA92A0310F80CF90CFA0C990C65
:10055000AE2AF70BAE2A83160313F92A991BD72A62
:100560000310940D950D960D970D13089402031822
:10057000C32A013095020318C32A96020318C32A1E
:100580009702031CE92A120895020318CE2A0130AB
:1005900096020318CE2A9702031CE92A1108803814
:1005A00096020318D72A01309702031CE92AFA0A97
:1005B000031DE92AF90A031DE92AF80A031DE92A9D
:1005C000F70A031DE62A83160313F92AF80CF90C1F
:1005D000FA0C831603136D08831203179800110891
:1005E0009806981FF52AF817FF2AF813FF2A831692
:1005F0000313F701F801F901FA01831203177A08CE
:1006000083160313EF007908EE007808ED007708F1
:10061000EC008E30F7006C08F7026D08F9006E08E8
:10062000F800F917F7080319202B0310F908031D28
:100630001C2BF8080319202BF90CF80CF70B152BC1
:10064000ED1F272BF809F909F80A0319F90A7908A7
:100650008312AE007808AD002D08F800080083185A
:10066000342B2A3084008317031725082906803984
:10067000AF00A51F462BA209A309A409A509A20A38
:100680000319A30A0319A40A0319A50AA91F532BC6
:10069000A609A709A809A909A60A0319A70A0319FF
:1006A000A80A0319A90AF701F801F901FA01AA0138
:1006B000AB01AC01AD012908280427042604031965
:1006C000912B2030AE000310A20DA30DA40DA50D9B
:1006D000AA0DAB0DAC0DAD0D29082D02031D7A2B13
:1006E00028082C02031D7A2B27082B02031D7A2BC6
:1006F00026082A02031C8B2B2608AA022708031CA3
:10070000270FAB022808031C280FAC022908031C82
:10071000290FAD020314F70DF80DF90DFA0DAE0B0C
:10072000632BAF1F9E2BF709F809F909FA09F70A9D
:100730000319F80A0319F90A0319FA0A2A088000AA
:10074000840A2B088000840A2C088000840A2D0863
:1007500080000313080003179501940193010130F1
:1007600092009601970183160313ED1F0B2C0130A5
:10077000831203179600831603136D088312031761
:100780009D00831603136C08831203179C008316C5
:1007900003136B08831203179B00831603136A0865
:1007A000831203179A00FF30A100A0009F009E0053
:1007B0002030A600A201A301A401A5011D08FA0092
:1007C0001C08F9001B08F8001A08F7000310771C32
:1007D000F72B1E08A2071F0803181F0FA3072008E6
:1007E0000318200FA40721080318210FA507A50C43
:1007F000A40CA30CA20CFA0CF90CF80CF70CA60B29
:10080000E62B7A0883160313ED007908EC007808CC
:10081000EB007708EA00831203179208031D192CD6
:100820009308031D192C9408031D192C950803190E
:10083000CD2C8310831603136D0883120317A500B4
:10084000831603136C0883120317A4008316031383
:100850006B0883120317A300831603136A0883121D
:100860000317A200A901A801A701831603136E08AC
:1008700083120317A60003132F237A08031795008A
:1008800079089400780893007708920017081007F9
:10089000F8001108FA000318FA0A780899007A0893
:1008A0009A009C0104089B001C10831B1C148314D9
:1008B0001D3084008317831603136D0883120317FA
:1008C000A500831603136C0883120317A400831674
:1008D00003136B0883120317A300831603136A081C
:1008E00083120317A200A901A801A701831603130D
:1008F0006E0883120317A60003132F2303171B0888
:10090000840083131C18831730301D07F7001E085E
:10091000F800003003180130F8071F08F900003014
:1009200003180130F9072008FA00003003180130DD
:10093000FA071908840083131A18831777088000B0
:100940001708100784008313111883170008393C17
:100950000318B32C1708100784008313111883178A
:10096000073000078000970A150883160313ED006F
:1009700083120317140883160313EC008312031762
:10098000130883160313EB00831203171208831650
:100990000313EA000B2C83120317160BD82C17082D
:1009A000100784008313111883172D308000970AD5
:1009B00083160313EF01031083120317170C83161A
:1009C00003136F020318242D6F08831203171007F7
:1009D00084008313111883170008980083160313EB
:1009E0006F08831203171007F8001108FA000318A4
:1009F000FA0A780899007A089A00831603136F0898
:100A0000831203171702FF3E100784008313111887
:100A1000831700089B001908840083131A18831792
:100A20001B088000831603136F0883120317170235
:100A3000FF3E1007840083131118831718088000E5
:100A400083160313EF0ADB2C831203171708100712
:100A5000840083131118831780011008F80011080F
:100A6000F9000313080080080319502D8316ED01C7
:100A70000408EC006D10831B6D14000883120C1E1B
:100A80003F2D990083166C08840083136D1883171B
:100A9000840A031D4E2D8312850A83168312332D7B
:100AA0008A110A121E2F83166E0B572D5A2D4030B5
:100AB000EF005B2DEF0101306D02EF076F0880380A
:100AC0008312031790009101100892000313E7208E
:100AD000080001308316ED00EE00831253250A3022
:100AE0008316EF0083125820CB30840083138008D4
:100AF0000319CD2D8316EB010408EA006B10831B4C
:100B00006B140008EC006C08073A83120319922D4D
:100B10000B3A0319992D063A0319A52D023A031928
:100B2000AD2DB42D01308316ED00EE008312532558
:100B3000BF2D03179101013092000313E72002300B
:100B40008316EF0083125820BF2D01308316ED006D
:100B50000230EE0083125325BF2D03179101103090
:100B600092000313E720BF2D013003179100831675
:100B700003136C088312031792000313E7208316F4
:100B80006A08840083136B188317840A031DCB2D16
:100B90008312850A83168312772D01308316EF00A6
:100BA000831258208A110A12342F03081F39830038
:100BB00083160317871508300313990002309A0033
:100BC000A6309800903083129800DE01DF01831672
:100BD00003170908C039890003131F129F12003040
:100BE0000317880083128701880189018313031387
:100BF000A701A8014830B9004530BA004C30BB000D
:100C0000BC004F30BD00BE01B8013930B7005330D1
:100C10008316A000A1014930A2004430A300A40122
:100C20004330A5004F30A6004D30A700A80041304A
:100C3000A9004E30AA004430AB00AC014C30AD00EE
:100C40004530AE004E30AF004730B0004830B10004
:100C50005430B200B3014430B4004130B5005430D8
:100C6000B6004130B7003130B800B9014430BA00A5
:100C70004130BB005430BC004130BD003230BE00BA
:100C8000BF014330C0004830C1004530C20043308E
:100C9000C3004B30C4005330C5005530C6004D3042
:100CA000C700C8012330C900CA018312C001A030A7
:100CB000BF00C201A230C100C401A530C300C601FB
:100CC000AD30C500C801B430C700CA01BA30C90090
:100CD000CC01C030CB00CE01C930CD003230CF00C6
:100CE0003730D000D1013230D2003730D300D401B8
:100CF0005230D5004530D6004330D7004530D800BB
:100D00004930D9005630DA004530DB004430DC0091
:100D1000DD01F0308316880000308600091089104C
:100D20000911891183121F179F1383169F178312AE
:100D30001F14831603170908C039890003131F12F3
:100D40009F12113003178800031308108312081034
:100D500083168C16C03083128B048B16522983168F
:100D6000EA01EB013730840083136A0884076B08BB
:100D700083123120800000380319C32E8316EB0A3A
:100D8000EA0AB22E831201308316EA008312B021E0
:100D9000B2017808B1008316EA018312B021B001D4
:100DA0007808AF00B008031DD92E2F081A3C03188D
:100DB000302F8316ED01EC01831230088316EB000F
:100DC00083122F088316EA000A30EE0083120317FD
:100DD00091014F3090000313AB23C8014F30C7007F
:100DE0008316ED01EC01831232088316EB008312A7
:100DF00031088316EA000A30EE00831203179101CE
:100E0000523090000313AB23CA015230C90083163D
:100E1000E9016908063C031C262F0310690D3F3EBB
:100E200084008313840A0008EB0084030008EA00AE
:100E3000840083136B1883178312332D01308316BC
:100E4000EF00831258208316E90A092F0430EA00C4
:100E5000FA30EF00831258208316EA0B282F8312F2
:100E60005F0B4E2FDF01692D02308316ED00EE007F
:100E700083125325831608100130831288068316C7
:100E800088100230831288068316081104308312FA
:100E9000880683168811083083128806C32E6300E3
:04400E00E22FFF3F5F
:00000001FF
;PIC16F887
;CRC=C959  CREATED="09-Oct-21 01:13"
