:1000000005308A00392D0000FF00030E8301A10096
:100010000A08A0008A010408A2007708A300780853
:10002000A4007908A5007A08A600831383128C30F7
:100030008400801E1D288C1A2E2822088400230884
:10004000F7002408F8002508F9002608FA0020081F
:100050008A00210E8300FF0E7F0E09008A110A120A
:100060003A280A108A100A1182074334483441346E
:100070004F34003458307607840083138C1E3E289A
:100080001A088000583076078400831300082E3C3D
:10009000031D5328583076078400831380010130F4
:1000A000FB00F6015428F60A8C128A110A121D2848
:1000B000D73084008313000803196B280630F8003A
:1000C000F701F70B6128F80B60287B30F700F70B7E
:1000D0006728800B5E28080083165C18732883123B
:1000E0000812752883168312081683160812DC1866
:1000F0007D28831288127F28831683128816831620
:1001000088125C19872883120813892883168312A2
:10011000081783160813DC19912883128813932873
:10012000831683128817831688130000831209141C
:10013000831609100230F700F70B9C289F28000057
:100140008312091083160910831208008316DD013B
:10015000081600308312081A01308316DD04881651
:1001600000308312881A0130F7000310F70D77086A
:100170008316DD04081700308312081B0130F700D6
:10018000F70DF70DFC30F70577088316DD048817A7
:1001900000308312881B0130F700F70DF70DF70DC3
:1001A000F830F70577088316DD045D08F800831240
:1001B000080083160910891009118312891083160B
:1001C00089100816881608178817831209158316D0
:1001D000091100008312091483160910000083120C
:1001E000A62078088316DC008312091083160910F4
:1001F00000008312091483160910FE28FF2800004E
:100200008312A62078088316DB0083120910831658
:10021000091008128812081388135C0EF700F030DA
:10022000F70577085B04F8007808DB00DB1BE128A2
:10023000D908031D1F2983128910212983168312CF
:10024000891483168910000083120911831609117D
:10025000000083120910831609105A0EDB000F30BC
:10026000DB055B08DC0083126C2083165A080F390B
:10027000DB00DC0083126C20080028308316D300DA
:100280000C30D4000130D5000630D600831209109E
:10029000831609108312891083168910831209119D
:1002A000831609110812881208138813091089107F
:1002B00009110F30D7008312582001308316D20065
:1002C0005208033C031C70290330DC0083126C20AD
:1002D00005308316D700831258208316D20A60296E
:1002E0000230DC0083126C2005308316D7008312A5
:1002F00058208316D2015208033C031C8D29D330A9
:100300005207840083130008D700D9015708DA0088
:100310008312D9208316D20A7B2983128A110A12EA
:10032000212E8316520DF700F70DFC30F7058312CE
:100330001F08C33977049F00AE01AD018316D301B6
:100340005308633C031CB82983129F149F18A629E5
:1003500083161E088312AD071E0803181E0FAE0772
:1003600001308316D700831258208316D30AA029A0
:1003700083122E088316D50083122D088316D4000D
:100380008E30F7005508F8005408F900FA01F80813
:10039000031DD4297908F800F9010830F702F8089C
:1003A000031DD429F701DC290310F81BDB29F90D03
:1003B000F80DF703D429F8137A08D7007908D60086
:1003C0007808D5007708D4009A30DB009930DA003D
:1003D0004C30D9008630D80054080319B12AE00007
:1003E00058080319B12AE002031CFB297F30E007FB
:1003F0000318B12A012A8130E002031CB12A031933
:10040000B12A6008F700F801F901FA01DF01550887
:10041000DE00DE175608DD005708DC001930E0006A
:100420005B08DC020318242A0130DD020318242AA9
:10043000DE020318242ADF020318242ADF0ADE0A58
:10044000DD0A5B08DC07562A5A08DD0203183F2A3A
:100450000130DE0203183F2ADF0203183F2ADF0AB9
:10046000DE0A5A08DD075B08DC07031C562ADD0A92
:10047000031D562ADE0A031D562ADF0A562A59088A
:100480008038DE020318552A0130DF020318552A8E
:10049000DF0A59088038DE075A08DD07031C332AB3
:1004A000DE0A031D332ADF0A332A7A14E00B592AA5
:1004B000642A0310DC0DDD0DDE0DDF0D0310FA0DD7
:1004C000F90DF80DE10D102A611C6C2A0310F80CCF
:1004D000F90CFA0CE10C6F2AF7030319B12AE11B9E
:1004E000982A0310DC0DDD0DDE0DDF0D5B08DC024C
:1004F0000318842A0130DD020318842ADE0203185F
:10050000842ADF02031CA72A5A08DD0203188F2A57
:100510000130DE0203188F2ADF02031CA72A5908C4
:100520008038DE020318982A0130DF02031CA72A54
:10053000FA0A031DA72AF90A031DA72AF80A031DB0
:10054000A72AF70A0319B12AF80CF90CFA0C550876
:10055000E0005908E006E01FAF2AF817B52AF813A3
:10056000B52AF701F801F901FA017A08D7007908EC
:10057000D6007808D5007708D4008E30F7005408EC
:10058000F7025508F9005608F800F917F70803199B
:10059000D42A0310F908031DD02AF8080319D42A15
:1005A000F90CF80CF70BC92AD51FDB2AF809F90951
:1005B000F80A0319F90A79088312AE007808AD0029
:1005C0002D08F8008A110A12392E8318EA2A1430ED
:1005D0008400831783166C0883120317130680396F
:1005E000990083160313EC1F002BE909EA09EB09B4
:1005F000EC09E90A0319EA0A0319EB0A0319EC0AE0
:1006000083120317931F0F2B9009910992099309E5
:10061000900A0319910A0319920A0319930AF70120
:10062000F801F901FA019401950196019701130867
:100630001204110410040319512B203098000310E8
:1006400083160313E90DEA0DEB0DEC0D831203176E
:10065000940D950D960D970D13081702031D3A2B57
:1006600012081602031D3A2B11081502031D3A2B1E
:1006700010081402031C4B2B100894021108031CD1
:10068000110F95021208031C120F96021308031C87
:10069000130F97020314F70DF80DF90DFA0D980BCF
:1006A0001F2B991F5E2BF709F809F909FA09F70AB8
:1006B0000319F80A0319F90A0319FA0A1408800041
:1006C000840A15088000840A16088000840A170826
:1006D0008000031308008316DC01DB01DA0101301E
:1006E000D900DE01DF01D51FB52B0130DE00550832
:1006F000E4005408E3005308E2005208E100FF3030
:10070000E800E700E600E5002030ED00E901EA013D
:10071000EB01EC016408FA006308F9006208F800D4
:100720006108F7000310771CA32B6508E90766082A
:100730000318660FEA0767080318670FEB076808D6
:100740000318680FEC07EC0CEB0CEA0CE90CFA0C44
:10075000F90CF80CF70CED0B922B7A08D500790800
:10076000D4007808D3007708D200D908031DC12B24
:10077000DA08031DC12BDB08031DC12BDC0803199C
:10078000492C83105508EC005408EB005308EA008C
:100790005208E90083120317930192019101831615
:1007A000031356088312031790000313E5227A08F7
:1007B0008316DC007908DB007808DA007708D900B6
:1007C0005F085707F8005808FA000318FA0A780873
:1007D000E1007A08E200E4010408E3006410831BEE
:1007E00064148314E530840083135508EC00540826
:1007F000EB005308EA005208E90083120317930143
:100800009201910183160313560883120317900077
:100810000313E52283166308840083136418831787
:1008200030306507F7006608F80000300318013023
:10083000F8076708F900003003180130F907680865
:10084000FA00003003180130FA07610884008313AE
:1008500062188317770880005F08570784008313A6
:10086000581883170008393C03183F2C5F085707B6
:100870008400831358188317073000078000DF0AAD
:100880005C08D5005B08D4005A08D3005908D20090
:10089000B52B5E0B542C5F08570784008313581840
:1008A00083172D308000DF0ADD0103105F0C5D022D
:1008B00003188A2C5D085707840083135818831780
:1008C0000008E0005D085707F8005808FA00031810
:1008D000FA0A7808E1007A08E2005D085F02FF3E4C
:1008E000570784008313581883170008E300610832
:1008F0008400831362188317630880005D085F0219
:10090000FF3E570784008313581883176008800040
:10091000DD0A552C5F085707840083135818831786
:1009200080015708F8005808F90083128A110A124A
:10093000552E80080319B62C8316D5010408D4005F
:100940005510831B5514000883120C1EA52C99000A
:10095000831654088400831355188317840A031DD3
:10096000B42C8312850A83168312992C8A110A12D9
:100970006F2E8316560BBD2CC02C4030D700C12CD7
:10098000D70101305502D70757088038D800D90160
:100990005808DA008312D920080083165408073A51
:1009A00083120319DD2C0B3A0319E42C063A0319C0
:1009B000F02C023A0319F82CFF2C01308316D500D5
:1009C000D6008312B924062D8316D9010130DA002E
:1009D0008312D92002308316D70083125820062DA7
:1009E00001308316D5000230D6008312B924062DBB
:1009F0008316D9011030DA008312D920062D013078
:100A00008316D9005408DA008312D9200800013077
:100A10008316D500D6008312B9240A308316D70076
:100A20008312582058308400831380080319312D15
:100A30008316D3010408D2005310831B53140008FB
:100A4000D4008312CD2483165208840083135318D4
:100A50008317840A031D2F2D8312850A83168312A0
:100A6000152D01308316D700831258208A110A12DF
:100A7000852E03081F398300831603178715083056
:100A80000313990002309A00A63098009030831228
:100A90009800B101F601FB01831603170908C0395C
:100AA000890003131F129F1200300317880083125E
:100AB00087018801890183130313A701A801483026
:100AC000B6004530B7004C30B800B9004F30BA001E
:100AD000BB01B5013630B40053308316A000A1012C
:100AE0004930A2004430A300A4014330A5004F3098
:100AF000A6004D30A700A8004130A9004E30AA0042
:100B00004430AB00AC014C30AD004530AE004E304F
:100B1000AF004730B0004830B1005430B200B301EC
:100B20004430B4004130B5005430B6004130B70015
:100B30003130B800B9014430BA004130BB00543004
:100B4000BC004130BD003230BE00BF014330C000A8
:100B50004830C1004530C2004330C3004B30C400B0
:100B60005330C5005530C6004D30C700C801533062
:100B7000C9005430CA004F30CB005030CC00203078
:100B8000CD002A30CE00CF018312BD01A030BC00C1
:100B9000BF01A230BE00C101A530C000C301AD300D
:100BA000C200C501B430C400C701BA30C600C901D3
:100BB000C030C800CB01C930CA003230CC00373059
:100BC000CD00CE015230CF004530D0004330D100AF
:100BD0004530D2004930D3005630D4004530D500DE
:100BE0004430D600D701F0308316880000308600EC
:100BF000091089100911891183121F179F13831679
:100C00009F1783121F14831603170908C039890020
:100C100003131F129F120130031788000030F800E1
:100C2000831203131F08C33978049F00831608102A
:100C30008312081083168C16C03083128B048B1617
:100C40003D298316D201D301343084008313520826
:100C50008407530883123120800000380319352E91
:100C60008316D30AD20A242E83128316D20183124A
:100C70009129B0017808AF00B008031D432E2F085A
:100C80001A3C0318812E8316D501D4018312300833
:100C90008316D30083122F088316D2000A30D600A1
:100CA000D8014C30D70083126B2BC5014C30C400E7
:100CB0008316D0015008063C031C772E0310500DFC
:100CC0003C3E84008313840A0008D3008403000898
:100CD000D20084008313531883178312992C013098
:100CE0008316D700831258208316D00A5A2E043058
:100CF000D200FA30D700831258208316D20B792EF7
:100D000083127B0BC92EFB01072D02308316D50001
:100D1000D6008312B9248316D1015108073C031C65
:100D2000A52E58305107840083130008D2004F309D
:100D300051078400831300085202031DA32E51089B
:100D40008312B1078316D10A8D2E831231081C3C01
:100D5000031DC92EB1014F308316D4008312CD2458
:100D60004B308316D4008312CD2483160810013033
:100D70008312880683168810023083128806831631
:100D800008110430831288068316881108308312F4
:060D90008806352E630009
:04400E00E22FFF3F5F
:00000001FF
;PIC16F887
;CRC=4313  CREATED="05-Oct-21 00:25"
