:100000000A308A007D2A0000FF00030E8301A10050
:100010000A08A0008A010408A2007708A300780853
:10002000A4007908A5007A08A60003170D08031399
:10003000A70003170F080313A80003170C080313E6
:10004000A90003170E080313AA00831383120B1EC3
:100050002B288B1852288C308400801E31288C1A53
:100060005528220884002308F7002408F8002508F2
:10007000F9002608FA00270803178D000313280843
:1000800003178F000313290803178C0003132A0892
:1000900003178E00031320088A00210E8300FF0E31
:1000A0007F0E09008A110A1280288A110A12AF28CD
:1000B0000A108A100A118207203400340A108A10AC
:1000C0000A11820720342A34203400340A108A109E
:1000D0000A118207003449223A100000C422D624B3
:1000E000C3223A100001D322CE294F293A10000131
:1000F000C3274E23C9230001C320D3223A10000096
:100100000317E401831603138614831286189B28B1
:100110000C1C9828831608110430831288060C10D2
:100120008E010B308F00DC308E000317E40A0313BE
:10013000031782280313031764081E3C0318A7281B
:1001400001300313DF06DF14DF11AB28031703139D
:10015000DF10DF115F128B108A110A1231283C3038
:100160005A07840083138C1EB3281A0880003C3081
:100170005A078400831300082E3C031DC8283C3016
:100180005A07840083138001DA010130DB00C9289B
:10019000DA0A8C128A110A1231284230840083173D
:1001A00000080319E0280630F800F701F70BD628FD
:1001B000F80BD5287B30F700F70BDC28800BD32811
:1001C000080003174818E82803130710EA28031744
:1001D00003130714311031088316870083120317A5
:1001E000C818F62803138710F82803170313871479
:1001F000B1103108831687008312031748190429A8
:1002000003130711062903170313071531113108CA
:100210008316870083120317C81912290313871145
:100220001429031703138715B111310883168700AA
:10023000000083120914831609100230F700F70B2F
:100240001F29222900008312091083160910831226
:1002500008000317C90103133114310883168700FE
:1002600000308312071801300317C9040313B114B7
:100270003108831687000030831287180130F70099
:100280000310F70D77080317C9040313311531085C
:10029000831687000030831207190130F700F70D2D
:1002A000F70DFC30F70577080317C9040313B115E0
:1002B0003108831687000030831287190130F70058
:1002C000F70DF70DF70DF830F70577080317C90498
:1002D0004908F80003130800831609108910091152
:1002E0008312891083168910071487140715871540
:1002F000831209158316091100008312091483164D
:10030000091000008312292178080317C80003137D
:1003100009108316091000008312091483160910AE
:100320009129922900008312292178080317C70018
:100330000313091083160910831231103108831634
:1003400087008312B11031088316870083123111A0
:100350003108831687008312B11131088316870094
:1003600083120317480EF700F030F70577084704AB
:10037000F8007808C700C71FC02983160313742923
:10038000C508031DC72903138910C92903170313BF
:10039000891483168910000083120911831609112C
:1003A0000000831209108316091083120317460EEA
:1003B000C7000F30C7054708C8000313E120031723
:1003C00046080F39C700C8000313E1200800283091
:1003D0000317BE000C30BF000130C0000630C10062
:1003E00003130910831609108312891083168910CC
:1003F00083120911831609118312311031088316F3
:1004000087008312B11031088316870083123111DF
:100410003108831687008312B111310883168700D3
:100420000910891009110F3083120317C20003133A
:10043000CD2001300317BD003D08033C031C2C2ACE
:100440000330C8000313E12005300317C200031373
:10045000CD200317BD0A1C2A0230C8000313E12077
:1004600005300317C2000313CD200317BD013D085B
:10047000033C031C492A3E303D07840083170008D3
:10048000C200C5014208C60003136C210317BD0A50
:10049000372A03138A150A12CC2B03173D0DF700D8
:1004A000F70DFC30F70503131F08C33977049F00CD
:1004B000B301B2010317BE013E08633C031C742A5A
:1004C00003139F149F18622A83161E088312B20713
:1004D0001E0803181E0FB30701300317C2000313D1
:1004E000CD200317BE0A5C2A031333080317C0008C
:1004F000031332080317BF008E30F7004008F800DE
:100500003F08F900FA01F808031D902A7908F8005D
:10051000F9010830F702F808031D902AF701982A1C
:100520000310F81B972AF90DF80DF703902AF8131A
:100530007A08C2007908C1007808C0007708BF00B7
:100540009A30C6009930C5004C30C4008630C300D4
:100550003F0803196D2BCB00430803196D2BCB0209
:10056000031CB72A7F30CB0703186D2BBD2A8130BF
:10057000CB02031C6D2B03196D2B4B08F700F80100
:10058000F901FA01CA014008C900C9174108C800A9
:100590004208C7001930CB004608C7020318E02AFA
:1005A0000130C8020318E02AC9020318E02ACA026F
:1005B0000318E02ACA0AC90AC80A4608C707122B44
:1005C0004508C8020318FB2A0130C9020318FB2A98
:1005D000CA020318FB2ACA0AC90A4508C8074608FE
:1005E000C707031C122BC80A031D122BC90A031DBF
:1005F000122BCA0A122B44088038C9020318112B87
:100600000130CA020318112BCA0A44088038C907EE
:100610004508C807031CEF2AC90A031DEF2ACA0AA6
:10062000EF2A7A14CB0B152B202B0310C70DC80D06
:10063000C90DCA0D0310FA0DF90DF80DCC0DCC2A19
:100640004C1C282B0310F80CF90CFA0CCC0C2B2B9F
:10065000F70303196D2BCC1B542B0310C70DC80DCA
:10066000C90DCA0D4608C7020318402B0130C80245
:100670000318402BC9020318402BCA02031C632B2A
:100680004508C80203184B2B0130C90203184B2B35
:10069000CA02031C632B44088038C9020318542B78
:1006A0000130CA02031C632BFA0A031D632BF90AEB
:1006B000031D632BF80A031D632BF70A03196D2B27
:1006C000F80CF90CFA0C4008CB004408CB06CB1F01
:1006D0006B2BF817712BF813712BF701F801F90147
:1006E000FA017A08C2007908C1007808C0007708CA
:1006F000BF008E30F7003F08F7024008F9004108BC
:10070000F800F917F7080319902B0310F908031DD7
:100710008C2BF8080319902BF90CF80CF70B852B90
:10072000C01F972BF809F909F80A0319F90A790883
:100730000313B3007808B2003208F8008A150A12D1
:10074000DA2B0317420BA52BA82B4030C300A92B93
:10075000C30101304102C30743088038C400C5010A
:100760004408C60003136C21080003174008073A29
:1007700003130319C52B0B3A0319CC2B063A0319A3
:10078000D82B023A0319E02BE72B01300317C100E5
:10079000C2000313A123EE2B0317C5010130C600CD
:1007A00003136C2102300317C2000313CD20EE2B7C
:1007B00001300317C1000230C2000313A123EE2B46
:1007C0000317C5011030C60003136C21EE2B013056
:1007D0000317C5004008C60003136C2108000B086E
:1007E0000317BD0003138B13831603178C170C1408
:1007F000000000008312BD1F002C03138B1703178A
:100800000C087F3903193D2CBD000D08BE000F08F0
:10081000BF003D08C0000313B52303173E088D0039
:100820003F088F0003130B080317C00003138B133B
:10083000831603178C170C14000000008312C01FCE
:10084000242C03138B1703170C0D0E0D7F3903197E
:100850003D2CBD000D08BE000F08BF003D08C000C4
:100860000313B52303173E088D003F088F008D0A40
:1008700003198F0A0313EF2B0317031308008318C0
:10088000442C5E3084008317031759085D068039B5
:10089000E300D91F562CD609D709D809D909D60A99
:1008A0000319D70A0319D80A0319D90ADD1F632CC3
:1008B000DA09DB09DC09DD09DA0A0319DB0A0319A5
:1008C000DC0A0319DD0AF701F801F901FA01DE017A
:1008D000DF01E001E1015D085C045B045A040319D7
:1008E000A12C2030E2000310D60DD70DD80DD90D64
:1008F000DE0DDF0DE00DE10D5D086102031D8A2CA8
:100900005C086002031D8A2C5B085F02031D8A2CB1
:100910005A085E02031C9B2C5A08DE025B08031C6B
:100920005B0FDF025C08031C5C0FE0025D08031C28
:100930005D0FE1020314F70DF80DF90DFA0DE20B4E
:10094000732CE31FAE2CF709F809F909FA09F70A25
:100950000319F80A0319F90A0319FA0A5E08800054
:10096000840A5F088000840A60088000840A6108A5
:100970008000031308000317C901C801C701013033
:10098000C600CB01CC01C21F052D0130CB004208AF
:10099000D1004108D0004008CF003F08CE00FF3012
:1009A000D500D400D300D2002030DA00D601D70120
:1009B000D801D9015108FA005008F9004F08F80091
:1009C0004E08F7000310771CF32C5208D607530883
:1009D0000318530FD70754080318540FD8075508A6
:1009E0000318550FD907D90CD80CD70CD60CFA0C14
:1009F000F90CF80CF70CDA0BE22C7A08C200790833
:100A0000C1007808C0007708BF00C608031D112D7B
:100A1000C708031D112DC808031D112DC90803198E
:100A20008D2D83104208D9004108D8004008D70016
:100A30003F08D600DD01DC01DB014308DA000313C7
:100A40003F247A080317C9007908C8007808C7004E
:100A50007708C6004C084407F8004508FA00031858
:100A6000FA0A7808CE007A08CF00D1010408D00035
:100A70005110831B51148314523084008317420891
:100A8000D9004108D8004008D7003F08D600DD0152
:100A9000DC01DB014308DA0003133F24031750088D
:100AA000840083135118831730305207F70053081E
:100AB000F800003003180130F8075408F90000303E
:100AC00003180130F9075508FA0000300318013007
:100AD000FA074E08840083134F18831777088000A5
:100AE0004C08440784008313451883170008393CD9
:100AF0000318832D4C08440784008313451883177B
:100B0000073000078000CC0A4908C2004808C1002D
:100B10004708C0004608BF00052D4B0B982D4C0818
:100B2000440784008313451883172D308000CC0AB6
:100B3000CA0103104C0C4A020318CE2D4A08440780
:100B400084008313451883170008CD004A08440722
:100B5000F8004508FA000318FA0A7808CE007A0867
:100B6000CF004A084C02FF3E440784008313451817
:100B700083170008D0004E08840083134F18831792
:100B8000500880004A084C02FF3E4407840083134B
:100B9000451883174D088000CA0A992D4C08440750
:100BA000840083134518831780014408F800450822
:100BB000F9000313080080080319F72D0317BF017C
:100BC0000408BE003F10831B3F140008C00003133D
:100BD000B52303173E08840083133F188317840A44
:100BE000031DF52D0313850A03170313DB2D0800DE
:100BF00003173F080739F7003F0CF800F80CF80C12
:100C00001F30F805780840078400831341188317C4
:100C10000008F800F70A0D2EF80CF70B0C2E031342
:100C2000080003173E080739F7003E0CF800F80CDF
:100C3000F80C1F30F805780840078400831341182A
:100C40008317F801F80AF70A262EF80DF70B252E60
:100C5000BF0803192E2E78088004312EF809780871
:100C6000800503130800DF1501300317C100C2001F
:100C70000313A1230A300317C2000313CD207830D9
:100C800003178D0000308F000313EF23013003178B
:100C9000C1000230C2000313A1230A300317C200AF
:100CA0000313CD207C3003178D0000308F00031319
:100CB000EF23DF1D8E2E83160615831206198D2E47
:100CC000B80A3808033C031CB80102300317BD0002
:100CD0009630C2000313CD200317BD0B682E0930D8
:100CE000C1000230C2000313A1230317C201C101D6
:100CF000C001031338080317BF000A30C300C50141
:100D00007230C4000313BB240A300317C20003135C
:100D1000CD20723084008313DB25592EDF18932EEB
:100D20008A1500288A118A150A12E22B0317400837
:100D3000C4003F08C3004408FA004308840083133A
:100D40007A18831780080319A92EC30A0319C40A45
:100D50009B2E4208FA004108840083137A188317F7
:100D600080080319C82E4108840083134218831792
:100D70000008C700430884008313441883174708FA
:100D80008000C30A0319C40AC10A0319C20AA92EA2
:100D90004308840083134418831780013F08F80038
:100DA0004008F9000313080080080319F12E031707
:100DB000C1010408C0004110831B41140008031343
:100DC0000C1EE02E9900031740088400831341187D
:100DD0008317840A031DEF2E0313850A03170313D9
:100DE000D42E0800DF115F120317BE01BF0162306D
:100DF000840083133E0884073F08031366208000A5
:100E000000380319082F0317BF0ABE0AF72E031371
:100E10000317BF01C0017430840083133F088407A7
:100E20004008031358208000003803191C2F0317B3
:100E3000C00ABF0A0B2F03130317BE013E08073C6D
:100E4000031C492F3E08BF00C1016030C0000313DE
:100E5000F825781C462F0317C201C101C0013E08C6
:100E6000BF000A30C300C5017430C4000313BB24A3
:100E700001300317C2000313CD200317C0016230F5
:100E8000BF00C2017430C100031396260317BE0AC7
:100E90001E2FBF01C0017430840083133F088407F4
:100EA000400803135E208000003803195C2F0317ED
:100EB000C00ABF0A4B2F031301300317C2000313EC
:100EC000CD200317C0016230BF00C2017430C100E1
:100ED000031396268316DC016230DB00D4017030E8
:100EE000D30083120317BD013D08073C031C912F5B
:100EF00003103D0DD13E84008313840A0008BF0017
:100F000084030008BE00840083133F188317031373
:100F1000D42601300317C2000313CD200317BD0AE6
:100F2000742F0130C1000230C2000313A1230A3024
:100F30000317C2000313CD20623084008313DB2526
:100F40008316A3017030A2008312DF108A150A12E3
:100F5000E82B0317BD013D081E3C031CBD2F831663
:100F60000313881002308312880664300317C2000E
:100F70000313CD200317BD0AAB2F03138A150A12E2
:100F8000EC2B01300317C100C2000313A1230A3068
:100F90000317C2000313CD203C3084008313DB25EC
:100FA00001300317C2000313CD208A150A12642CE6
:10100000DF103808FC3E0318722A043E752ADF10F0
:101010005F1601300317C1000230C2008A110313AA
:10102000A1238A150A300317C2008A110313CD20A9
:101030008A156B3003178D0000308F008A1103135F
:10104000EF238A155F1E6D28831606158312061975
:101050006C28B90A39080F3C031CB9010230031788
:10106000BD009630C2008A110313CD208A150317E4
:10107000BD0B3128C201C101C00103133908031798
:10108000BF000A30C300C5017030C4008A110313C9
:10109000BB248A1509300317C1000230C2008A112F
:1010A0000313A1238A150A300317C2008A11031300
:1010B000CD208A157030840083138A11DB258A15B0
:1010C00001300317C2008A110313CD208A1583163D
:1010D00008100130831288062228722ADF105F165A
:1010E00001300317C1000230C2008A110313A1238B
:1010F0008A150A300317C2008A110313CD208A15FE
:101100006E3003178D0000308F008A110313EF2318
:101110008A155F1E6E298316061583120619132978
:10112000BA0A3A08073C031CBA0102300317BD0093
:101130009630C2008A110313CD208A150317BD0B08
:101140009828C201C101C00103133A080317BF0068
:101150000A30C300C5017230C4008A110313BB24D6
:101160008A1509300317C1000230C2008A11031327
:10117000A1238A150A300317C2008A110313CD2058
:101180008A157230840083138A11DB258A15013099
:101190000317C2008A110313CD208A153A300317B2
:1011A000C0008A110313B5238A1520300317C0002D
:1011B0008A110313B5238A1501300317C2008A115F
:1011C0000313CD208A153A080317BF00C101603010
:1011D000C0008A110313F8258A15003078180130F1
:1011E0000317BD00C201C101C0013D08BF000A30A4
:1011F000C300C5017230C4008A110313BB248A15D1
:101200007230840083138A11DB258A15013003179D
:10121000C2008A110313CD208A15831608100130ED
:10122000831288066D2983168615831286196D2907
:101230003A080317BF00C1016030C0008A110313D0
:10124000F8258A150030781C01300317BD00031300
:101250003A080317BE003D08BF00C1016030C0005E
:101260008A11031311268A150D300317C1000230AD
:10127000C2008A110313A1238A1502300317BD008F
:101280009630C2008A110313CD208A150317BD0BB7
:10129000402903133A080317BF00C1016030C000A2
:1012A0008A110313F8258A150030781801300317C6
:1012B000BD00C201C101C0013D08BF000A30C3002A
:1012C000C5017230C4008A110313BB248A15723021
:1012D000840083138A11DB258A158928722ADF107E
:1012E0005F1601300317C1000230C2008A110313D8
:1012F000A1238A150A300317C2008A110313CD20D7
:101300008A15733003178D0000308F008A11031384
:10131000EF238A155F1E6F2A83160615831206199E
:10132000142ABB0A3B08033C031CBB010230031711
:10133000BD009630C2008A110313CD208A15031711
:10134000BD0B9929C201C101C00103133B0803175A
:10135000BF000A30C300C5017230C4008A110313F4
:10136000BB248A1509300317C1000230C2008A115C
:101370000313A1238A150A300317C2008A1103132D
:10138000CD208A157230840083138A11DB258A15DB
:1013900001300317C2008A110313CD208A153A3099
:1013A0000317C0008A110313B5238A1520300317D1
:1013B000C0008A110313B5238A1501300317C20038
:1013C0008A110313CD208A153B080317BF00C10102
:1013D0006130C0008A110313F8258A15003078188F
:1013E00001300317BD00C201C101C0013D08BF00AB
:1013F0000A30C300C5017230C4008A110313BB2434
:101400008A157230840083138A11DB258A15013016
:101410000317C2008A110313CD208A158316081002
:101420000130831288066E2A831686158312861968
:101430006E2A3B080317BF00C1016130C0008A114A
:101440000313F8258A150030781C01300317BD00FE
:1014500003133B080317BE003D08BF00C101613004
:10146000C0008A11031311268A150D300317C1001D
:101470000230C2008A110313A1238A150230031718
:10148000BD009630C2008A110313CD208A150317C0
:10149000BD0B412A03133B080317BF00C101613094
:1014A000C0008A110313F8258A150030781801301E
:1014B0000317BD00C201C101C0013D08BF000A30D1
:1014C000C300C5017230C4008A110313BB248A15FE
:1014D0007230840083138A11DB258A158A29722AC7
:1014E000DF10B9018A110A12922E0A108A140A1109
:1014F000820707286E286F29702A03081F39830086
:1015000083160317871508300313990002309A00D9
:10151000A6309800903083129800FF30B100B801D7
:10152000B901BA01BB01DA01DB015F10DF105F1105
:10153000DF115F12831603170908C03989000313EE
:101540001F129F1200300317880083128701880141
:10155000890183130313AB01AC01E001E1012030E9
:10156000E400E501E3016430E2002030E800E90135
:10157000E7016830E60053308316AE00AF01493012
:10158000B0004430B100B2015330B3005F30B4005A
:101590005330B500B6014C30B7004530B8004E307E
:1015A000B9004730BA004830BB005430BC00BD0120
:1015B0004E30BE004830BF004930C0004530C10049
:1015C0005430C2004430C3004F30C400C501433022
:1015D000C6004830C7004530C8004330C9004B3012
:1015E000CA005330CB005530CC004D30CD00CE0179
:1015F0002330CF00D001A101AE30A000A301B03054
:10160000A200A501B330A400A701B730A600A9012C
:10161000BE30A800AB01C630AA00AD01CF30AC008F
:1016200053308312031790009101493092004430E7
:1016300093009401433095005F3096004630970048
:1016400098014C30990045309A004E309B0047304D
:101650009C0048309D0054309E009F014930A000FE
:101660004430A1005F30A200A3014430A400453003
:10167000A5005630A6004930A7004330A8004530E9
:10168000A9003130AA003230AB003330AC00343026
:10169000AD00AE015330AF004530B0004E30B10068
:1016A0005330B2004F30B3005230B4003130B50087
:1016B0003230B6003330B7003430B800B9012330CF
:1016C000BA00BB01013083160313D2001030D100E1
:1016D0000130D4001230D3000130D6001530D500CF
:1016E0000130D8001930D7000130DA002030D9009D
:1016F0000130DC002430DB000130DE002F30DD0063
:101700000130E0003A30DF0032308312EA00373037
:10171000EB00EC013230ED003730EE00EF013030FD
:10172000F000F101F200F301FB00FC01F5017B3058
:10173000F400003083168800FF30860009108910FD
:1017400009118911803087008312B1001F179F1380
:1017500083169F1783121F14831603170908C039B5
:10176000890003131F129F12013003178800831290
:1017700003138B160B160B16831601138C16C03031
:1017800083128B04353090008E010B308F00DC30DB
:101790008E000C108A11E7298A15B9015F10DF103D
:1017A0008316880183128801DB010317BD018A11AA
:1017B00003134D2A8A15B5017808B4005F1CE42B89
:1017C0008A11332E8A15862CDF1CEA2B8A11F22E01
:1017D0008A15862C8A11A92F8A15B508031DF42BAA
:1017E00034081A3C0318552C0317C201C101031316
:1017F00035080317C000031334080317BF000A306D
:10180000C300C5016A30C4008A110313BB248A15C2
:101810008316A9016A30A80083120317C201C1010F
:10182000031337080317C000031336080317BF005C
:101830000A30C300C5016D30C4008A110313BB24F4
:101840008A158316AB016D30AA0083120317BC0101
:101850003C08073C031C492C03103C0DA03E8400AF
:101860008313840A0008BE0084030008BD008400BE
:1018700083133E1883178A110313D4268A15013067
:101880000317C2008A110313CD208A150317BC0A5F
:10189000282C0430BD00FA30C2008A110313CD2079
:1018A0008A150317BD0B4B2C03135B0B862CDB0136
:1018B00030303D02DC0030303E02403EDD00303052
:1018C0003F02DE008A11C12F8A1539085C02031D10
:1018D000862CDE08031D6E2C00306F2C0130F700C3
:1018E0005D080317BE007708BF00C101C0018A115F
:1018F000031311268A155D080317BE00BF01C1013D
:101900008030C0008A11031311268A15D52B63007D
:04400E00E22FFF3F5F
:00000001FF
;PIC16F887
;CRC=8A3E  CREATED="19-Oct-21 20:47"
