:1000000010308A0000280000FF00030E8301A100C9
:100010000A08A0008A010408A2007708A300780853
:10002000A4007908A5007A08A60003170D08031399
:10003000A70003170F080313A80003170C080313E6
:10004000A90003170E080313AA00831383120B1EC3
:100050002B288B1852288C308400801E31288C1A53
:100060005528220884002308F7002408F8002508F2
:10007000F9002608FA00270803178D000313280843
:1000800003178F000313290803178C0003132A0892
:1000900003178E00031320088A00210E8300FF0E31
:1000A0007F0E09008A110A12E2288A110A12172902
:1000B0000A108A100A118207003400340A108A10CC
:1000C0000A118207303400340A108A100A1182079C
:1000D00000340A108A100A1182075F340034492262
:1000E0003A102010201020102010201020100000A6
:1000F000C422D624C3223A10201020102010201031
:1001000020100001D322CE294F293A1020102010B0
:100110002010201000014922DF23571D2010301825
:100120003018200020102010201020105F10201008
:100130002000201020105F1020102000C3274E2325
:10014000C9233A102010201020102000C320D322F1
:100150003A1020102010201020102000A016A024FB
:10016000441020102010201020100001A016202282
:10017000452BC921C529201020100001A016A02957
:100180004527D327D229201020100001A016A02433
:1001900044102D10C72B3A1020102000C3274E23E7
:1001A000C92320224F2745102010201020102000A6
:1001B000C3274E23C92320224F274510201020108B
:1001C0002010200083160317AF0103138614831237
:1001D000861801290C1CFC28831608110430831290
:1001E00088060C108E010B308F00DC308E008316D9
:1001F0000317AF0A8312031383160317E52883122C
:100200000313831603172F08143C03180E2901301B
:10021000F5060230F5067515F51111297511F51160
:100220007512831203138B108A110A123128413080
:100230003C07840083138C1E1B291A088000413060
:100240003C078400831300082E3C031D30294130F5
:100250003C07840083138001BC010130BD003129BB
:10026000BC0A8C128A110A12312868308400831764
:100270000008031948290630F800F701F70B3E295A
:10028000F80B3D297B30F700F70B4429800B3B2905
:10029000080003176F18502903130710522903177A
:1002A00003130714311031088316870083120317D4
:1002B000EF185E29031387106029031703138714AF
:1002C000B110310883168700831203176F196C2948
:1002D000031307116E290317031307153111310892
:1002E0008316870083120317EF197A2903138711E6
:1002F0007C29031703138715B11131088316870072
:10030000000083120914831609100230F700F70B5E
:1003100087298A2900008312091083160910831285
:100320000800831603179001831203133114310858
:1003300083168700003083120718013083160317D5
:10034000900483120313B114310883168700003020
:10035000831287180130F7000310F70D7708831612
:100360000317900483120313311531088316870095
:100370000030831207190130F700F70DF70DFC303C
:10038000F705770883160317900483120313B1153A
:100390003108831687000030831287190130F70077
:1003A000F70DF70DF70DF830F705770883160317EB
:1003B00090041008F8008312031308008316091034
:1003C0008910091183128910831689100714871464
:1003D000071587158312091583160911000083126A
:1003E000091483160910000083129121780803175D
:1003F000EF0003130910831609100000831209147B
:1004000083160910032A042A000083129121780818
:100410000317EE000313091083160910831231101D
:100420003108831687008312B110310883168700C4
:10043000831231113108831687008312B1113108FC
:1004400083168700831203176F0EF700F030F7054D
:1004500077086E04F8007808EE00EE1F322A831643
:100460000313E629EC08031D392A031389103B2ADC
:1004700003170313891483168910000083120911CE
:1004800083160911000083120910831609108312C4
:1004900003176D0EEE000F30EE056E08EF0003132C
:1004A000492103176D080F39EE00EF0003134921AE
:1004B000080028300317E4000C30E5000130E600A6
:1004C0000630E70003130910831609108312891000
:1004D00083168910831209118316091183123110B2
:1004E0003108831687008312B11031088316870004
:1004F000831231113108831687008312B11131083C
:10050000831687000910891009110F308312031711
:10051000E8000313352101300317E3006308033CAF
:10052000031C9E2A0330EF000313492105300317F3
:10053000E800031335210317E30A8E2A0230EF0087
:100540000313492105300317E8000313352103176E
:10055000E3016308033C031CBB2A64306307840087
:1005600083170008E800EC016808ED000313DE21A2
:100570000317E30AA92A03138A110A16C9290317C4
:10058000630DF700F70DFC30F70503131F08C3399F
:1005900077049F00B301B2010317E4016408633CD0
:1005A000031CE62A03139F149F18D42A83161E08DF
:1005B0008312B2071E0803181E0FB307013003177A
:1005C000E800031335210317E40ACE2A0313330886
:1005D0000317E600031332080317E5008E30F70017
:1005E0006608F8006508F900FA01F808031D022BF7
:1005F0007908F800F9010830F702F808031D022B0A
:10060000F7010A2B0310F81B092BF90DF80DF7035E
:10061000022BF8137A08E8007908E7007808E6006A
:100620007708E5009A30EC009930EB004C30EA0096
:100630008630E900650803190C2C83169400831298
:10064000690803190C2C83169402031C2E2B7F308F
:100650009407031C2D2B83120C2C382B8130940211
:100660000318342B83120C2C031D382B83120C2CF3
:100670001408F700F801F901FA01930183126608E2
:1006800083169200921783126708831691008312D3
:100690006808831690001930940083126C08831642
:1006A00090020318652B013091020318652B92020A
:1006B0000318652B93020318652B930A920A910A7B
:1006C00083126C0883169007A32B83126B08831682
:1006D00091020318862B013092020318862B930295
:1006E0000318862B930A920A83126B0883169107CC
:1006F00083126C0883169007031CA32B910A031D19
:10070000A32B920A031DA32B930AA32B83126A081F
:100710008038831692020318A22B0130930203182B
:10072000A22B930A83126A088038831692078312D9
:100730006B0883169107031C782B920A031D782BF4
:10074000930A782B7A14940BA62BB12B0310900DDF
:10075000910D920D930D0310FA0DF90DF80D950DF5
:100760004D2B151CB92B0310F80CF90CFA0C950C39
:10077000BD2BF70BBD2B83120C2C951BEC2B031000
:10078000900D910D920D930D83126C0883169002BB
:100790000318D42B013091020318D42B92020318B2
:1007A000D42B9302031CFD2B83126B08831691023A
:1007B0000318E12B013092020318E12B9302031C72
:1007C000FD2B83126A088038831692020318EC2BE3
:1007D00001309302031CFD2BFA0A031DFD2BF90ABD
:1007E000031DFD2BF80A031DFD2BF70A031DFA2B31
:1007F00083120C2CF80CF90CFA0C83126608831681
:10080000940083126A0883169406941F092CF81723
:10081000112CF813112C8312F701F801F901FA01D8
:1008200083167A088312E8007908E7007808E60062
:100830007708E5008E30F7006508F7026608F900D2
:100840006708F800F917F7080319312C0310F908A5
:10085000031D2D2CF8080319312CF90CF80CF70B9B
:10086000262CE61F382CF809F909F80A0319F90AA9
:1008700079080313B3007808B2003208F8008A112F
:100880000A16D8290317690B462C492C4030EA0078
:100890004A2CEA0101306802EA076A088038EB0056
:1008A000EC016B08ED000313DE2108000317670855
:1008B000073A03130319662C0B3A03196D2C063AF9
:1008C0000319792C023A0319812C882C0130031763
:1008D000E800E900031342248F2C0317EC010130D8
:1008E000ED000313DE2102300317E8000313352166
:1008F0008F2C01300317E8000230E9000313422473
:100900008F2C0317EC011030ED000313DE218F2C28
:1009100001300317EC006708ED000313DE21080027
:100920000B080317E40003138B13831603178C17AC
:100930000C14000000008312E41FA12C03138B177A
:1009400003170C087F390319DE2CE4000D08E500BD
:100950000F08E6006408E700031356240317650830
:100960008D0066088F0003130B080317E7000313BD
:100970008B13831603178C170C14000000008312CE
:10098000E71FC52C03138B1703170C0D0E0D7F39B2
:100990000319DE2CE4000D08E5000F08E6006408EA
:1009A000E70003135624031765088D0066088F00BF
:1009B0008D0A03198F0A0313902C031703130800E1
:1009C0008318E52CA43084008317831603171F08AF
:1009D00023068039A9009F1FF82C9C099D099E09B8
:1009E0009F099C0A03199D0A03199E0A03199F0A6D
:1009F000A31F052DA009A109A209A309A00A031993
:100A0000A10A0319A20A0319A30AF701F801F901BF
:100A1000FA01A401A501A601A701230822042104CB
:100A200020040319432D2030A80003109C0D9D0DB8
:100A30009E0D9F0DA40DA50DA60DA70D2308270241
:100A4000031D2C2D22082602031D2C2D2108250212
:100A5000031D2C2D20082402031C3D2D2008A40278
:100A60002108031C210FA5022208031C220FA60245
:100A70002308031C230FA7020314F70DF80DF90D2B
:100A8000FA0DA80B152DA91F502DF709F809F90922
:100A9000FA09F70A0319F80A0319F90A0319FA0AF5
:100AA00024088000840A25088000840A2608800023
:100AB000840A270880008312031308000317EF013C
:100AC000EE01ED010130EC008316910192018312D9
:100AD000E81FB42D01308316910083126808831635
:100AE00097008312670883169600831266088316A0
:100AF00095008312650883169400FF309B009A00CE
:100B0000990098002030A0009C019D019E019F014A
:100B10001708FA001608F9001508F8001408F7007D
:100B20000310771CA12D18089C0719080318190F2A
:100B30009D071A0803181A0F9E071B0803181B0F9E
:100B40009F079F0C9E0C9D0C9C0CFA0CF90CF80C4A
:100B5000F70CA00B902D7A088312E8007908E700C3
:100B60007808E6007708E500EC08031DC02DED08C5
:100B7000031DC02DEE08031DC02DEF0803195A2ECA
:100B80008310680883169F008312670883169E00EF
:100B90008312660883169D008312650883169C00E5
:100BA000A301A201A101831269088316A000831288
:100BB0000313E0247A080317EF007908EE007808A1
:100BC000ED007708EC008316120883126A07F8001C
:100BD0006B08FA000318FA0A7808831694007A085A
:100BE00095009701040896001710831B17148314AF
:100BF0009830840083178312680883169F0083123D
:100C0000670883169E008312660883169D00831270
:100C1000650883169C00A301A201A1018312690843
:100C20008316A00083120313E0248316031716080B
:100C3000840083131718831730301807F70019083A
:100C4000F800003003180130F8071A08F9000030E6
:100C500003180130F9071B08FA00003003180130AF
:100C6000FA07140884008313151883177708800087
:100C7000120883126A07840083136B188317000815
:100C8000393C03184E2E8316120883126A0784001B
:100C900083136B1883170730000780008316920AAE
:100CA00083126F08E8006E08E7006D08E6006C0824
:100CB000E500B42D8316110B682E120883126A0703
:100CC000840083136B1883172D3080008316920ADB
:100CD00090010310120C10020318A62E10088312A4
:100CE0006A07840083136B18831700088316930028
:100CF000100883126A07F8006B08FA000318FA0A52
:100D00007808831694007A08950010081202FF3EB6
:100D100083126A07840083136B18831700088316F5
:100D20009600140884008313151883171608800092
:100D300010081202FF3E83126A07840083136B18A7
:100D40008317831613088000900A692E12088312F5
:100D50006A07840083136B18831780016A08F80000
:100D60006B08F9000313080080080319D02E03173D
:100D7000E5010408E4006510831B65140008E70022
:100D8000031356240317640884008313651883171C
:100D9000840A031DCE2E0313850A03170313B42EF2
:100DA0000800031765080739F700650CF800F80C10
:100DB000F80C1F30F805780866078400831367185D
:100DC00083170008F800F70AE62EF80CF70BE52E5B
:100DD00003130800031764080739F700640CF800D0
:100DE000F80CF80C1F30F8057808660784008313A8
:100DF00067188317F801F80AF70AFF2EF80DF70BAA
:100E0000FE2EE5080319072F780880040A2FF80939
:100E1000780880050313080003176608EA006508D0
:100E2000E9006A08FA006908840083137A188317B6
:100E3000800803191F2FE90A0319EA0A112F68080D
:100E4000FA006708840083137A188317800803194F
:100E50003E2F670884008313681883170008ED008D
:100E60006908840083136A1883176D088000E90AF3
:100E70000319EA0AE70A0319E80A1F2F6908840020
:100E800083136A18831780016508F8006608F90063
:100E900003130800F51501300317E800E9000313F8
:100EA00042240A300317E800031335219E3003174C
:100EB0008D0000308F000313902401300317E800E9
:100EC0000230E900031342240A300317E800031339
:100ED0003521A63003178D0000308F0003139024B6
:100EE000F51DC92F8316061583120619C82FB80AD7
:100EF0000330B80502300317E3009630E80003130F
:100F000035210317E30B7D2F0630E8000230E9009E
:100F1000031342240317E801E701E601031338082D
:100F20000317E5000A30E9000130EB004E30EA001B
:100F300003135E250A300317E800031335214E30F2
:100F400084008317B4263808FC3E0318C82F043EDB
:100F5000D12FAE3003178D0000308F000313902483
:100F6000C82FB63003178D0000308F000313902474
:100F7000C82FBE3003178D0000308F00031390245C
:100F8000C82FC63003178D0000308F000313902444
:100F9000702F7519CE2F8A1500288A118A110A160A
:100FA000E0290A148A140A158207A92FB12FB92F34
:100FB000C12F80080319F62F0317E7010408E60084
:100FC0006710831B6714000803130C1EE52F99009C
:100FD000031766088400831367188317840A031DA8
:0E0FE000F42F0313850A03170313D92F0800FB
:1010000075113808FC3E0318B22B043EB52B751140
:10101000751601300317E8000230E9008A11031346
:1010200042248A150A300317E8008A110313352178
:101030008A156F3003178D0000308F008A1103135B
:1010400090248A15751E6D288316061583120619BD
:101050006C28B90A39080F3C031CB9010230031788
:10106000E3009630E8008A11031335218A1503172F
:10107000E30B3128E801E701E60103133908031700
:10108000E5000A30E900EB01EC30EA008A110313B5
:101090005E258A1509300317E8000230E9008A113D
:1010A000031342248A150A300317E8008A11031338
:1010B00035218A15EC30840083138A11B4268A15F1
:1010C00001300317E8008A11031335218A158316AE
:1010D00008100130831288062228B22B751175166C
:1010E00001300317E8000230E9008A11031342249B
:1010F0008A150A300317E8008A11031335218A156F
:10110000783003178D0000308F008A11031390246C
:101110008A15751E782983160615831206191C294F
:10112000BA0A3A08073C031CBA0102300317E3006D
:101130009630E8008A11031335218A150317E30B53
:101140009828E801E701E60103133A080317E500D0
:101150000A30E9000130EB004E30EA008A11031337
:101160005E258A1509300317E8000230E9008A116C
:10117000031342248A150A300317E8008A11031367
:1011800035218A154E30840083178A11B4268A15BA
:1011900001300317E8008A11031335218A15203026
:1011A0000317E7008A11031356248A153A300317F0
:1011B000E7008A11031356248A1520300317E7002D
:1011C0008A11031356248A1501300317E8008A1187
:1011D000031335218A153A080317E500E701763035
:1011E000E6008A110313D1268A15003078180130E1
:1011F0000317E300E801E701E6016308E5000A30B0
:10120000E9000130EB004E30EA008A1103135E253D
:101210008A154E30840083178A11B4268A1501304E
:101220000317E8008A11031335218A158316081065
:101230000130831288067729831686158312861952
:1012400077293A080317E500E7017630E6008A11AE
:101250000313D1268A150030781C01300317E300F0
:1012600003133A080317E4006308E500E70176304A
:10127000E6008A110313EA268A150D300317E800E9
:101280000230E9008A11031342248A150230031741
:10129000E3009630E8008A11031335218A150317FD
:1012A000E30B492903133A080317E500E7017630F9
:1012B000E6008A110313D1268A1500307818013010
:1012C0000317E300E801E701E6016308E5000A30DF
:1012D000E9000130EB004E30EA008A1103135E256D
:1012E0008A154E30840083178A11B4268A158928FE
:1012F000B22B7511751601300317E8000230E900B2
:101300008A11031342248A150A300317E8008A1150
:10131000031335218A15823003178D0000308F00AA
:101320008A11031390248A15751E832A83160615C5
:1013300083120619272ABB0A3B08033C031CBB0186
:1013400002300317E3009630E8008A1103133521B9
:101350008A150317E30BA329E801E701E60103134C
:101360003B080317E5000A30E9000130EB004E307E
:10137000EA008A1103135E258A1509300317E80075
:101380000230E9008A11031342248A150A30031738
:10139000E8008A11031335218A154E308400831723
:1013A0008A11B4268A1501300317E8008A11031345
:1013B00035218A1520300317E7008A1103135624BC
:1013C0008A153A300317E7008A11031356248A1549
:1013D00020300317E7008A11031356248A150130C1
:1013E0000317E8008A11031335218A153B080317F8
:1013F000E500E7017B30E6008A110313D1268A1548
:101400000030781801300317E300E801E701E60136
:101410006308E5000A30E9000130EB004E30EA00D5
:101420008A1103135E258A154E30840083178A11B2
:10143000B4268A1501300317E8008A1103133521F9
:101440008A1583160810013083128806822A8316B3
:10145000861583128619822A3B080317E500E701E7
:101460007B30E6008A110313D1268A150030781CE0
:1014700001300317E30003133B080317E40063087C
:10148000E500E7017B30E6008A110313EA268A159E
:101490000D300317E8000230E9008A1103134224DB
:1014A0008A1502300317E3009630E8008A1103130F
:1014B00035218A150317E30B542A03133B0803173E
:1014C000E500E7017B30E6008A110313D1268A1577
:1014D0000030781801300317E300E801E701E60166
:1014E0006308E5000A30E9000130EB004E30EA0005
:1014F0008A1103135E258A154E30840083178A11E2
:10150000B4268A159429B22B0317E301E401E501FF
:101510004330840083176408840765088A11031325
:1015200058208A158000003803199B2A0317E50A02
:10153000E40A882A03130317E401E5015630840006
:1015400083176408840765088A1103135E208A15CF
:10155000800000380319B12A0317E50AE40A9E2A1D
:1015600003137511751601300317E8000230E90006
:101570008A11031342248A150A300317E8008A11DE
:10158000031335218A158B3003178D0000308F002F
:101590008A11031390248A1501300317E800E9002B
:1015A0008A11031342248A15923003178D000030EC
:1015B0008F008A11031390248A15751E7F2B8316C2
:1015C000061583120619092B0317E30A0330E305F6
:1015D00005306307E400E8000130E9008A110313D5
:1015E00042248A15993003178D0000308F008A112C
:1015F000031390248A1502300317E4009630E800A4
:101600008A11031335218A150317E40BFE2A7D2B5B
:10161000031383168615831286197E2B4A3003170F
:10162000630784008317800A4A306307F80001309B
:10163000FA000318FA0A7808E4007A08E5004A304C
:101640006307840083170008E7000A30E800680891
:10165000F801670203182F2B6708F7003B2BF701EF
:101660000830E900E70DF70D680877020318F70066
:10167000F80DE90B322B7708E60064088400831329
:1016800065188317660880004A3063078400831753
:101690000008E400E801E701E6016408E5000A301B
:1016A000E9000130EB005630EA008A1103135E2591
:1016B0008A15093003176307E400E8000230E900E7
:1016C0008A11031342248A150A300317E8008A118D
:1016D000031335218A155630840083178A11B426E6
:1016E0008A1502300317E4009630E8008A110313CC
:1016F00035218A150317E40B742B0313DD2A031716
:10170000E3016308033C031CB12B4A3063078400E8
:1017100083170008E400E801E701E6016408E5003A
:101720000A30E9000130EB005630EA008A11031359
:101730005E258A1501300317E8008A11031335214D
:101740008A1501300317E6004330E5000130E80058
:101750005630E7008A1103130C278A150317E30A92
:10176000812B03138A110A12CD2F0A148A140A112D
:10177000820707286E287929842AF511751201300D
:101780008316DF004330DE00023083120317E800C7
:101790008A11031335218A158316E101EC30E0002C
:1017A000023083120317E8008A11031335218A15CA
:1017B0000317E401E5017C30840083136408840787
:1017C00065088A11031364208A1580000038031904
:1017D000EE2B0317E50AE40ADB2B03130317E401DE
:1017E000E501A230840083136408840765088A1128
:1017F000031364208A15800000380319042C031792
:10180000E50AE40AF12B03130130FA005230840098
:1018100083137A1883178001FA017C3084008313C4
:101820007A18831780010317E4016408073C031C3E
:101830004A2C6408E500E7017630E6008A110313BC
:10184000D1268A15781C472C0317E801E701E60129
:101850006408E5000A30E9000130EB005230EA008C
:101860008A1103135E258A1501300317E8008A11D7
:10187000031335218A150317E6017C30E50001309A
:10188000E8005230E7008A1103130C278A1503176A
:10189000E40A152C0130FA005230840083137A18C0
:1018A000831780010130FA005630840083137A18C0
:1018B00083178001E4016408043C031C912C640834
:1018C000E500E7017B30E6008A110313D1268A1573
:1018D000781C8E2C0317E801E701E6016408E50097
:1018E0000A30E9000130EB005230EA008A1103139C
:1018F0005E258A1501300317E8008A11031335218C
:101900008A1501300317E6005630E5000130E80083
:101910005230E7008A1103130C278A150317E40AD3
:101920005B2C83160313E7017C30E6000230831240
:101930000317E8008A11031335218A150130831635
:10194000E9005630E800FE013130E2003230E300B9
:1019500083120317E3016308083C031CDF2C031008
:10196000630DDC3E84008313840A0008E5008403D1
:101970000008E4006508E7006408E6006708E9007D
:101980006608E8006908FA006808840083137A187A
:10199000831780080319D02CE80A0319E90AC22C1E
:1019A00066086802F7006908FA006708031C670FF9
:1019B000FA027708F8007808FE07E30AAB2C063035
:1019C000FE07E801E701E6017E08E5000A30E900CC
:1019D0000130EB004E30EA008A1103135E258A15B0
:1019E00001308316E3004E30E20083120317E30157
:1019F0006308073C031C162D0310630DDC3E8400B6
:101A00008313840A0008E50084030008E4008400CE
:101A10008313651883178A110313D9278A15403059
:101A20000C1E102D99000317E30AF82C0130E80072
:101A3000E9008A11031342248A150A300317E800CB
:101A40008A11031335218A15CE3003178D0000301B
:101A50008F008A11031390248A1501300317E800C0
:101A60000230E9008A11031342248A150A30031751
:101A7000E8008A11031335218A15D83003178D0029
:101A800000308F008A11031390248A158316A90150
:101A9000EC30A800751183128A110A16E729031782
:101AA000E30163081E3C031C652D83160313881095
:101AB00002308312880664300317E8008A1103138A
:101AC00035218A150317E30A512D03138A110A16CB
:101AD000EF2901300317E800E9008A1103134224BB
:101AE0008A150A300317E8008A11031335218A1575
:101AF0004130840083138A11B4268A1501300317FC
:101B0000E8008A11031335218A158A110A16632AFF
:101B10000317630864040319912D6408FA0063082D
:101B2000962D03132C08FA002B080317E7007A08F8
:101B3000E8006808EC006708EB006608EE0065083E
:101B4000ED006C088316910083126B0883169000D9
:101B50001108FA001008840083137A18831780088C
:101B60000319F72D83126E088316930083126D08F4
:101B7000831692001308FA001208840083137A185F
:101B800083178008031DD52D83126B08831610025E
:101B9000F7001108FA0083126C08031C6C0FFA029C
:101BA0007708F800052EEC2D83161108FA001008AE
:101BB000840083137A18831700088312EF008316BA
:101BC0001308FA001208840083137A188317000898
:101BD00083126F020319F22D8316920A0319930AD6
:101BE000BA2D83128316900A0319910AA82D831225
:101BF0006B0883161002F7001108FA0083126C08B4
:101C0000031C6C0FFA027708F8007808E70703183E
:101C1000E80A6808FA006708840083137A188317B3
:101C20008008031D202E03132B08840083132C1817
:101C30008317203080000030F800F9009A2E031737
:101C40006808EC006708EB006608EE006508ED0028
:101C50006C088316910083126B088316900011089C
:101C6000FA001008840083137A1883178008031978
:101C7000722E83126E088316930083126D088316EA
:101C800092001308FA001208840083137A1883174D
:101C9000800803196E2E1108FA00100884008313BF
:101CA0007A18831700088312EF0083161308FA00CE
:101CB0001208840083137A188317000883126F02B6
:101CC000031D692E83161008F8001108F900752EFF
:101CD00083128316920A0319930A412E900A03195C
:101CE000910A2F2E0030F800F90079088312EA00DB
:101CF0007808E9006A08FA006908840083137A18F2
:101D00008317800803198D2E6908840083136A18CD
:101D100083178001E90A0319EA0A6A080313AC0071
:101D2000031769080313AB0003176708F800680876
:061D3000F9000313080096
:1020000003081F398300831603178715083003134D
:10201000990002309A00A630980090308312980000
:10202000FF30B100B801B901BA01BB01BC01BD016B
:102030007510F5107511F5117512FE018316031751
:102040000908C039890003131F129F1200300317BB
:102050008800831287018801890183130313AB0170
:10206000AC014830C1004930C2004830C30049309B
:10207000C400C501DD004430DE004730DF005730CA
:10208000E000E1014930E2004430E3004E30E4007A
:102090004F30E5004430E6004530E700E8014330CA
:1020A000E9004F30EA004D30EB00EC004130ED002C
:1020B0004E30EE00EF014430F0004130F10054307A
:1020C000F2004130F300F401D6015D30D500D801B3
:1020D0006230D700DA016930D900DC017030DB00F2
:1020E000D630F6000F30FB0020308316A000A1018F
:1020F000FD01A030FC002030A400A501A301A43004
:10210000A2002A30B400B5014930B6004430B7000F
:102110005F30B8004730B9005730BA00BB014930D2
:10212000BC004430BD005F30BE004E30BF004F30B9
:10213000C0004430C1004530C200C3014C30C4006F
:102140004530C5004E30C6004730C7004830C80093
:102150005430C900CA015330CB005F30CC0053303B
:10216000CD00CE015430CF00D0005F30D1006330BD
:10217000D2006130D3006D30D4006230D5006930B8
:10218000D6006530D7006E30D800D9012330DA0090
:10219000DB01A701B430A600A901B630A800AB014D
:1021A000BC30AA00AD01C430AC00AF01CB30AE00F2
:1021B000B101CF30B000B301DA30B2002A3083125F
:1021C00003179000910149309200443093005F3032
:1021D0009400473095005730960097014930980099
:1021E000443099005F309A004E309B004F309C0085
:1021F00044309D0045309E009F014C30A00045308A
:10220000A1004E30A2004730A3004830A400543053
:10221000A500A6014330A7005F30A8004630A90002
:10222000AA014430AB004530AC005630AD00493017
:10223000AE004330AF004530B0003130B100323035
:10224000B2003330B3003430B400B5015330B600BF
:102250004530B7004E30B8005330B9004F30BA00A7
:102260005230BB003130BC003230BD003330BE00D4
:102270003430BF00C0012330C100C20101308316D9
:102280000313DD001030DC000130DF001230DE000F
:102290000130E1001830E0000130E3002030E200BE
:1022A0000130E5002730E4000130E7002B30E60084
:1022B0000130E9003630E8000130EB004130EA003F
:1022C0003030EE00EF01ED01EE30EC0030308312E3
:1022D0000317C500C600C700C800C9010130C4000B
:1022E0004530C300CA01CB01CC01CD013030D00054
:1022F000D1010130CF005030CE003030D400D501B4
:102300000130D3005430D2003030D800D901013030
:10231000D7005830D6003230DA003730DB00DC012D
:102320003230DD003730DE00DF010030831603136A
:102330008800FF308600091089100911891180304A
:1023400087008312B1001F179F1383169F178312F4
:102350001F14831603170908C039890003131F12BD
:102360009F12013003178800831203138B160B167C
:102370000B16831601138C16C03083128B04353074
:1023800090008E010B308F00DC308E000C100A1292
:10239000592A0A16B90175107511F51483168801AA
:1023A00083128801BD010317E3010A120313BF2A38
:1023B0000A16B5017808B400751CE2290A124A2FE2
:1023C0000A16EE2A751DEA290A128A15BD2B0A166D
:1023D0008A11EE2A7518EE2A0A128A154F2D0A164E
:1023E0008A11B508031DF82934081A3C03185D2A20
:1023F0000317E801E701031335080317E600031389
:1024000034080317E5000A30E9000130EB005A30C8
:10241000EA000A1203135E250A1601308316AF0084
:102420005A30AE0083120317E801E701031337089F
:102430000317E600031336080317E5000A30E90026
:102440000130EB005D30EA000A1203135E250A1624
:1024500001308316B1005D30B00083120317E00134
:102460006008073C031C512A0310600DA63E84003F
:102470008313840A0008E40084030008E300840056
:102480008313641883170A120313D9270A1601301D
:102490000317E8000A12031335210A160317E00A8E
:1024A000302A0430E300FA30E8000A120313352121
:1024B0000A160317E30B532A03133D0BED2ABD0144
:1024C0000A128A15692D0A168A110317E301E4011D
:1024D0005630840083176308840764080A120313C4
:1024E00069200A168000003803197B2A0317E40AC2
:1024F000E30A682A03130317E4014130E3000130C3
:10250000E6005630E5000A128A15031388250A16DC
:102510008A1179080317E2007808E1000130E80029
:102520000230E9000A12031342240A160317E108D5
:10253000031D9D2AE2080319CB2A0430E300FA3078
:10254000E8000A12031335210A160317E30B9F2A2A
:10255000610884008313621883170A120313B426D8
:102560000A1601300317E8000A12031335210A1670
:102570000317E401E3010130E6005630E5000A12DA
:102580008A15031388250A168A1179080317E200B1
:102590007808E100972A031339083E02031DED2A4B
:1025A000C008031DD52A0030D62A0130F7003F08A5
:1025B0000317E4007708E500E701E6010A120313B8
:1025C000EA260A163F080317E400E501E701803018
:1025D000E6000A120313EA260A16EA29D329630041
:04400E00E22FFF3F5F
:00000001FF
;PIC16F887
;CRC=E861  CREATED="25-Oct-21 02:19"
