:100000000B308A00DB2B0000FF00030E8301A100F0
:100010000A08A0008A010408A2007708A300780853
:10002000A4007908A5007A08A60003170D08031399
:10003000A70003170F080313A80003170C080313E6
:10004000A90003170E080313AA00831383120B1EC3
:100050002B288B1852288C308400801E31288C1A53
:100060005528220884002308F7002408F8002508F2
:10007000F9002608FA00270803178D000313280843
:1000800003178F000313290803178C0003132A0892
:1000900003178E00031320088A00210E8300FF0E31
:1000A0007F0E09008A110A127E288A110A12AD28D1
:1000B0000A108A100A11820700340A108A100A11E5
:1000C00082072A3400340A108A100A118207403449
:1000D000003449223A100000C422D624C3223A1028
:1000E0000001D322CE294F293A100001C3274E2305
:1000F000C9230001C320D3223A1000000317DC01FA
:100100008316031386148312861899280C1C9628CC
:10011000831608110430831288060C108E010B30F0
:100120008F00DC308E000317DC0A031303178028CE
:10013000031303175C081E3C0318A52801300313A2
:10014000DF06DF145F11A92803170313DF105F1107
:10015000DF118B108A110A1231283C305A078400B3
:1001600083138C1EB1281A0880003C305A07840083
:10017000831300082E3C031DC6283C305A07840018
:1001800083138001DA010130DB00C728DA0A8C1200
:100190008A110A1231283A308400831700080319A3
:1001A000DE280630F800F701F70BD428F80BD32827
:1001B0007B30F700F70BDA28800BD12808000317F3
:1001C0004118E62803130710E82803170313071440
:1001D000311031088316870083120317C118F428E1
:1001E00003138710F628031703138714B11031087F
:1001F000831687008312031741190229031307117D
:1002000004290317031307153111310883168700DA
:1002100083120317C1191029031387111229031719
:1002200003138715B111310883168700000083126C
:100230000914831609100230F700F70B1D29202935
:100240000000831209108316091083120800031797
:10025000C201031331143108831687000030831262
:10026000071801300317C2040313B11431088316B1
:1002700087000030831287180130F7000310F70D54
:1002800077080317C204031331153108831687005A
:100290000030831207190130F700F70DF70DFC301D
:1002A000F70577080317C2040313B1153108831645
:1002B00087000030831287190130F700F70DF70D22
:1002C000F70DF830F70577080317C2044208F80065
:1002D000031308008316091089100911831289106D
:1002E00083168910071487140715871583120915BB
:1002F00083160911000083120914831609100000E7
:100300008312272178080317C100031309108316ED
:100310000910000083120914831609108F299029EF
:1003200000008312272178080317C0000313091067
:100330008316091083123110310883168700831247
:10034000B1103108831687008312311131088316EA
:1003500087008312B11131088316870083120317B7
:10036000410EF700F030F70577084004F8007808F0
:10037000C000C01FBE29831603137229BE08031DC7
:10038000C52903138910C72903170313891483167A
:1003900089100000831209118316091100008312CD
:1003A000091083160910831203173F0EC0000F3087
:1003B000C0054008C1000313DF2003173F080F39B1
:1003C000C000C1000313DF20080028300317B60067
:1003D0000C30B7000130B8000630B9000313091023
:1003E000831609108312891083168910831209114C
:1003F0008316091183123110310883168700831286
:10040000B110310883168700831231113108831629
:1004100087008312B11131088316870009108910F3
:1004200009110F3083120317BA000313CB200130D8
:100430000317B5003508033C031C2A2A0330C1000A
:100440000313DF2005300317BA000313CB20031773
:10045000B50A1A2A0230C1000313DF200530031742
:10046000BA000313CB200317B5013508033C031C66
:10047000472A36303507840083170008BA00BE01CA
:100480003A08BF0003136A210317B50A352A03137C
:100490008A150A12162D0317350DF700F70DFC30DB
:1004A000F70503131F08C33977049F00B301B20196
:1004B0000317B6013608633C031C722A03139F140A
:1004C0009F18602A83161E088312B2071E0803189D
:1004D0001E0FB30701300317BA000313CB20031715
:1004E000B60A5A2A031333080317B8000313320855
:1004F0000317B7008E30F7003808F8003708F90006
:10050000FA01F808031D8E2A7908F800F90108306D
:10051000F702F808031D8E2AF701962A0310F81B2C
:10052000952AF90DF80DF7038E2AF8137A08BA0008
:100530007908B9007808B8007708B7009A30BE008B
:100540009930BD004C30BC008630BB003708031921
:100550006B2BC3003B0803196B2BC302031CB52A8A
:100560007F30C30703186B2BBB2A8130C302031CE7
:100570006B2B03196B2B4308F700F801F901FA0103
:10058000C2013808C100C1173908C0003A08BF00CD
:100590001930C3003E08BF020318DE2A0130C00232
:1005A0000318DE2AC1020318DE2AC2020318DE2A5B
:1005B000C20AC10AC00A3E08BF07102B3D08C0028C
:1005C0000318F92A0130C1020318F92AC2020318DC
:1005D000F92AC20AC10A3D08C0073E08BF07031C2A
:1005E000102BC00A031D102BC10A031D102BC20AB9
:1005F000102B3C088038C10203180F2B0130C202B7
:1006000003180F2BC20A3C088038C1073D08C007F9
:10061000031CED2AC10A031DED2AC20AED2A7A1431
:10062000C30B132B1E2B0310BF0DC00DC10DC20D2C
:100630000310FA0DF90DF80DC40DCA2A441C262B1F
:100640000310F80CF90CFA0CC40C292BF70303194E
:100650006B2BC41B522B0310BF0DC00DC10DC20D5F
:100660003E08BF0203183E2B0130C00203183E2B88
:10067000C10203183E2BC202031C612B3D08C002BD
:100680000318492B0130C1020318492BC202031C75
:10069000612B3C088038C1020318522B0130C20282
:1006A000031C612BFA0A031D612BF90A031D612B40
:1006B000F80A031D612BF70A03196B2BF80CF90CD0
:1006C000FA0C3808C3003C08C306C31F692BF8178F
:1006D0006F2BF8136F2BF701F801F901FA017A0873
:1006E000BA007908B9007808B8007708B7008E30EA
:1006F000F7003708F7023808F9003908F800F91749
:10070000F70803198E2B0310F908031D8A2BF8082C
:1007100003198E2BF90CF80CF70B832BB81F952BB4
:10072000F809F909F80A0319F90A79080313B3005B
:100730007808B2003208F8008A150A12242D03172F
:100740003B0BA32BA62B4030BC00A72BBC010130D8
:100750003A02BC073C088038BD00BE013D08BF001E
:1007600003136A21080003173908073A0313031912
:10077000C32B0B3A0319CA2B063A0319D62B023A9C
:100780000319DE2BE52B01300317BA00BB0003135E
:100790009F23EC2B0317BE010130BF0003136A2116
:1007A00002300317BA000313CB20EC2B01300317E0
:1007B000BA000230BB0003139F23EC2B0317BE01CA
:1007C0001030BF0003136A21EC2B01300317BE0069
:1007D0003908BF0003136A2108000B080317B5008E
:1007E00003138B13831603178C170C1400000000DF
:1007F0008312B51FFE2B03138B1703170C087F39C9
:1008000003193B2CB5000D08B6000F08B7003508DA
:10081000B9000313B323031736088D0037088F0080
:1008200003130B080317B80003138B138316031766
:100830008C170C14000000008312B81F222C031325
:100840008B1703170C0D0E0D7F3903193B2CB500C8
:100850000D08B6000F08B7003508B9000313B3231D
:10086000031736088D0037088F008D0A03198F0A89
:100870000313ED2B0317031308008318422C563083
:10088000840083170317510855068039DB00D11FF8
:10089000542CCE09CF09D009D109CE0A0319CF0AA9
:1008A0000319D00A0319D10AD51F612CD209D30923
:1008B000D409D509D20A0319D30A0319D40A031992
:1008C000D50AF701F801F901FA01D601D701D801DB
:1008D000D901550854045304520403199F2C2030A5
:1008E000DA000310CE0DCF0DD00DD10DD60DD70DE2
:1008F000D80DD90D55085902031D882C54085802EB
:10090000031D882C53085702031D882C52085602D9
:10091000031C992C5208D6025308031C530FD7020C
:100920005408031C540FD8025508031C550FD90254
:100930000314F70DF80DF90DFA0DDA0B712CDB1F0E
:10094000AC2CF709F809F909FA09F70A0319F80AAA
:100950000319F90A0319FA0A56088000840A57088D
:100960008000840A58088000840A59088000031314
:1009700008000317C101C001BF010130BE00C3015F
:10098000C401BA1F032D0130C3003A08C900390859
:10099000C8003808C7003708C600FF30CD00CC00BB
:1009A000CB00CA002030D200CE01CF01D001D1014E
:1009B0004908FA004808F9004708F8004608F70017
:1009C0000310771CF12C4A08CE074B0803184B0F75
:1009D000CF074C0803184C0FD0074D0803184D0FD4
:1009E000D107D10CD00CCF0CCE0CFA0CF90CF80CB2
:1009F000F70CD20BE02C7A08BA007908B900780815
:100A0000B8007708B700BE08031D0F2DBF08031DEF
:100A10000F2DC008031D0F2DC10803198B2D831046
:100A20003A08D1003908D0003808CF003708CE0086
:100A3000D501D401D3013B08D20003133D247A0829
:100A40000317C1007908C0007808BF007708BE000E
:100A500044083C07F8003D08FA000318FA0A780831
:100A6000C6007A08C700C9010408C8004910831BE2
:100A7000491483144A30840083173A08D100390896
:100A8000D0003808CF003708CE00D501D401D301FB
:100A90003B08D20003133D24031748088400831346
:100AA0004918831730304A07F7004B08F800003028
:100AB00003180130F8074C08F90000300318013022
:100AC000F9074D08FA00003003180130FA0746080C
:100AD00084008313471883177708800044083C0775
:100AE000840083133D1883170008393C0318812DB7
:100AF00044083C07840083133D1883170730000720
:100B00008000C40A4108BA004008B9003F08B80094
:100B10003E08B700032D430B962D44083C07840084
:100B200083133D1883172D308000C40AC2010310BF
:100B3000440C42020318CC2D42083C078400831366
:100B40003D1883170008C50042083C07F8003D081F
:100B5000FA000318FA0A7808C6007A08C7004208A3
:100B60004402FF3E3C07840083133D1883170008AE
:100B7000C80046088400831347188317480880007C
:100B800042084402FF3E3C07840083133D1883174C
:100B900045088000C20A972D44083C07840083134F
:100BA0003D18831780013C08F8003D08F900031345
:100BB000080080080319F52D0317B8010408B700D1
:100BC0003810831B38140008B9000313B32303172C
:100BD00037088400831338188317840A031DF32D04
:100BE0000313850A03170313D92D080003173708C9
:100BF0000739F700370CF800F80CF80C1F30F8052F
:100C00007808380784008313391883170008F80020
:100C1000F70A0B2EF80CF70B0A2E03130800031724
:100C200036080739F700360CF800F80CF80C1F30BE
:100C3000F805780838078400831339188317F801FA
:100C4000F80AF70A242EF80DF70B232EB70803191C
:100C50002C2E780880042F2EF809780880050313BD
:100C600008005F1501300317BA00BB0003139F2370
:100C70000A300317BA000313CB20763003178D0018
:100C800000308F000313ED2301300317BA00023048
:100C9000BB0003139F230A300317BA000313CB20B2
:100CA0007A3003178D0000308F000313ED235F1D92
:100CB0008C2E83160615831206198B2EB80A380857
:100CC000033C031CB80102300317B5009630BA008C
:100CD0000313CB200317B50B662E0930BA00023080
:100CE000BB0003139F230317BA01B901B801031313
:100CF00038080317B7000A30BB00BD01DC30BC0068
:100D00000313B9240A300317BA000313CB20DC30D5
:100D100084008313D925572E8A1500288A118A1535
:100D20000A122C2D03173808BC003708BB003C08FA
:100D3000FA003B08840083137A188317800803198C
:100D4000A52EBB0A0319BC0A972E3A08FA003908E7
:100D5000840083137A18831780080319C42E390876
:100D6000840083133A1883170008BF003B088400EF
:100D700083133C1883173F088000BB0A0319BC0A81
:100D8000B90A0319BA0AA52E3B08840083133C183C
:100D9000831780013708F8003808F90003130800AA
:100DA00080080319ED2E0317BA010408B9003A10A0
:100DB000831B3A14000803130C1EDC2E9900031742
:100DC0003908840083133A188317840A031DEB2E15
:100DD0000313850A03170313D02E08000317B50168
:100DE00035081E3C031C022F8316031388100230A3
:100DF0008312880664300317BA000313CB2003174D
:100E0000B50AF02E03138A150A12322D013003178A
:100E1000BA00BB0003139F230A300317BA00031361
:100E2000CB203C3084008313D92501300317BA004E
:0A0E30000313CB208A150A12A62D29
:10100000DF103808FC3E0318802A043E832ADF10D4
:10101000DF1501300317BA000230BB008A11031339
:101020009F238A150A300317BA008A110313CB20B5
:101030008A15693003178D0000308F008A11031361
:10104000ED238A15DF1D6D288316061583120619F8
:101050006C28B90A39080F3C031CB9010230031788
:10106000B5009630BA008A110313CB208A150317F6
:10107000B50B3128BA01B901B801031339080317B8
:10108000B7000A30BB00BD01DA30BC008A1103137F
:10109000B9248A1509300317BA000230BB008A113F
:1010A00003139F238A150A300317BA008A1103130A
:1010B000CB208A15DA30840083138A11D9258A154A
:1010C00001300317BA008A110313CB208A15831647
:1010D00008100130831288062228802ADF10DF15CD
:1010E00001300317BA000230BB008A1103139F239B
:1010F0008A150A300317BA008A110313CB208A1508
:101100006C3003178D0000308F008A110313ED231C
:101110008A15DF1D752983160615831206191A29EB
:10112000BA0A3A08073C031CBA0102300317B5009B
:101130009630BA008A110313CB208A150317B50B1A
:101140009828BA01B901B80103133A080317B70088
:101150000A30BB00BD01DC30BC008A110313B92486
:101160008A1509300317BA000230BB008A11031335
:101170009F238A150A300317BA008A110313CB2064
:101180008A15DC30840083138A11D9258A15013031
:101190000317BA008A110313CB208A153A300317BC
:1011A000B9008A110313B3238A1520300317B9003D
:1011B0008A110313B3238A1520300317B9008A114B
:1011C0000313B3238A1501300317BA008A110313DE
:1011D000CB208A153A080317B700B9016030B80070
:1011E0008A110313F6258A15003078180130031789
:1011F000B500BA01B901B8013508B7000A30BB0023
:10120000BD01DC30BC008A110313B9248A15DC301F
:10121000840083138A11D9258A1501300317BA0077
:101220008A110313CB208A1583160810013083120C
:1012300088067429831686158312861974293A083C
:101240000317B700B9016030B8008A110313F625FF
:101250008A150030781C01300317B50003133A08D3
:101260000317B6003508B700B9016030B8008A111D
:1012700003130F268A150C300317BA000230BB0087
:101280008A1103139F238A1502300317B500963085
:10129000BA008A110313CB208A150317B50B47290F
:1012A00003133A080317B700B9016030B8008A1178
:1012B0000313F6258A150030781801300317B5009E
:1012C000BA01B901B8013508B7000A30BB00BD0149
:1012D000DC30BC008A110313B9248A15DC30840089
:1012E00083138A11D9258A158928802ADF10DF15F2
:1012F00001300317BA000230BB008A1103139F2389
:101300008A150A300317BA008A110313CB208A15F5
:10131000713003178D0000308F008A110313ED2305
:101320008A15DF1D7D2A8316061583120619222AC7
:10133000BB0A3B08033C031CBB0102300317B5008A
:101340009630BA008A110313CB208A150317B50B08
:10135000A029BA01B901B80103133B080317B7006C
:101360000A30BB00BD01DC30BC008A110313B92474
:101370008A1509300317BA000230BB008A11031323
:101380009F238A150A300317BA008A110313CB2052
:101390008A15DC30840083138A11D9258A1501301F
:1013A0000317BA008A110313CB208A153A300317AA
:1013B000B9008A110313B3238A1520300317B9002B
:1013C0008A110313B3238A1520300317B9008A1139
:1013D0000313B3238A1501300317BA008A110313CC
:1013E000CB208A153B080317B700B9016130B8005C
:1013F0008A110313F6258A15003078180130031777
:10140000B500BA01B901B8013508B7000A30BB0010
:10141000BD01DC30BC008A110313B9248A15DC300D
:10142000840083138A11D9258A1501300317BA0065
:101430008A110313CB208A158316081001308312FA
:1014400088067C2A83168615831286197C2A3B0817
:101450000317B700B9016130B8008A110313F625EC
:101460008A150030781C01300317B50003133B08C0
:101470000317B6003508B700B9016130B8008A110A
:1014800003130F268A150C300317BA000230BB0075
:101490008A1103139F238A1502300317B500963073
:1014A000BA008A110313CB208A150317B50B4F2AF4
:1014B00003133B080317B700B9016130B8008A1164
:1014C0000313F6258A150030781801300317B5008C
:1014D000BA01B901B8013508B7000A30BB00BD0137
:1014E000DC30BC008A110313B9248A15DC30840077
:1014F00083138A11D9258A159129802ADF10B90111
:101500008A110A128E2E0A108A140A1182070728DD
:101510006E2876297E2A5F11DF110317B701B80103
:101520006230840083133708840738088A11031354
:1015300058208A15800000380319A32A0317B80A17
:10154000B70A902A03130317B701B8016430840067
:1015500083133708840738088A11031358208A1523
:10156000800000380319B92A0317B80AB70AA62A57
:1015700003130317B701B801DC3084008313370865
:10158000840738088A11031358208A158000003810
:101590000319CF2A0317B80AB70ABC2A0313031783
:1015A000B5013508073C031C042B3508B700B90109
:1015B0006030B8008A110313F6258A15781C012BB8
:1015C0000317BA01B901B8013508B7000A30BB00EA
:1015D000BD01DC30BC008A110313B9248A15013027
:1015E0000317BA008A110313CB208A150317B80119
:1015F0006230B700BA01DC30B9008A1103139226B9
:101600008A150317B50AD12AB701B801DC30840066
:1016100083133708840738088A1103135D208A155D
:10162000800000380319192B0317B80AB70A062BD4
:1016300003130317B8016230B700BA01DC30B900F8
:101640008A11031392268A158316D2016230D100C3
:1016500083120317B701B801DE3084008313370803
:10166000840738088A11031358208A15800000382F
:1016700003193F2B0317B80AB70A2C2B03130317C0
:10168000B5013508073C031C742B3508B700B901B8
:101690006130B8008A110313F6258A15781C712B66
:1016A0000317BA01B901B8013508B7000A30BB0009
:1016B000BD01DE30BC008A110313B9248A15013044
:1016C0000317BA008A110313CB208A150317B80138
:1016D0006430B700BA01DE30B9008A1103139226D4
:1016E0008A150317B50A412BB701B801DE30840013
:1016F00083133708840738088A11031363208A1577
:10170000800000380319892B0317B80AB70A762B13
:1017100003130317B8016430B700BA01DE30B90013
:101720008A11031392268A158316D401DE30D30062
:10173000CA01DA30C90083120317B6013608073C24
:10174000031CBF2B0310360DC73E84008313840A8D
:101750000008B80084030008B70084008313381819
:1017600083178A110313D0268A1501300317BA0094
:101770008A110313CB208A150317B60A9E2B01305A
:10178000BA000230BB008A1103139F238A150A3066
:101790000317BA008A110313CB208A156230840024
:1017A00083138A11D9258A15E901DA30E800DF10A0
:1017B0008A150A12302D03081F3983008316031778
:1017C000871508300313990002309A00A63098005C
:1017D000903083129800FF30B100B801B901BA010E
:1017E000BB01DA01DB015F10DF105F11DF1183162F
:1017F00003170908C039890003131F129F12003014
:10180000031788008312870188018901831303135A
:10181000AB01AC01E001E1012030E200E301E400B2
:10182000E50153308316A000A1014930A2004430E5
:10183000A300A4015330A5005F30A6005330A700D9
:10184000A8014C30A9004530AA004E30AB0047300B
:10185000AC004830AD005430AE00AF014430B000B1
:101860004130B1005430B2004130B3003130B400E7
:10187000B5014430B6004130B7005430B8004130B3
:10188000B9003230BA00BB014330BC004830BD0063
:101890004530BE004330BF004B30C0005330C10064
:1018A0005530C2004D30C300C4012330C500C6010D
:1018B0008312E701A030E600E901A230E800EB0165
:1018C000A530EA00ED01A930EC00EF01B030EE00E8
:1018D000F101B630F000F301BC30F200F501C53083
:1018E000F4005330031790009101493092004430C6
:1018F00093009401433095005F3096004630970086
:1019000098014C30990045309A004E309B0047308A
:101910009C0048309D0054309E009F014930A0003B
:101920004430A1005F30A200A3014430A400453040
:10193000A5005630A6004930A7004330A800453026
:10194000A900AA015330AB004530AC004E30AD00C9
:101950005330AE004F30AF005230B000B1012330F1
:10196000B200B301013083160313C8001030C70062
:101970000130CA001230C9000130CC001530CB0054
:101980000130CE001930CD000130D0002030CF0022
:101990000130D2002430D1000130D4002B30D300EC
:1019A0000130D6003230D500FB003730FC00FD019D
:1019B0003230D7003730D800D9013030DA00DB01BF
:1019C000DC00DD01DE00DF0100308800FF30860032
:1019D0000910891009118911803087008312B10024
:1019E0001F179F1383169F1783121F148316031745
:1019F0000908C039890003131F129F120130031711
:101A00008800831203138B160B160B168316011313
:101A10008C16C03083128B04353090008E010B3051
:101A20008F00DC308E000C108A11E5298A15B9016F
:101A30005F10DF108316880183128801DB01031712
:101A4000B5018A1103134B2A8A15B5017808B40031
:101A50005F1C2E2D8A11312E8A15302DDF188B2A0E
:101A60008A11EE2E8A15B508031D3A2D34081A3C4A
:101A70000318972D0317BA01B9010313350803178B
:101A8000B800031334080317B7000A30BB00BD01C8
:101A90007B30BC008A110313B9248A15EF017B3017
:101AA000EE000317BA01B901031337080317B80092
:101AB000031336080317B7000A30BB00BD01D73047
:101AC000BC008A110313B9248A15F101D730F00044
:101AD0000317B4013408073C031C8B2D0310340D8D
:101AE000663E84008313840A0008B600840300085D
:101AF000B50084008313361883178A110313D02688
:101B00008A1501300317BA008A110313CB208A15F6
:101B10000317B40A6A2D0430B500FA30BA008A11EE
:101B20000313CB208A150317B50B8D2D03135B0B05
:101B3000C82DDB0130303D02DC0030303E02403E3B
:101B4000DD0030303F02DE008A11062F8A15390889
:101B50005C02031DC82DDE08031DB02D0030B12D21
:101B60000130F7005D080317B6007708B700B90128
:101B7000B8018A1103130F268A155D080317B600F2
:101B8000B701B9018030B8008A1103130F268A15F6
:041B90001F2D6300A2
:04400E00E22FFF3F5F
:00000001FF
;PIC16F887
;CRC=C825  CREATED="17-Oct-21 00:45"
