:100000000B308A00F62B0000FF00030E8301A100D5
:100010000A08A0008A010408A2007708A300780853
:10002000A4007908A5007A08A60003170D08031399
:10003000A70003170F080313A80003170C080313E6
:10004000A90003170E080313AA00831383120B1EC3
:100050002B288B1852288C308400801E31288C1A53
:100060005528220884002308F7002408F8002508F2
:10007000F9002608FA00270803178D000313280843
:1000800003178F000313290803178C0003132A0892
:1000900003178E00031320088A00210E8300FF0E31
:1000A0007F0E09008A110A12B6288A110A12E52861
:1000B0000A108A100A1182072A3400340A108A10A2
:1000C0000A118207403400340A108A100A1182078C
:1000D000003449223A102010201020102010201047
:1000E00020100000C422D624C3223A102010201071
:1000F000201020100001D322CE294F293A102010C1
:100100002010201020100001C3274E23C9233A10CD
:1001100020102010201020100001C320D3223A10FC
:100120002010201020102010201000012D10492236
:100130002010201020002D10C422D624C3225300EA
:100140002D10D322CE294F2953002D10D222D32295
:1001500054102000C3274E23C92320224F274500D7
:10016000C3274E23C92320224F2745000317E4014C
:1001700083160313861483128618D1280C1CCE28EC
:10018000831608110430831288060C108E010B3080
:100190008F00DC308E000317E40A03130317B8281E
:1001A000031303176408143C0318DD2801300313FC
:1001B000DF06DF145F11E12803170313DF105F115F
:1001C000DF118B108A110A1231283C305A07840043
:1001D00083138C1EE9281A0880003C305A078400DB
:1001E000831300082E3C031DFE283C305A07840070
:1001F00083138001DA010130DB00FF28DA0A8C1258
:100200008A110A123128423084008317000803192A
:1002100016290630F800F701F70B0C29F80B0B290B
:100220007B30F700F70B1229800B09290800031710
:1002300049181E2903130710202903170313071455
:10024000311031088316870083120317C9182C292F
:10025000031387102E29031703138714B1103108D5
:10026000831687008312031749193A2903130711CC
:100270003C29031703130715311131088316870032
:1002800083120317C9194829031387114A29031731
:1002900003138715B11131088316870000008312FC
:1002A0000914831609100230F700F70B5529582955
:1002B0000000831209108316091083120800031727
:1002C000CA010313311431088316870000308312EA
:1002D000071801300317CA040313B1143108831639
:1002E00087000030831287180130F7000310F70DE4
:1002F00077080317CA0403133115310883168700E2
:100300000030831207190130F700F70DF70DFC30AC
:10031000F70577080317CA040313B11531088316CC
:1003200087000030831287190130F700F70DF70DB1
:10033000F70DF830F70577080317CA044A08F800E4
:1003400003130800831609108910091183128910FC
:10035000831689100714871407158715831209154A
:100360008316091100008312091483160910000076
:1003700083125F2178080317C9000313091083163D
:10038000091000008312091483160910C729C8290F
:10039000000083125F2178080317C80003130910B7
:1003A00083160910831231103108831687008312D7
:1003B000B11031088316870083123111310883167A
:1003C00087008312B1113108831687008312031747
:1003D000490EF700F030F70577084804F800780870
:1003E000C800C81FF62983160313AA29C608031DCF
:1003F000FD2903138910FF2903170313891483169A
:10040000891000008312091183160911000083125C
:1004100009108316091083120317470EC8000F3006
:10042000C8054808C90003131721031747080F39E7
:10043000C800C90003131721080028300317BE00A5
:100440000C30BF000130C0000630C100031309109A
:1004500083160910831289108316891083120911DB
:100460008316091183123110310883168700831215
:10047000B1103108831687008312311131088316B9
:1004800087008312B1113108831687000910891083
:1004900009110F3083120317C20003130321013027
:1004A0000317BD003D08033C031C622A0330C9004A
:1004B0000313172105300317C20003130321031789
:1004C000BD0A522A0230C900031317210530031751
:1004D000C200031303210317BD013D08033C031CA5
:1004E0007F2A3E303D07840083170008C200C60102
:1004F0004208C7000313A2210317BD0A6D2A031384
:100500008A150A124A2D03173D0DF700F70DFC302E
:10051000F70503131F08C33977049F00B301B20125
:100520000317BE013E08633C031CAA2A03139F1451
:100530009F18982A83161E088312B2071E080318F4
:100540001E0FB30701300317C20003130321031763
:10055000BE0A922A031333080317C000031332089C
:100560000317BF008E30F7004008F8003F08F9007D
:10057000FA01F808031DC62A7908F800F9010830C5
:10058000F702F808031DC62AF701CE2A0310F81B4C
:10059000CD2AF90DF80DF703C62AF8137A08C20020
:1005A0007908C1007808C0007708BF009A30C600FB
:1005B0009930C5004C30C4008630C3003F08031991
:1005C000A32BCB0043080319A32BCB02031CED2A5A
:1005D0007F30CB070318A32BF32A8130CB02031CF7
:1005E000A32B0319A32B4B08F700F801F901FA011B
:1005F000CA014008C900C9174108C8004208C7001D
:100600001930CB004608C7020318162B0130C80268
:100610000318162BC9020318162BCA020318162B2F
:10062000CA0AC90AC80A4608C707482B4508C802AB
:100630000318312B0130C9020318312BCA020318E9
:10064000312BCA0AC90A4508C8074608C707031C50
:10065000482BC80A031D482BC90A031D482BCA0A88
:10066000482B44088038C9020318472B0130CA02BE
:100670000318472BCA0A44088038C9074508C80729
:10068000031C252BC90A031D252BCA0A252B7A1406
:10069000CB0B4B2B562B0310C70DC80DC90DCA0D24
:1006A0000310FA0DF90DF80DCC0D022B4C1C5E2B2E
:1006B0000310F80CF90CFA0CCC0C612BF70303199E
:1006C000A32BCC1B8A2B0310C70DC80DC90DCA0D57
:1006D0004608C7020318762B0130C8020318762B90
:1006E000C9020318762BCA02031C992B4508C802BD
:1006F0000318812B0130C9020318812BCA02031C85
:10070000992B44088038C90203188A2B0130CA0289
:10071000031C992BFA0A031D992BF90A031D992B27
:10072000F80A031D992BF70A0319A32BF80CF90CEF
:10073000FA0C4008CB004408CB06CB1FA12BF817BE
:10074000A72BF813A72BF701F801F901FA017A0892
:10075000C2007908C1007808C0007708BF008E3059
:10076000F7003F08F7024008F9004108F800F917C0
:10077000F7080319C62B0310F908031DC22BF8084C
:100780000319C62BF90CF80CF70BBB2BC01FCD2B94
:10079000F809F909F80A0319F90A79080313B300EB
:1007A0007808B2003208F8008A150A12582D03178B
:1007B000430BDB2BDE2B4030C400DF2BC4010130A8
:1007C0004202C40744088038C500C6014508C70076
:1007D0000313A221080003174108073A0313031962
:1007E000FB2B0B3A0319022C063A03190E2C023A82
:1007F0000319162C1D2C01300317C200C30003136C
:10080000D723242C0317C6010130C7000313A221EC
:1008100002300317C20003130321242C01300317F5
:10082000C2000230C3000313D723242C0317C601D0
:100830001030C7000313A221242C01300317C60077
:100840004108C7000313A22108000B080317BE00CC
:1008500003138B13831603178C170C14000000006E
:100860008312BE1F362C03138B1703170C087F3916
:100870000319732CBE000D08BF000F08C0003E080E
:10088000C1000313EB2303173F088D0040088F00BE
:1008900003130B080317C10003138B1383160317ED
:1008A0008C170C14000000008312C11F5A2C031374
:1008B0008B1703170C0D0E0D7F390319732CBE0017
:1008C0000D08BF000F08C0003E08C1000313EB2352
:1008D00003173F088D0040088F008D0A03198F0A07
:1008E0000313252C03170313080083187A2C5E309A
:1008F00084008317031759085D068039E300D91F68
:100900008C2CD609D709D809D909D60A0319D70AD0
:100910000319D80A0319D90ADD1F992CDA09DB0952
:10092000DC09DD09DA0A0319DB0A0319DC0A0319F9
:10093000DD0AF701F801F901FA01DE01DF01E0014A
:10094000E1015D085C045B045A040319D72C2030D4
:10095000E2000310D60DD70DD80DD90DDE0DDF0D39
:10096000E00DE10D5D086102031DC02C5C08600212
:10097000031DC02C5B085F02031DC02C5A085E02D9
:10098000031CD12C5A08DE025B08031C5B0FDF023C
:100990005C08031C5C0FE0025D08031C5D0FE102B4
:1009A0000314F70DF80DF90DFA0DE20BA92CE31F56
:1009B000E42CF709F809F909FA09F70A0319F80A02
:1009C0000319F90A0319FA0A5E088000840A5F080D
:1009D0008000840A60088000840A61088000031394
:1009E00008000317C901C801C7010130C600CB01C7
:1009F000CC01C21F3B2D0130CB004208D100410881
:100A0000D0004008CF003F08CE00FF30D500D40012
:100A1000D300D2002030DA00D601D701D801D901A5
:100A20005108FA005008F9004F08F8004E08F70086
:100A30000310771C292D5208D60753080318530FAB
:100A4000D70754080318540FD80755080318550F33
:100A5000D907D90CD80CD70CD60CFA0CF90CF80C19
:100A6000F70CDA0B182D7A08C2007908C100780853
:100A7000C0007708BF00C608031D472DC708031D27
:100A8000472DC808031D472DC9080319C32D83101E
:100A90004208D9004108D8004008D7003F08D600D6
:100AA000DD01DC01DB014308DA00031375247A0859
:100AB0000317C9007908C8007808C7007708C6007E
:100AC0004C084407F8004508FA000318FA0A7808A9
:100AD000CE007A08CF00D1010408D0005110831B4A
:100AE000511483145230840083174208D9004108FE
:100AF000D8004008D7003F08D600DD01DC01DB014B
:100B00004308DA0003137524031750088400831385
:100B10005118831730305207F7005308F80000309F
:100B200003180130F8075408F900003003180130A9
:100B3000F9075508FA00003003180130FA074E088B
:100B4000840083134F188317770880004C084407EC
:100B500084008313451883170008393C0318B92D06
:100B60004C08440784008313451883170730000797
:100B70008000CC0A4908C2004808C1004708C000EC
:100B80004608BF003B2D4B0BCE2D4C08440784007C
:100B90008313451883172D308000CC0ACA01031037
:100BA0004C0C4A020318042E4A084407840083139D
:100BB000451883170008CD004A084407F800450887
:100BC000FA000318FA0A7808CE007A08CF004A081B
:100BD0004C02FF3E44078400831345188317000826
:100BE000D0004E08840083134F18831750088000EC
:100BF0004A084C02FF3E44078400831345188317BC
:100C00004D088000CA0ACF2D4C0844078400831386
:100C10004518831780014408F8004508F9000313BC
:100C20000800800803192D2E0317BE010408BD001B
:100C30003E10831B3E140008C1000313EB2303176F
:100C40003D08840083133E188317840A031D2B2E4E
:100C50000313850A03170313112E080003173F0817
:100C60000739F7003F0CF800F80CF80C1F30F805B6
:100C70007808400784008313411883170008F800A0
:100C8000F70A432EF80CF70B422E03130800031744
:100C90003E080739F7003E0CF800F80CF80C1F303E
:100CA000F805780840078400831341188317F8017A
:100CB000F80AF70A5C2EF80DF70B5B2EBF08031934
:100CC000642E78088004672EF809780880050313DD
:100CD00008005F1501300317C200C3000313D723B8
:100CE0000A300317C20003130321843003178D0059
:100CF00000308F000313252401300317C200023097
:100D0000C3000313D7230A300317C20003130321C0
:100D10008D3003178D0000308F00031325245F1DD5
:100D2000E72E8316061583120619E62EB80A03303D
:100D3000B80502300317BD009630C200031303212B
:100D40000317BD0B9C2E0630C2000230C3000313F4
:100D5000D7230317C201C101C001031338080317C9
:100D6000BF000A30C300C5017230C4000313F12470
:100D70000A300317C2000313032172308400831367
:100D800011263808FC3E0318E62E043EEF2E96305E
:100D900003178D0000308F0003132524E62E9B30AF
:100DA00003178D0000308F0003132524E62EA0309A
:100DB00003178D0000308F0003132524E62EA53085
:100DC00003178D0000308F00031325248F2EDF18AA
:100DD000EC2E8A1500288A118A150A12602D0A1035
:100DE0008A140A158207C72ECF2ED72EDF2E03179F
:100DF0004008C4003F08C3004408FA0043088400C8
:100E000083137A188317800803190A2FC30A03195A
:100E1000C40AFC2E4208FA004108840083137A18A1
:100E2000831780080319292F41088400831342186F
:100E300083170008C70043088400831344188317EE
:100E400047088000C30A0319C40AC10A0319C20A69
:100E50000A2F4308840083134418831780013F0836
:100E6000F8004008F9000313080080080319522F06
:100E70000317C1010408C0004110831B411400087E
:100E800003130C1E412F990003174008840083139D
:100E900041188317840A031D502F0313850A031773
:100EA0000313352F08000317BD013D081E3C031C2A
:100EB000672F83160313881002308312880664306C
:100EC0000317C200031303210317BD0A552F031391
:100ED0008A150A126A2D01300317C200C3000313DA
:100EE000D7230A300317C200031303213C308400C8
:100EF0008313112601300317C200031303218A153F
:040F00000A12E22DC2
:10100000DF103808FC3E0318802A043E832ADF10D4
:10101000DF1501300317C2000230C3008A11031329
:10102000D7238A150A300317C2008A11031303213C
:101030008A15693003178D0000308F008A11031361
:1010400025248A15DF1D6D288316061583120619BF
:101050006C28B90A39080F3C031CB9010230031788
:10106000BD009630C2008A11031303218A150317AD
:10107000BD0B3128C201C101C00103133908031798
:10108000BF000A30C300C5017030C4008A110313C9
:10109000F1248A1509300317C2000230C3008A11F7
:1010A0000313D7238A150A300317C2008A110313CA
:1010B00003218A157030840083138A1111268A1542
:1010C00001300317C2008A11031303218A15831606
:1010D00008100130831288062228802ADF10DF15CD
:1010E00001300317C2000230C3008A110313D72353
:1010F0008A150A300317C2008A11031303218A15C7
:10110000723003178D0000308F008A1103132524DD
:101110008A15DF1D752983160615831206191A29EB
:10112000BA0A3A08073C031CBA0102300317BD0093
:101130009630C2008A11031303218A150317BD0BD1
:101140009828C201C101C00103133A080317BF0068
:101150000A30C300C5017230C4008A110313F124A0
:101160008A1509300317C2000230C3008A11031325
:10117000D7238A150A300317C2008A1103130321EB
:101180008A157230840083138A1111268A15013062
:101190000317C2008A11031303218A152030031795
:1011A000C1008A110313EB238A153A300317C100DB
:1011B0008A110313EB238A1520300317C1008A110B
:1011C0000313EB238A1501300317C2008A1103139E
:1011D00003218A153A080317BF00C1016030C0001F
:1011E0008A1103132E268A15003078180130031750
:1011F000BD00C201C101C0013D08BF000A30C300EB
:10120000C5017230C4008A110313F1248A157230AB
:10121000840083138A1111268A1501300317C20036
:101220008A11031303218A158316081001308312D3
:1012300088067429831686158312861974293A083C
:101240000317BF00C1016030C0008A1103132E26AE
:101250008A150030781C01300317BD0003133A08CB
:101260000317BE003D08BF00C1016030C0008A11F5
:10127000031347268A150D300317C2000230C3003E
:101280008A110313D7238A1502300317BD00963045
:10129000C2008A11031303218A150317BD0B4729C6
:1012A00003133A080317BF00C1016030C0008A1160
:1012B00003132E268A150030781801300317BD005D
:1012C000C201C101C0013D08BF000A30C300C50111
:1012D0007230C4008A110313F1248A15723084001D
:1012E00083138A1111268A158928802ADF10DF15B9
:1012F00001300317C2000230C3008A110313D72341
:101300008A150A300317C2008A11031303218A15B4
:101310007B3003178D0000308F008A1103132524C2
:101320008A15DF1D7D2A8316061583120619222AC7
:10133000BB0A3B08033C031CBB0102300317BD0082
:101340009630C2008A11031303218A150317BD0BBF
:10135000A029C201C101C00103133B080317BF004C
:101360000A30C300C5017230C4008A110313F1248E
:101370008A1509300317C2000230C3008A11031313
:10138000D7238A150A300317C2008A1103130321D9
:101390008A157230840083138A1111268A15013050
:1013A0000317C2008A11031303218A152030031783
:1013B000C1008A110313EB238A153A300317C100C9
:1013C0008A110313EB238A1520300317C1008A11F9
:1013D0000313EB238A1501300317C2008A1103138C
:1013E00003218A153B080317BF00C1016130C0000B
:1013F0008A1103132E268A1500307818013003173E
:10140000BD00C201C101C0013D08BF000A30C300D8
:10141000C5017230C4008A110313F1248A15723099
:10142000840083138A1111268A1501300317C20024
:101430008A11031303218A158316081001308312C1
:1014400088067C2A83168615831286197C2A3B0817
:101450000317BF00C1016130C0008A1103132E269B
:101460008A150030781C01300317BD0003133B08B8
:101470000317BE003D08BF00C1016130C0008A11E2
:10148000031347268A150D300317C2000230C3002C
:101490008A110313D7238A1502300317BD00963033
:1014A000C2008A11031303218A150317BD0B4F2AAB
:1014B00003133B080317BF00C1016130C0008A114C
:1014C00003132E268A150030781801300317BD004B
:1014D000C201C101C0013D08BF000A30C300C501FF
:1014E0007230C4008A110313F1248A15723084000B
:1014F00083138A1111268A159129802ADF10B901D8
:101500008A110A12EB2E0A108A140A118207072880
:101510006E2876297E2A5F11DF110317BE01BF01F5
:101520006230840083133E0884073F088A11031346
:1015300064208A15800000380319A32A0317BF0A04
:10154000BE0A902A03130317BE01BF016630840050
:1015500083133E0884073F088A11031364208A1509
:10156000800000380319B92A0317BF0ABE0AA62A49
:101570000313FA017B30840083137A1883178001E8
:10158000FA016230840083137A18831780010317ED
:10159000BE013E08073C031CFC2A3E08BF00C101F7
:1015A0006030C0008A1103132E268A15781CF92A90
:1015B0000317C201C101C0013E08BF000A30C300C9
:1015C000C5017B30C4008A110313F1248A15013050
:1015D0000317C2008A11031303218A150317C001E0
:1015E0006230BF00C2017B30C1008A110313F726AD
:1015F0008A150317BE0AC92ABF01C0017B308400C7
:1016000083133F08840740088A11031358208A1562
:10161000800000380319112B0317C00ABF0AFE2AE5
:10162000031301300317C2008A11031303218A1523
:101630000317C0016230BF00C2017B30C1008A11B4
:101640000313F7268A158316DC016230DB00FA01EA
:101650007B30840083137A1883178001FA0172307B
:10166000840083137A188317800183120317BE0145
:101670003E08073C031C6B2B3E08BF00C1016130D4
:10168000C0008A1103132E268A15781C682B0317B5
:10169000C201C101C0013E08BF000A30C300C5013C
:1016A0007B30C4008A110313F1248A15013003171B
:1016B000C2008A11031303218A150317C001723077
:1016C000BF00C2017B30C1008A110313F7268A15BF
:1016D0000317BE0A382BBF01C0017B30840083137F
:1016E0003F08840740088A1103135E208A15800092
:1016F00000380319802B0317C00ABF0A6D2B031390
:1017000001300317C2008A11031303218A1503173E
:10171000C0017230BF00C2017B30C1008A110313C7
:10172000F7268A158316DE017230DD00D401703091
:10173000D30083120317BD013D08073C031CBD2BDA
:1017400003103D0DD13E84008313840A0008BF00BE
:1017500084030008BE00840083133F1883178A1196
:10176000031335278A1501300317C2008A110313AA
:1017700003218A150317BD0A9C2B0130C200C30048
:101780008A110313D7238A150A300317C2008A115E
:10179000031303218A15AA3003178D0000308F0030
:1017A0008A11031325248A1501300317C200023061
:1017B000C3008A110313D7238A150A300317C20006
:1017C0008A11031303218A15B03003178D000030EE
:1017D0008F008A11031325248A158316A301703004
:1017E000A2008312DF108A150A12652D03081F3923
:1017F00083008316031787150830031399000230FE
:101800009A00A6309800903083129800FF30B10003
:10181000B801B901BA01BB01DA01DB015F10DF10C9
:101820005F11DF11831603170908C03989000313FC
:101830001F129F120030031788008312870188014E
:10184000890183130313AB01AC01DE30E0000D30DE
:10185000E1002030E400E501E3016430E2002030E3
:10186000E800E901E7016830E60053308316AE0076
:10187000AF014930B0004430B100B2015330B30081
:101880005F30B4005330B500B6014C30B70045307E
:10189000B8004E30B9004730BA004830BB00543071
:1018A000BC00BD014E30BE004830BF004930C00012
:1018B0004530C1005430C2004430C3004F30C40032
:1018C000C5014330C6004830C7004530C80043302A
:1018D000C9004B30CA005330CB005530CC004D30DE
:1018E000CD00CE012330CF00D001A101AE30A00049
:1018F000A301B030A200A501B330A400A701B73006
:10190000A600A901BE30A800AB01C630AA00AD01F7
:10191000CF30AC005330831203179000910149304F
:101920009200443093009401433095005F3096005C
:101930004630970098014C30990045309A004E305F
:101940009B0047309C0048309D0054309E009F0112
:101950004930A0004430A1005F30A200A301443010
:10196000A4004530A5005630A6004930A7004330FA
:10197000A8004530A9003130AA003230AB00333026
:10198000AC003430AD00AE015330AF004530B00094
:101990004E30B1005330B2004F30B3005230B4007B
:1019A0003130B5003230B6003330B7003430B800D3
:1019B000B9012330BA00BB01013083160313D200F2
:1019C0001030D1000130D4001230D3000130D600E5
:1019D0001530D5000130D8001930D7000130DA00B9
:1019E0002030D9000130DC002430DB000130DE0083
:1019F0002F30DD000130E0003A30DF00323083125A
:101A0000EA003730EB00EC013230ED003730EE0009
:101A1000EF013030F000F101F400F501F301743012
:101A2000F2003030FD00FE01FC017D30FB00003093
:101A300083168800FF30860009108910091189116A
:101A4000803087008312B1001F179F1383169F17E2
:101A500083121F14831603170908C0398900031362
:101A60001F129F12013003178800831203138B1675
:101A70000B160B16831601138C16C03083128B04C1
:101A8000353090008E010B308F00DC308E000C1052
:101A90008A111D2A8A15B9015F10DF10831688018B
:101AA00083128801DB010317BD018A110313832A06
:101AB0008A15B5017808B4005F1C622D8A11692E61
:101AC0008A15052EDF1C662D8B2A052E5F18052E24
:101AD0008A11532F8A15B508031D722D34081A3C3C
:101AE0000318D32D0317C201C101031335080317CF
:101AF000C000031334080317BF000A30C300C50138
:101B00006A30C4008A110313F1248A158316A901CF
:101B10006A30A80083120317C201C10103133708FA
:101B20000317C000031336080317BF000A30C300B1
:101B3000C5016D30C4008A110313F1248A15831680
:101B4000AB016D30AA0083120317BC013C08073CAF
:101B5000031CC72D03103C0DA03E84008313840A90
:101B60000008BE0084030008BD00840083133E18F3
:101B700083178A11031335278A1501300317C20012
:101B80008A11031303218A150317BC0AA62D0430FA
:101B9000BD00FA30C2008A11031303218A1503170E
:101BA000BD0BC92D03135B0B042EDB0130303D024E
:101BB000DC0030303E02403EDD0030303F02DE00CF
:101BC0008A116B2F8A1539085C02031D042EDE086A
:101BD000031DEC2D0030ED2D0130F7005D080317DB
:101BE000BE007708BF00C101C0018A110313472658
:101BF0008A155D080317BE00BF01C1018030C00017
:0E1C00008A11031347268A15662D532D6300A3
:04400E00E22FFF3F5F
:00000001FF
;PIC16F887
;CRC=B7C0  CREATED="20-Oct-21 01:22"
