:100000000C308A00272C0000FF00030E8301A100A2
:100010000A08A0008A010408A2007708A300780853
:10002000A4007908A5007A08A60003170D08031399
:10003000A70003170F080313A80003170C080313E6
:10004000A90003170E080313AA00831383120B1EC3
:100050002B288B1852288C308400801E31288C1A53
:100060005528220884002308F7002408F8002508F2
:10007000F9002608FA00270803178D000313280843
:1000800003178F000313290803178C0003132A0892
:1000900003178E00031320088A00210E8300FF0E31
:1000A0007F0E09008A110A12BC288A110A12F3284D
:1000B0000A108A100A11820731343234333434344E
:1000C00000340A108A100A118207003449223A10BB
:1000D0002010201020102010201020100000C4221A
:1000E000D624C3223A102010201020102010000126
:1000F000D322CE294F293A10201020102010201092
:1001000000014922DF23571D20103119331A201016
:1001100020100001C3274E23C9233A1020102010BD
:10012000201020100001C320D3223A1020102010EC
:1001300020102010201000012D1049222010201026
:1001400020002D10C422D624C32253002D10D32208
:10015000CE294F2953002D10D222D3225410200033
:10016000C3274E23C92320224F274500C3274E23F0
:10017000C92320224F274500831603179601031336
:10018000861483128618DB280C1CD62883160811C7
:100190000430831288060C108E010B308F00DC3087
:1001A0008E0083160317960A831203138316031710
:1001B000BF2883120313831603171608143C031871
:1001C000EA28013083120313DF06DF145F11EF28E2
:1001D0008316031783120313DF105F11DF118B10D7
:1001E0008A110A1231283C305A07840083138C1E6E
:1001F000F7281A0880003C305A078400831300084F
:100200002E3C031D0C293C305A07840083138001C7
:10021000DA010130DB000D29DA0A8C128A110A1288
:100220003128503084008317000803192429063030
:10023000F800F701F70B1A29F80B19297B30F700A2
:10024000F70B2029800B17290800031757182C29B2
:10025000031307102E290317031307143110310855
:100260008316870083120317D7183A2903138710C0
:100270003C29031703138714B11031088316870034
:100280008312031757194829031307114A29031723
:1002900003130715311131088316870083120317E2
:1002A000D7195629031387115829031703138715E4
:1002B000B1113108831687000000831209148316D8
:1002C00009100230F700F70B63296629000083123A
:1002D000091083160910831208000317D8010313AD
:1002E000311431088316870000308312071801305B
:1002F0000317D8040313B1143108831687000030A4
:10030000831287180130F7000310F70D77080317E1
:10031000D804031331153108831687000030831287
:1003200007190130F700F70DF70DFC30F7057708D6
:100330000317D8040313B115310883168700003062
:10034000831287190130F700F70DF70DF70DF8301C
:10035000F70577080317D8045808F80003130800B6
:1003600083160910891009118312891083168910C8
:1003700007148714071587158312091583160911A9
:1003800000008312091483160910000083126D21E6
:1003900078080317D700031309108316091000000B
:1003A0008312091483160910D529D6290000831257
:1003B0006D2178080317D60003130910831609105E
:1003C000831231103108831687008312B11031086F
:1003D0008316870083123111310883168700831238
:1003E000B11131088316870083120317570EF700E7
:1003F000F030F70577085604F8007808D600D61FC5
:10040000042A83160313B829D408031D0B2A0313E7
:1004100089100D2A0317031389148316891000000D
:100420008312091183160911000083120910831623
:10043000091083120317550ED6000F30D605560843
:10044000D70003132521031755080F39D600D7000D
:1004500003132521080028300317CB000C30CC00F3
:100460000130CD000630CE000313091083160910A9
:1004700083128910831689108312091183160911BA
:10048000831231103108831687008312B1103108AE
:100490008316870083123111310883168700831277
:1004A000B1113108831687000910891009110F3026
:1004B00083120317D0000313112101300317CA0060
:1004C0004A08033C031C702A0330D700031325217C
:1004D00005300317D000031311210317CA0A602A3D
:1004E0000230D7000313252105300317D000031372
:1004F00011210317CA014A08033C031C8D2A4B3003
:100500004A07840083170008CF00D4014F08D500A4
:100510000313B0210317CA0A7B2A03138A150A1290
:10052000922D03174A0DF700F70DFC30F705031362
:100530001F08C33977049F00B301B2010317CB0131
:100540004B08633C031CB82A03139F149F18A62A68
:1005500083161E088312B2071E0803181E0FB30766
:1005600001300317D000031311210317CB0AA02A6F
:10057000031333080317CD00031332080317CC000D
:100580008E30F7004D08F8004C08F900FA01F80821
:10059000031DD42A7908F800F9010830F702F80899
:1005A000031DD42AF701DC2A0310F81BDB2AF90DFE
:1005B000F80DF703D42AF8137A08CF007908CE0093
:1005C0007808CD007708CC009A30D3009930D2005B
:1005D0004C30D1008630D0004C080319B12BD80024
:1005E00050080319B12BD802031CFB2A7F30D8070F
:1005F0000318B12B012B8130D802031CB12B031936
:10060000B12B5808F700F801F901FA01D7014D089C
:10061000D600D6174E08D5004F08D4001930D800A0
:100620005308D4020318242B0130D5020318242BBD
:10063000D6020318242BD7020318242BD70AD60A74
:10064000D50A5308D407562B5208D50203183F2B5E
:100650000130D60203183F2BD70203183F2BD70ACD
:10066000D60A5208D5075308D407031C562BD50ABF
:10067000031D562BD60A031D562BD70A562B51089D
:100680008038D6020318552B0130D7020318552B9A
:10069000D70A51088038D6075208D507031C332BD8
:1006A000D60A031D332BD70A332B7A14D80B592BB8
:1006B000642B0310D40DD50DD60DD70D0310FA0DF4
:1006C000F90DF80DD90D102B591C6C2B0310F80CDB
:1006D000F90CFA0CD90C6F2BF7030319B12BD91BAA
:1006E000982B0310D40DD50DD60DD70D5308D40279
:1006F0000318842B0130D5020318842BD60203186B
:10070000842BD702031CA72B5208D50203188F2B6A
:100710000130D60203188F2BD702031CA72B5108D8
:100720008038D6020318982B0130D702031CA72B60
:10073000FA0A031DA72BF90A031DA72BF80A031DAC
:10074000A72BF70A0319B12BF80CF90CFA0C4D087A
:10075000D8005108D806D81FAF2BF817B52BF813BF
:10076000B52BF701F801F901FA017A08CF007908F1
:10077000CE007808CD007708CC008E30F7004C080A
:10078000F7024D08F9004E08F800F917F7080319A9
:10079000D42B0310F908031DD02BF8080319D42B10
:1007A000F90CF80CF70BC92BCD1FDB2BF809F90955
:1007B000F80A0319F90A79080313B3007808B2009C
:1007C0003208F8008A150A12A02D0317510BE92BE5
:1007D000EC2B4030D200ED2BD20101305002D20779
:1007E00052088038D300D4015308D5000313B02138
:1007F000080003174F08073A03130319092C0B3A93
:100800000319102C063A03191C2C023A0319242C44
:100810002B2C01300317D000D1000313E523322C19
:100820000317D4010130D5000313B02102300317A0
:10083000D00003131121322C01300317D0000230F5
:10084000D1000313E523322C0317D4011030D50057
:100850000313B021322C01300317D4004F08D50008
:100860000313B02108000B080317CB0003138B13ED
:10087000831603178C170C14000000008312CB1F83
:10088000442C03138B1703170C087F390319812C91
:10089000CB000D08CC000F08CD004B08CF00031390
:1008A000F92303174C088D004D088F0003130B0824
:1008B0000317CE0003138B13831603178C170C1426
:1008C000000000008312CE1F682C03138B17031740
:1008D0000C0D0E0D7F390319812CCB000D08CC00B7
:1008E0000F08CD004B08CF000313F92303174C0862
:1008F0008D004D088F008D0A03198F0A0313332CC6
:100900000317031308008318882C90308400831782
:10091000031766086A068039831695008312E61F5E
:100920009C2CE309E409E509E609E30A0319E40A52
:100930000319E50A0319E60AEA1FA92CE709E809E1
:10094000E909EA09E70A0319E80A0319E90A031998
:10095000EA0AF701F801F901FA0183169001910101
:100960009201930183126A086904680467040319F9
:10097000052D20308316940003108312E30DE40D3F
:10098000E50DE60D8316900D910D920D930D8312DA
:100990006A0883161302031DDD2C8312690883166F
:1009A0001202031DDD2C8312680883161102031D39
:1009B000DD2C8312670883161002031CFE2C8312A1
:1009C00067088316900283126808031C680FE92CDD
:1009D000EC2C8316910283126908031C690FF12C19
:1009E000F42C8316920283126A08031C6A0FF92CF6
:1009F000FC2C83169302831203148316F70DF80D53
:100A0000F90DFA0D940BBC2C83128316951F132D30
:100A1000F709F809F909FA09F70A0319F80A031995
:100A2000F90A0319FA0A10088000840A11088000E4
:100A3000840A12088000840A1308800083120313BA
:100A400008000317D601D501D4010130D300D80125
:100A5000D901CF1F6B2D0130D8004F08DE004E08A2
:100A6000DD004D08DC004C08DB00FF30E200E10057
:100A7000E000DF002030E700E301E401E501E601EA
:100A80005E08FA005D08F9005C08F8005B08F700F2
:100A90000310771C592D5F08E30760080318600FE7
:100AA000E40761080318610FE50762080318620F85
:100AB000E607E60CE50CE40CE30CFA0CF90CF80C78
:100AC000F70CE70B482D7A08CF007908CE0078089C
:100AD000CD007708CC00D308031D772DD408031D63
:100AE000772DD508031D772DD6080319F32D831014
:100AF0004F08E6004E08E5004D08E4004C08E3000E
:100B0000EA01E901E8015008E700031383247A08A9
:100B10000317D6007908D5007808D4007708D300E9
:100B200059085107F8005208FA000318FA0A780821
:100B3000DB007A08DC00DE010408DD005E10831BA8
:100B40005E1483145F30840083174F08E6004E085C
:100B5000E5004D08E4004C08E300EA01E901E80182
:100B60005008E7000313832403175D0884008313F0
:100B70005E18831730305F07F7006008F800003018
:100B800003180130F8076108F9000030031801303C
:100B9000F9076208FA00003003180130FA075B0811
:100BA000840083135C188317770880005908510765
:100BB00084008313521883170008393C0318E92D69
:100BC0005908510784008313521883170730000710
:100BD0008000D90A5608CF005508CE005408CD0031
:100BE0005308CC006B2D580BFE2D5908510784007B
:100BF0008313521883172D308000D90AD7010310B0
:100C0000590C57020318342E5708510784008313D8
:100C1000521883170008DA0057085107F8005208E5
:100C2000FA000318FA0A7808DB007A08DC00570893
:100C30005902FF3E5107840083135218831700089E
:100C4000DD005B08840083135C1883175D08800057
:100C500057085902FF3E5107840083135218831727
:100C60005A088000D70AFF2D5908510784008313C2
:100C70005218831780015108F8005208F900031335
:100C80000800800803195D2E0317CE010408CD006B
:100C90004E10831B4E140008CF000313F9230317D3
:100CA0004D08840083134E188317840A031D5B2E9E
:100CB0000313850A03170313412E080003174C087A
:100CC0000739F7004C0CF800F80CF80C1F30F80549
:100CD00078084D07840083134E1883170008F80026
:100CE000F70A732EF80CF70B722E03130800031784
:100CF0004B080739F7004B0CF800F80CF80C1F30C4
:100D0000F80578084D07840083134E188317F801FF
:100D1000F80AF70A8C2EF80DF70B8B2ECC08031966
:100D2000942E78088004972EF8097808800503131C
:100D300008005F1501300317D000D1000313E5232D
:100D40000A300317D000031311218A3003178D00D6
:100D500000308F000313332401300317D00002301A
:100D6000D1000313E5230A300317D0000313112128
:100D7000933003178D0000308F00031333245F1D61
:100D8000172F8316061583120619162FB80A03307B
:100D9000B80502300317CA009630D00003131121A2
:100DA0000317CA0BCC2E0630D0000230D10003133B
:100DB000E5230317CF01CE01CD0103133808031734
:100DC000CC000A30D000D201D730D1000313212546
:100DD0000A300317D00003131121D7308400831386
:100DE00041263808FC3E0318162F043E1F2F9C3066
:100DF00003178D0000308F0003133324162FA1300A
:100E000003178D0000308F0003133324162FA630F4
:100E100003178D0000308F0003133324162FAB30DF
:100E200003178D0000308F0003133324BF2EDF180B
:100E30001C2F8A1500288A118A150A12A82D0A1457
:100E40008A140A158207F72EFF2E072F0F2F03177C
:100E50004D08D1004C08D0005108FA005008840019
:100E600083137A188317800803193A2FD00A0319BD
:100E7000D10A2C2F4F08FA004E08840083137A18E9
:100E8000831780080319592F4E08840083134F18C5
:100E900083170008D4005008840083135118831767
:100EA00054088000D00A0319D10ACE0A0319CF0AC8
:100EB0003A2F5008840083135118831780014C087F
:100EC000F8004D08F9000313080080080319822F69
:100ED0000317CE010408CD004E10831B4E140008EA
:100EE00003130C1E712F990003174D088400831300
:100EF0004E188317840A031D802F0313850A0317D6
:100F00000313652F08000317CA014A081E3C031C7F
:100F1000972F8316031388100230831288066430DB
:100F20000317D000031311210317CA0A852F0313D7
:100F30008A150A12B22D01300317D000D100031315
:100F4000E5230A300317D000031311213C3084003D
:100F50008313412601300317D000031311218A1592
:040F60000A12262E1D
:10100000DF103808FC3E0318BE2A043EC12ADF1058
:10101000DF1501300317D0000230D1008A1103130D
:10102000E5238A150A300317D0008A110313112112
:101030008A15663003178D0000308F008A11031364
:1010400033248A15DF1D6D288316061583120619B1
:101050006C28B90A39080F3C031CB9010230031788
:10106000CA009630D0008A11031311218A15031784
:10107000CA0B3128CF01CE01CD0103133908031764
:10108000CC000A30D000D201CF30D1008A11031336
:1010900021258A1509300317D0000230D1008A11AA
:1010A0000313E5238A150A300317D0008A110313AE
:1010B00011218A15CF30840083138A1141268A15A5
:1010C00001300317D0008A11031311218A158316EA
:1010D00008100130831288062228BE2ADF10DF158F
:1010E00001300317D0000230D1008A110313E52329
:1010F0008A150A300317D0008A11031311218A15AB
:101100006F3003178D0000308F008A1103133324D2
:101110008A15DF1D752983160615831206191A29EB
:10112000BA0A3A08073C031CBA0102300317CA0086
:101130009630D0008A11031311218A150317CA0BA8
:101140009828CF01CE01CD0103133A080317CC0034
:101150000A30D000D201D730D1008A1103132125E3
:101160008A1509300317D0000230D1008A11031309
:10117000E5238A150A300317D0008A1103131121C1
:101180008A15D730840083138A1141268A150130CD
:101190000317D0008A11031311218A152030031779
:1011A000CF008A110313F9238A153A300317CF00B1
:1011B0008A110313F9238A1520300317CF008A11EF
:1011C0000313F9238A1501300317D0008A11031382
:1011D00011218A153A080317CC00CE016030CD00EA
:1011E0008A1103135E268A15003078180130031720
:1011F000CA00CF01CE01CD014A08CC000A30D00090
:10120000D201D730D1008A11031321258A15D73096
:10121000840083138A1141268A1501300317D000F8
:101220008A11031311218A158316081001308312C5
:1012300088067429831686158312861974293A083C
:101240000317CC00CE016030CD008A1103135E2657
:101250008A150030781C01300317CA0003133A08BE
:101260000317CB004A08CC00CE016030CD008A11B4
:10127000031377268A150D300317D0000230D100F2
:101280008A110313E5238A1502300317CA0096302A
:10129000D0008A11031311218A150317CA0B47299D
:1012A00003133A080317CC00CE016030CD008A1139
:1012B00003135E268A150030781801300317CA0020
:1012C000CF01CE01CD014A08CC000A30D000D201B6
:1012D000D730D1008A11031321258A15D730840015
:1012E00083138A1141268A158928BE2ADF10DF154B
:1012F00001300317D0000230D1008A110313E52317
:101300008A150A300317D0008A11031311218A1598
:10131000783003178D0000308F008A1103133324B7
:101320008A15DF1D7D2A8316061583120619222AC7
:10133000BB0A3B08033C031CBB0102300317CA0075
:101340009630D0008A11031311218A150317CA0B96
:10135000A029CF01CE01CD0103133B080317CC0018
:101360000A30D000D201D730D1008A1103132125D1
:101370008A1509300317D0000230D1008A110313F7
:10138000E5238A150A300317D0008A1103131121AF
:101390008A15D730840083138A1141268A150130BB
:1013A0000317D0008A11031311218A152030031767
:1013B000CF008A110313F9238A153A300317CF009F
:1013C0008A110313F9238A1520300317CF008A11DD
:1013D0000313F9238A1501300317D0008A11031370
:1013E00011218A153B080317CC00CE016130CD00D6
:1013F0008A1103135E268A1500307818013003170E
:10140000CA00CF01CE01CD014A08CC000A30D0007D
:10141000D201D730D1008A11031321258A15D73084
:10142000840083138A1141268A1501300317D000E6
:101430008A11031311218A158316081001308312B3
:1014400088067C2A83168615831286197C2A3B0817
:101450000317CC00CE016130CD008A1103135E2644
:101460008A150030781C01300317CA0003133B08AB
:101470000317CB004A08CC00CE016130CD008A11A1
:10148000031377268A150D300317D0000230D100E0
:101490008A110313E5238A1502300317CA00963018
:1014A000D0008A11031311218A150317CA0B4F2A82
:1014B00003133B080317CC00CE016130CD008A1125
:1014C00003135E268A150030781801300317CA000E
:1014D000CF01CE01CD014A08CC000A30D000D201A4
:1014E000D730D1008A11031321258A15D730840003
:1014F00083138A1141268A159129BE2ADF10DF1530
:1015000001300317D0000230D1008A110313E52304
:101510008A150A300317D0008A11031311218A1586
:10152000813003178D0000308F008A11031333249C
:101530008A150317CA01CB01D330840083134A08EC
:1015400084074B088A11031358208A15800000383D
:101550000319AF2A0317CB0ACA0A9C2A0313DF1DFB
:10156000BE2A8316061583120619B82ADF10BD2A73
:10157000831686158312861DDF10AF2A8A110A1280
:101580001B2F0A108A140A11820707286E28762951
:101590007E2A5F11DF118316BD01D330BC000230FB
:1015A00083120317D0008A11031311218A158316A1
:1015B000BF01CF30BE00023083120317D0008A1162
:1015C000031311218A150317CB01CC01623084006B
:1015D00083134B0884074C088A11031361208A1572
:1015E000800000380319F92A0317CC0ACB0AE62A2F
:1015F00003130317CB01CC016630840083134B081F
:1016000084074C088A11031361208A158000003872
:1016100003190F2B0317CC0ACB0AFC2A0313FA0178
:10162000DB30840083137A1883178001FA0162305B
:10163000840083137A18831780010317CB014B08AA
:10164000073C031C522B4B08CC00CE016030CD0070
:101650008A1103135E268A15781C4F2B0317CF01BE
:10166000CE01CD014B08CC000A30D000D201DB30D6
:10167000D1008A11031321258A1501300317D000E8
:101680008A11031311218A150317CD016230CC0092
:10169000CF01DB30CE008A11031327278A150317E9
:1016A000CB0A1F2BFA01DB30840083137A188317CF
:1016B0008001FA01DF30840083137A1883178001D8
:1016C000CB014B08043C031C942B4B08CC00CE01EF
:1016D0006130CD008A1103135E268A15781C912B88
:1016E0000317CF01CE01CD014B08CC000A30D0004A
:1016F000D201DB30D1008A11031321258A15013074
:101700000317D0008A11031311218A150317CD0185
:10171000DF30CC00CF01DB30CE008A110313272746
:101720008A150317CB0A612B83160313C701623096
:10173000C600023083120317D0008A11031311214F
:101740008A158316C901DF30C80083120317CA0146
:101750004A08083C031CC62B03104A0DBA3E8400FD
:101760008313840A0008CC0084030008CB008400A3
:1017700083134C1883178A11031365278A15403089
:101780000C1EC02B99000317CA0AA82B0130D000E9
:10179000D1008A110313E5238A150A300317D000FC
:1017A0008A11031311218A150317CA014A08083C3C
:1017B000031CF02B03104A0DBA3E84008313840AE5
:1017C0000008CC0084030008CB00840083134C186D
:1017D00083178A11031341268A150317CA0AD62BC9
:1017E0000130D000D1008A110313E5238A150A3095
:1017F0000317D0008A11031311218A15B030031783
:101800008D0000308F008A11031333248A150130B4
:101810000317D0000230D1008A110313E5238A1583
:101820000A300317D0008A11031311218A15B6302C
:1018300003178D0000308F008A11031333248A159B
:10184000ED01CF30EC00DF108A150A12AD2D030830
:101850001F39830083160317871508300313990077
:1018600002309A00A6309800903083129800FF3022
:10187000B100B801B901BA01BB01DA01DB015F10A7
:10188000DF105F11DF11831603170908C0398900C3
:1018900003131F129F120030031788008312870161
:1018A0008801890183130313AB01AC01D630E0003A
:1018B0000F30E1002030E400E501E3016430E20094
:1018C0002030E800E901E7016830E6002A3083169D
:1018D000A000A1014930A2004430A300A40153306C
:1018E000A5005F30A6005330A700A8014C30A90026
:1018F0004530AA004E30AB004730AC004830AD0058
:101900005430AE00AF014E30B0004830B100493025
:10191000B2004530B3005430B4004430B5004F300D
:10192000B600B7012330B800B9018312EB01A03033
:10193000EA00ED01A230EC00EF01A530EE00F1016C
:10194000A930F000F301B030F200F501B830F40036
:101950002A300317900091014930920044309300DF
:101960005F3094004730950057309600970149301A
:101970009800443099005F309A004E309B004F3001
:101980009C0044309D0045309E009F014C30A000DB
:101990004530A1004E30A2004730A3004830A400DB
:1019A0005430A500A6014330A7005F30A8004630A0
:1019B000A900AA014930AB004430AC005F30AD0053
:1019C0004330AE005530AF00B0014430B100453077
:1019D000B2005630B3004930B4004330B500453052
:1019E000B6003130B7003230B8003330B90034308F
:1019F000BA00BB015330BC004530BD004E30BE00C4
:101A00005330BF004F30C0005230C1003130C200EF
:101A10003230C3003330C4003430C500C601233037
:101A2000C700C801013083160313BB001030BA0091
:101A30000130BD001230BC000130BF001830BE00C4
:101A40000130C1002030C0000130C3002730C20087
:101A50000130C5002B30C4000130C7003130C60052
:101A60000130C9003C30C8000130CB004730CA000B
:101A70003230FB003730FC00FD013230CC00373013
:101A8000CD00CE013030D100D201D001D130CF0015
:101A90003030D500D601D401D530D3003030D90054
:101AA000DA01D801D930D7003030DD00DE01DC01A9
:101AB000DD30DB003030E100E201E001E130DF0049
:101AC00000308800FF308600091089100911891143
:101AD000803087008312B1001F179F1383169F1752
:101AE00083121F14831603170908C03989000313D2
:101AF0001F129F12013003178800831203138B16E5
:101B00000B160B16831601138C16C03083128B0430
:101B1000353090008E010B308F00DC308E000C10C1
:101B20008A112B2A8A15B9015F10DF1083168801EC
:101B300083128801DB010317CA018A110313912A5A
:101B40008A15B5017808B4005F1CAA2D8A11992E58
:101B50008A15492EDF1CAE2DC92A492E5F18492E41
:101B60008A11832F8A15B508031DBA2D34081A3C33
:101B70000318172E0317CF01CE01031335080317DF
:101B8000CD00031334080317CC000A30D000D20173
:101B90007B30D1008A11031321258A15F3017B3094
:101BA000F2000317CF01CE01031337080317CD004E
:101BB000031336080317CC000A30D000D201CC3012
:101BC000D1008A11031321258A15F501CC30F400C8
:101BD0000317C9014908073C031C0B2E0310490DCC
:101BE0006A3E84008313840A0008CB008403000843
:101BF000CA00840083134B1883178A1103136527C7
:101C00008A1501300317D0008A11031311218A1598
:101C10000317C90AEA2D0430CA00FA30D0008A112D
:101C2000031311218A150317CA0B0D2E03135B0B27
:101C3000482EDB0130303D02DC0030303E02403EB9
:101C4000DD0030303F02DE008A119B2F8A153908F3
:101C50005C02031D482EDE08031D302E0030312E9D
:101C60000130F7005D080317CB007708CC00CE01E8
:101C7000CD018A11031377268A155D080317CB005F
:101C8000CC01CE018030CD008A11031377268A154E
:061C9000AE2D9B2D630048
:04400E00E22FFF3F5F
:00000001FF
;PIC16F887
;CRC=FEAA  CREATED="24-Oct-21 00:03"
