:100000000D308A00362D0000FF00030E8301A10091
:100010000A08A0008A010408A2007708A300780853
:10002000A4007908A5007A08A60003170D08031399
:10003000A70003170F080313A80003170C080313E6
:10004000A90003170E080313AA00831383120B1EC3
:100050002B288B1852288C308400801E31288C1A53
:100060005528220884002308F7002408F8002508F2
:10007000F9002608FA00270803178D000313280843
:1000800003178F000313290803178C0003132A0892
:1000900003178E00031320088A00210E8300FF0E31
:1000A0007F0E09008A110A12DC288A110A1213290C
:1000B0000A108A100A118207003400340A108A10CC
:1000C0000A118207303400340A108A100A1182079C
:1000D000003449223A102010201020102010201047
:1000E00020100000C422D624C3223A102010201071
:1000F0002010201020100001D322CE294F293A10C1
:10010000201020102010201000014922DF23571D4D
:10011000201030183018200020102010201020103F
:100120005F1020102000201020105F1020102000F1
:10013000C3274E23C9233A1020102010201020007E
:10014000C320D3223A1020102010201020102000AD
:10015000A016A02444102010201020102010000110
:10016000A0162022452BC921C529201020100001EE
:10017000A016A0294527D327D2292010201000013E
:10018000A016A02444102D10C72B3A1020102000D8
:10019000C3274E23C92320224F27451020102010AB
:1001A00020102000C3274E23C92320224F274510AB
:1001B000201020102010200083160317960103132F
:1001C000861483128618FB280C1CF6288316081147
:1001D0000430831288060C108E010B308F00DC3047
:1001E0008E0083160317960A8312031383160317D0
:1001F000DF2883120313831603171608143C031811
:100200000A29013083120313DF06DF145F110F295F
:100210008316031783120313DF105F11DF118B1096
:100220008A110A1231283C305A07840083138C1E2D
:1002300017291A0880003C305A07840083130008ED
:100240002E3C031D2C293C305A0784008313800167
:10025000DA010130DB002D29DA0A8C128A110A1228
:1002600031284F30840083170008031944290630D1
:10027000F800F701F70B3A29F80B39297B30F70022
:10028000F70B4029800B37290800031756184C2913
:10029000031307104E2903170313071431103108F5
:1002A0008316870083120317D6185A290313871061
:1002B0005C29031703138714B110310883168700D4
:1002C0008312031756196829031307116A290317A4
:1002D00003130715311131088316870083120317A2
:1002E000D619762903138711782903170313871565
:1002F000B111310883168700000083120914831698
:1003000009100230F700F70B8329862900008312B9
:10031000091083160910831208000317D70103136D
:10032000311431088316870000308312071801301A
:100330000317D7040313B114310883168700003064
:10034000831287180130F7000310F70D77080317A1
:10035000D704031331153108831687000030831248
:1003600007190130F700F70DF70DFC30F705770896
:100370000317D7040313B115310883168700003023
:10038000831287190130F700F70DF70DF70DF830DC
:10039000F70577080317D7045708F8000313080078
:1003A0008316091089100911831289108316891088
:1003B0000714871407158715831209158316091169
:1003C00000008312091483160910000083128D2186
:1003D00078080317D60003130910831609100000CC
:1003E0008312091483160910F529F62900008312D7
:1003F0008D2178080317D5000313091083160910FF
:10040000831231103108831687008312B11031082E
:1004100083168700831231113108831687008312F7
:10042000B11131088316870083120317560EF700A7
:10043000F030F70577085504F8007808D500D51F87
:10044000242A83160313D829D308031D2B2A031348
:1004500089102D2A031703138914831689100000AD
:1004600083120911831609110000831209108316E3
:10047000091083120317540ED5000F30D505550807
:10048000D60003134521031754080F39D500D600B1
:1004900003134521080028300317CB000C30CC0093
:1004A0000130CD000630CE00031309108316091069
:1004B000831289108316891083120911831609117A
:1004C000831231103108831687008312B11031086E
:1004D0008316870083123111310883168700831237
:1004E000B1113108831687000910891009110F30E6
:1004F00083120317CF000313312101300317CA0001
:100500004A08033C031C902A0330D60003134521FC
:1005100005300317CF00031331210317CA0A802ABD
:100520000230D6000313452105300317CF00031313
:1005300031210317CA014A08033C031CAD2A4B3082
:100540004A07840083170008CF00D3014F08D40066
:100550000313D0210317CA0A9B2A03138A150A1210
:10056000A92E03174A0DF700F70DFC30F70503130A
:100570001F08C33977049F00B301B2010317CB01F1
:100580004B08633C031CD82A03139F149F18C62AE8
:1005900083161E088312B2071E0803181E0FB30726
:1005A00001300317CF00031331210317CB0AC02AF0
:1005B000031333080317CD00031332080317CC00CD
:1005C0008E30F7004D08F8004C08F900FA01F808E1
:1005D000031DF42A7908F800F9010830F702F80839
:1005E000031DF42AF701FC2A0310F81BFB2AF90D5E
:1005F000F80DF703F42AF8137A08CF007908CE0033
:100600007808CD007708CC009A30D3009930D2001A
:100610004C30D1008630D0004C080319D12BD800C3
:1006200050080319D12BD802031C1B2B7F30D8078D
:100630000318D12B212B8130D802031CD12B031995
:10064000D12B5808F700F801F901FA01D7014D083C
:10065000D600D6174E08D5004F08D4001930D80060
:100660005308D4020318442B0130D5020318442B3D
:10067000D6020318442BD7020318442BD70AD60AF4
:10068000D50A5308D407762B5208D50203185F2BDE
:100690000130D60203185F2BD70203185F2BD70A4D
:1006A000D60A5208D5075308D407031C762BD50A5F
:1006B000031D762BD60A031D762BD70A762B5108FD
:1006C0008038D6020318752B0130D7020318752B1A
:1006D000D70A51088038D6075208D507031C532B78
:1006E000D60A031D532BD70A532B7A14D80B792B18
:1006F000842B0310D40DD50DD60DD70D0310FA0D94
:10070000F90DF80DD90D302B591C8C2B0310F80C5A
:10071000F90CFA0CD90C8F2BF7030319D12BD91B29
:10072000B82B0310D40DD50DD60DD70D5308D40218
:100730000318A42B0130D5020318A42BD6020318EA
:10074000A42BD702031CC72B5208D5020318AF2BCA
:100750000130D6020318AF2BD702031CC72B510858
:100760008038D6020318B82B0130D702031CC72BE0
:10077000FA0A031DC72BF90A031DC72BF80A031D2C
:10078000C72BF70A0319D12BF80CF90CFA0C4D08FA
:10079000D8005108D806D81FCF2BF817D52BF8133F
:1007A000D52BF701F801F901FA017A08CF00790891
:1007B000CE007808CD007708CC008E30F7004C08CA
:1007C000F7024D08F9004E08F800F917F708031969
:1007D000F42B0310F908031DF02BF8080319F42B70
:1007E000F90CF80CF70BE92BCD1FFB2BF809F909D5
:1007F000F80A0319F90A79080313B3007808B2005C
:100800003208F8008A150A12B72E0317500B092C6C
:100810000C2C4030D1000D2CD10101304F02D107FA
:1008200051088038D200D3015208D4000313D021DC
:10083000080003174E08073A03130319292C0B3A33
:100840000319302C063A03193C2C023A0319442CA4
:100850004B2C01300317CF00D00003130524522C7A
:100860000317D3010130D4000313D0210230031742
:10087000CF0003133121522C01300317CF00023077
:10088000D00003130524522C0317D3011030D400D9
:100890000313D021522C01300317D3004E08D4008B
:1008A0000313D02108000B080317CB0003138B138D
:1008B000831603178C170C14000000008312CB1F43
:1008C000642C03138B1703170C087F390319A12C11
:1008D000CB000D08CC000F08CD004B08CE00031351
:1008E000192403174C088D004D088F0003130B08C3
:1008F0000317CE0003138B13831603178C170C14E6
:10090000000000008312CE1F882C03138B170317DF
:100910000C0D0E0D7F390319A12CCB000D08CC0056
:100920000F08CD004B08CE000313192403174C0801
:100930008D004D088F008D0A03198F0A0313532C65
:100940000317031308008318A82C90308400831722
:10095000031766086A068039831695008312E61F1E
:10096000BC2CE309E409E509E609E30A0319E40AF2
:100970000319E50A0319E60AEA1FC92CE709E80981
:10098000E909EA09E70A0319E80A0319E90A031958
:10099000EA0AF701F801F901FA01831690019101C1
:1009A0009201930183126A086904680467040319B9
:1009B000252D20308316940003108312E30DE40DDF
:1009C000E50DE60D8316900D910D920D930D83129A
:1009D0006A0883161302031DFD2C8312690883160F
:1009E0001202031DFD2C8312680883161102031DD9
:1009F000FD2C8312670883161002031C1E2D831220
:100A000067088316900283126808031C680F092D7B
:100A10000C2D8316910283126908031C690F112D96
:100A2000142D8316920283126A08031C6A0F192D73
:100A30001C2D83169302831203148316F70DF80DF1
:100A4000F90DFA0D940BDC2C83128316951F332DB0
:100A5000F709F809F909FA09F70A0319F80A031955
:100A6000F90A0319FA0A10088000840A11088000A4
:100A7000840A12088000840A13088000831203137A
:100A800008000317D601D501D4010130D300D801E5
:100A9000D901CF1F8B2D0130D8004F08DE004E0842
:100AA000DD004D08DC004C08DB00FF30E200E10017
:100AB000E000DF002030E700E301E401E501E601AA
:100AC0005E08FA005D08F9005C08F8005B08F700B2
:100AD0000310771C792D5F08E30760080318600F87
:100AE000E40761080318610FE50762080318620F45
:100AF000E607E60CE50CE40CE30CFA0CF90CF80C38
:100B0000F70CE70B682D7A08CF007908CE0078083B
:100B1000CD007708CC00D308031D972DD408031D02
:100B2000972DD508031D972DD6080319132E831072
:100B30004F08E6004E08E5004D08E4004C08E300CD
:100B4000EA01E901E8015008E7000313A3247A0849
:100B50000317D6007908D5007808D4007708D300A9
:100B600059085107F8005208FA000318FA0A7808E1
:100B7000DB007A08DC00DE010408DD005E10831B68
:100B80005E1483145F30840083174F08E6004E081C
:100B9000E5004D08E4004C08E300EA01E901E80142
:100BA0005008E7000313A32403175D088400831390
:100BB0005E18831730305F07F7006008F8000030D8
:100BC00003180130F8076108F900003003180130FC
:100BD000F9076208FA00003003180130FA075B08D1
:100BE000840083135C188317770880005908510725
:100BF00084008313521883170008393C0318092E08
:100C000059085107840083135218831707300007CF
:100C10008000D90A5608CF005508CE005408CD00F0
:100C20005308CC008B2D580B1E2E590851078400F9
:100C30008313521883172D308000D90AD70103106F
:100C4000590C57020318542E570851078400831378
:100C5000521883170008DA0057085107F8005208A5
:100C6000FA000318FA0A7808DB007A08DC00570853
:100C70005902FF3E5107840083135218831700085E
:100C8000DD005B08840083135C1883175D08800017
:100C900057085902FF3E51078400831352188317E7
:100CA0005A088000D70A1F2E590851078400831361
:100CB0005218831780015108F8005208F9000313F5
:100CC0000800800803197D2E0317CC010408CB000F
:100CD0004C10831B4C140008CE0003131924031777
:100CE0004B08840083134C188317840A031D7B2E42
:100CF0000313850A03170313612E080003174C081A
:100D00000739F7004C0CF800F80CF80C1F30F80508
:100D100078084D07840083134E1883170008F800E5
:100D2000F70A932EF80CF70B922E03130800031703
:100D30004B080739F7004B0CF800F80CF80C1F3083
:100D4000F80578084D07840083134E188317F801BF
:100D5000F80AF70AAC2EF80DF70BAB2ECC080319E6
:100D6000B42E78088004B72EF8097808800503139C
:100D7000080003174D08D1004C08D0005108FA00B4
:100D80005008840083137A18831780080319CC2E27
:100D9000D00A0319D10ABE2E4F08FA004E0884006B
:100DA00083137A18831780080319EB2E4E088400EA
:100DB00083134F1883170008D4005008840083134E
:100DC0005118831754088000D00A0319D10ACE0A9B
:100DD0000319CF0ACC2E50088400831351188317AF
:100DE00080014C08F8004D08F900031308005F1556
:100DF00001300317CF00D000031305240A30031776
:100E0000CF0003133121983003178D0000308F007D
:100E10000313532401300317CF000230D000031313
:100E200005240A300317CF0003133121A030031724
:100E30008D0000308F00031353245F1D752F831620
:100E4000061583120619742FB80A0330B80502304C
:100E50000317CA009630CF00031331210317CA0BC2
:100E60002A2F0630CF000230D000031305240317C9
:100E7000CF01CE01CD01031338080317CC000A308F
:100E8000D000D201D730D100031341250A30031717
:100E9000CF0003133121D730840083136126380833
:100EA000FC3E0318742F043E7D2FA83003178D00DD
:100EB00000308F0003135324742FB03003178D00BC
:100EC00000308F0003135324742FB83003178D00A4
:100ED00000308F0003135324742FC03003178D008C
:100EE00000308F00031353241D2FDF187A2F8A152B
:100EF00000288A118A150A12BF2E0A148A140A15AC
:100F00008207552F5D2F652F6D2F80080319A22FA3
:100F10000317CE010408CD004E10831B4E140008A9
:100F200003130C1E912F990003174D08840083139F
:100F30004E188317840A031DA02F0313850A031775
:100F40000313852F08000317CA014A081E3C031C1F
:100F5000B72F83160313881002308312880664307B
:100F60000317CF00031331210317CA0AA52F031358
:100F70008A150A12C92E01300317CF00D0000313BF
:100F800005240A300317CF00031331213C308400BD
:100F90008313612601300317CF00031331218A1513
:040FA0000A123D2FC5
:10100000DF103808FC3E0318A72B043EAA2BDF1084
:10101000DF1501300317CF000230D0008A1103130F
:1010200005248A150A300317CF008A1103133121D2
:101030008A15693003178D0000308F008A11031361
:1010400053248A15DF1D6D28831606158312061991
:101050006C28B90A39080F3C031CB9010230031788
:10106000CA009630CF008A11031331218A15031765
:10107000CA0B3128CF01CE01CD0103133908031764
:10108000CC000A30D000D2017B30D1008A1103138A
:1010900041258A1509300317CF000230D0008A118C
:1010A000031305248A150A300317CF008A1103138E
:1010B00031218A157B30840083138A1161268A15B9
:1010C00001300317CF008A11031331218A158316CB
:1010D00008100130831288062228A72BDF10DF15A5
:1010E00001300317CF000230D0008A11031305240A
:1010F0008A150A300317CF008A11031331218A158C
:10110000723003178D0000308F008A1103135324AF
:101110008A15DF1D752983160615831206191A29EB
:10112000BA0A3A08073C031CBA0102300317CA0086
:101130009630CF008A11031331218A150317CA0B89
:101140009828CF01CE01CD0103133A080317CC0034
:101150000A30D000D201D730D1008A1103134125C3
:101160008A1509300317CF000230D0008A1103130B
:1011700005248A150A300317CF008A110313312181
:101180008A15D730840083138A1161268A150130AD
:101190000317CF008A11031331218A15203003175A
:1011A000CE008A11031319248A153A300317CE0092
:1011B0008A11031319248A1520300317CE008A11CF
:1011C000031319248A1501300317CF008A11031362
:1011D00031218A153A080317CC00CE016030CD00CA
:1011E0008A1103137E268A15003078180130031700
:1011F000CA00CF01CE01CD014A08CC000A30D00090
:10120000D201D730D1008A11031341258A15D73076
:10121000840083138A1161268A1501300317CF00D9
:101220008A11031331218A158316081001308312A5
:1012300088067429831686158312861974293A083C
:101240000317CC00CE016030CD008A1103137E2637
:101250008A150030781C01300317CA0003133A08BE
:101260000317CB004A08CC00CE016030CD008A11B4
:10127000031397268A150D300317CF000230D000D4
:101280008A11031305248A1502300317CA00963009
:10129000CF008A11031331218A150317CA0B47297E
:1012A00003133A080317CC00CE016030CD008A1139
:1012B00003137E268A150030781801300317CA0000
:1012C000CF01CE01CD014A08CC000A30D000D201B6
:1012D000D730D1008A11031341258A15D7308400F5
:1012E00083138A1161268A158928A72BDF10DF1541
:1012F00001300317CF000230D0008A1103130524F8
:101300008A150A300317CF008A11031331218A1579
:101310007C3003178D0000308F008A110313532493
:101320008A15DF1D7D2A8316061583120619222AC7
:10133000BB0A3B08033C031CBB0102300317CA0075
:101340009630CF008A11031331218A150317CA0B77
:10135000A029CF01CE01CD0103133B080317CC0018
:101360000A30D000D201D730D1008A1103134125B1
:101370008A1509300317CF000230D0008A110313F9
:1013800005248A150A300317CF008A11031331216F
:101390008A15D730840083138A1161268A1501309B
:1013A0000317CF008A11031331218A152030031748
:1013B000CE008A11031319248A153A300317CE0080
:1013C0008A11031319248A1520300317CE008A11BD
:1013D000031319248A1501300317CF008A11031350
:1013E00031218A153B080317CC00CE016130CD00B6
:1013F0008A1103137E268A150030781801300317EE
:10140000CA00CF01CE01CD014A08CC000A30D0007D
:10141000D201D730D1008A11031341258A15D73064
:10142000840083138A1161268A1501300317CF00C7
:101430008A11031331218A15831608100130831293
:1014400088067C2A83168615831286197C2A3B0817
:101450000317CC00CE016130CD008A1103137E2624
:101460008A150030781C01300317CA0003133B08AB
:101470000317CB004A08CC00CE016130CD008A11A1
:10148000031397268A150D300317CF000230D000C2
:101490008A11031305248A1502300317CA009630F7
:1014A000CF008A11031331218A150317CA0B4F2A63
:1014B00003133B080317CC00CE016130CD008A1125
:1014C00003137E268A150030781801300317CA00EE
:1014D000CF01CE01CD014A08CC000A30D000D201A4
:1014E000D730D1008A11031341258A15D7308400E3
:1014F00083138A1161268A159129A72B0317CA0124
:10150000CB01CC01CC30840083134B0884074C08FA
:101510008A11031358208A15800000380319952A70
:101520000317CC0ACB0A822A03130317CB01CC0181
:10153000DF30840083134B0884074C088A1103139F
:101540005E208A15800000380319AB2A0317CC0AE5
:10155000CB0A982A0313DF10DF1501300317CF00E1
:101560000230D0008A11031305248A150A300317AC
:10157000CF008A11031331218A15853003178D009E
:1015800000308F008A11031353248A15013003178A
:10159000CF00D0008A11031305248A158C3003175D
:1015A0008D0000308F008A11031353248A15DF1D2C
:1015B000772B8316061583120619032B0317CA0A05
:1015C0000330CA0505304A07CB00CF000130D000F8
:1015D0008A11031305248A15933003178D000030F8
:1015E0008F008A11031353248A1502300317CB008E
:1015F0009630CF008A11031331218A150317CB0BC4
:10160000F82A752B03138316861583128619762BF9
:10161000D33003174A0784008313800AD3304A0764
:10162000F800FA010318FA0A7808CB007A08CC000F
:10163000D3304A07840083130008CE000A30CF005D
:101640004F08F8014E020318282B4E08F700342BE0
:10165000F7010830D000CE0DF70D4F0877020318C0
:10166000F700F80DD00B2B2B7708CD004B0884002A
:1016700083134C1883174D088000D3304A07840029
:1016800083130008CB00CF01CE01CD014B08CC0065
:101690000A30D000D201DF30D1008A110313412576
:1016A0008A15093003174A07CB00CF000230D0005B
:1016B0008A11031305248A150A300317CF008A11F3
:1016C000031331218A15DF30840083138A116126C8
:1016D0008A1502300317CB009630CF008A1103130E
:1016E00031218A150317CB0B6C2B0313D72A031751
:1016F000CA014A08033C031CA62BD3304A078400C6
:1017000083130008CB00CF01CE01CD014B08CC00E4
:101710000A30D000D201DF30D1008A1103134125F5
:101720008A1501300317CF008A11031331218A155E
:101730000317CD01CC30CC00CF01DF30CE008A11B1
:101740000313B9268A150317CA0A792B03138A11C2
:101750000A12792F0A148A140A11820707286E28A0
:1017600076297E2A5F11DF118316BD01CC30BC00C3
:10177000023083120317CF008A11031331218A1517
:101780008316BF017B30BE00023083120317CF00E7
:101790008A11031331218A150317CB01CC01623062
:1017A000840083134B0884074C088A1103136420B8
:1017B0008A15800000380319E22B0317CC0ACB0AE4
:1017C000CF2B03130317CB01CC01663084008313A6
:1017D0004B0884074C088A11031364208A15800083
:1017E00000380319F82B0317CC0ACB0AE52B031397
:1017F000FA01DB30840083137A1883178001FA0121
:101800006230840083137A18831780010317CB0199
:101810004B08073C031C3B2C4B08CC00CE0160302E
:10182000CD008A1103137E268A15781C382C0317E5
:10183000CF01CE01CD014B08CC000A30D000D2013F
:10184000DB30D1008A11031341258A1501300317BB
:10185000CF008A11031331218A150317CD0162309D
:10186000CC00CF01DB30CE008A110313B9268A15D4
:101870000317CB0A082CFA01DB30840083137A1893
:1018800083178001FA01DF30840083137A188317ED
:101890008001CB014B08043C031C7D2C4B08CC0081
:1018A000CE016130CD008A1103137E268A15781C83
:1018B0007A2C0317CF01CE01CD014B08CC000A30A2
:1018C000D000D201DB30D1008A11031341258A15E3
:1018D00001300317CF008A11031331218A15031732
:1018E000CD01DF30CC00CF01DB30CE008A110313F5
:1018F000B9268A150317CB0A4A2C83160313C7018E
:101900006230C600023083120317CF008A1103131E
:1019100031218A158316C901DF30C800F601313044
:10192000C0003230C10083120317CA014A08083CC4
:10193000031CCA2C03104A0DBA3E84008313840A88
:101940000008CC0084030008CB004C08CE004B08F4
:10195000CD004E08D0004D08CF005008FA004F08C7
:10196000840083137A18831780080319BB2CCF0ACD
:101970000319D00AAD2C4D084F02F7005008FA00A9
:101980004E08031C4E0FFA027708F8007808F60795
:10199000CA0A962C0730F607CF01CE01CD01760892
:1019A000CC000A30D000D201D730D1008A11031305
:1019B00041258A158316C101D730C0008312031751
:1019C000CA014A08083C031CFF2C03104A0DBA3E0A
:1019D00084008313840A0008CC0084030008CB0031
:1019E000840083134C1883178A11031385278A15E3
:1019F00040300C1EF92C99000317CA0AE12C013063
:101A0000CF00D0008A11031305248A150A3003176A
:101A1000CF008A11031331218A15C83003178D00B6
:101A200000308F008A11031353248A1501300317E5
:101A3000CF000230D0008A11031305248A150A3022
:101A40000317CF008A11031331218A15D2300317EF
:101A50008D0000308F008A11031353248A15ED0185
:101A60007B30EC00DF108A150A12C42E03081F39E0
:101A7000830083160317871508300313990002307B
:101A80009A00A6309800903083129800FF30B10081
:101A9000B801B901BA01BB01DA01DB015F10DF1047
:101AA0005F11DF11F601831603170908C039890099
:101AB00003131F129F12003003178800831287013F
:101AC0008801890183130313AB01AC01D630E00018
:101AD0000F30E1002030E400E501E3016430E20072
:101AE0002030E800E901E7016830E6002A3083167B
:101AF000A000A1014930A2004430A300A40153304A
:101B0000A5005F30A6005330A700A8014C30A90003
:101B10004530AA004E30AB004730AC004830AD0035
:101B20005430AE00AF014E30B0004830B100493003
:101B3000B2004530B3005430B4004430B5004F30EB
:101B4000B600B7012330B800B9018312EB01A03011
:101B5000EA00ED01A230EC00EF01A530EE00F1014A
:101B6000A930F000F301B030F200F501B830F40014
:101B70002A300317900091014930920044309300BD
:101B80005F309400473095005730960097014930F8
:101B90009800443099005F309A004E309B004F30DF
:101BA0009C0044309D0045309E009F014C30A000B9
:101BB0004530A1004E30A2004730A3004830A400B9
:101BC0005430A500A6014330A7005F30A80046307E
:101BD000A900AA014930AB004430AC005F30AD0031
:101BE0004330AE005530AF00B0014430B100453055
:101BF000B2005630B3004930B4004330B500453030
:101C0000B6003130B7003230B8003330B90034306C
:101C1000BA00BB015330BC004530BD004E30BE00A1
:101C20005330BF004F30C0005230C1003130C200CD
:101C30003230C3003330C4003430C500C601233015
:101C4000C700C801013083160313BB001030BA006F
:101C50000130BD001230BC000130BF001830BE00A2
:101C60000130C1002030C0000130C3002730C20065
:101C70000130C5002B30C4000130C7003130C60030
:101C80000130C9003C30C8000130CB004730CA00E9
:101C90003030FD00FE01FC017D30FB003030CE0015
:101CA000CF00D000D100D201CD01CE30CC00D30185
:101CB000D401D501D6013030D900DA01D801D930AC
:101CC000D7003030DD00DE01DC01DD30DB003030FC
:101CD000E100E201E001E130DF003230E3003730C3
:101CE000E400E5013230E6003730E700E80100307B
:101CF0008800FF3086000910891009118911803091
:101D000087008312B1001F179F1383169F1783123A
:101D10001F14831603170908C039890003131F1203
:101D20009F12013003178800831203138B160B16C2
:101D30000B16831601138C16C03083128B043530BA
:101D400090008E010B308F00DC308E000C108A1159
:101D50004B2A8A15B9015F10DF10831688018312A0
:101D60008801DB010317CA018A110313B12A8A15FE
:101D7000B5017808B4005F1CC12E8A11F72E8A15B0
:101D8000602FDF1CC52EB22B602F5F18602F8A11C9
:101D9000A32F8A15B508031DD12E34081A3C031849
:101DA0002E2F0317CF01CE01031335080317CD00E3
:101DB000031334080317CC000A30D000D201E330FB
:101DC000D1008A11031341258A15F301E330F20093
:101DD0000317CF01CE01031337080317CD000313F8
:101DE00036080317CC000A30D000D201E630D1000B
:101DF0008A11031341258A15F501E630F400031713
:101E0000C9014908073C031C222F0310490D6A3EF3
:101E100084008313840A0008CB0084030008CA00EE
:101E2000840083134B1883178A11031385278A159F
:101E300001300317CF008A11031331218A150317CC
:101E4000C90A012F0430CA00FA30CF008A110313E7
:101E500031218A150317CA0B242F03135B0B5F2F45
:101E6000DB0130303D02DC0030303E02403EDD0020
:101E700030303F02DE008A11BB2F8A1539085C0220
:101E8000031D5F2FDE08031D472F0030482F013050
:101E9000F7005D080317CB007708CC00CE01CD0119
:101EA0008A11031397268A155D080317CB00CC010E
:101EB000CE018030CD008A11031397268A15C52ED6
:041EC000B22E6300DB
:04400E00E22FFF3F5F
:00000001FF
;PIC16F887
;CRC=646B  CREATED="24-Oct-21 02:03"
