:1000000010308A0000280000FF00030E8301A100C9
:100010000A08A0008A010408A2007708A300780853
:10002000A4007908A5007A08A60003170D08031399
:10003000A70003170F080313A80003170C080313E6
:10004000A90003170E080313AA00831383120B1EC3
:100050002B288B1852288C308400801E31288C1A53
:100060005528220884002308F7002408F8002508F2
:10007000F9002608FA00270803178D000313280843
:1000800003178F000313290803178C0003132A0892
:1000900003178E00031320088A00210E8300FF0E31
:1000A0007F0E09008A110A12DC288A110A1215290A
:1000B0000A108A100A118207303400340A108A109C
:1000C0000A11820700340A108A100A1182075F346D
:1000D000003449223A102010201020102010201047
:1000E00020100000C422D624C3223A102010201071
:1000F0002010201020100001D322CE294F293A10C1
:10010000201020102010201000014922DF23571D4D
:10011000201030183018200020102010201020103F
:100120005F1020102000201020105F1020102000F1
:10013000C3274E23C9233A1020102010201020007E
:10014000C320D3223A1020102010201020102000AD
:10015000A016A02444102010201020102010000110
:10016000A0162022452BC921C529201020100001EE
:10017000A016A0294527D327D2292010201000013E
:10018000A016A02444102D10C72B3A1020102000D8
:10019000C3274E23C92320224F27451020102010AB
:1001A00020102000C3274E23C92320224F274510AB
:1001B000201020102010200083160317960103132F
:1001C000861483128618FB280C1CF6288316081147
:1001D0000430831288060C108E010B308F00DC3047
:1001E0008E0083160317960A8312031383160317D0
:1001F000DF2883120313831603171608143C031811
:100200000C29023083120313D5060430D506D51508
:10021000551211298316031783120313D511551292
:10022000D5128B108A110A12312841303C07840004
:1002300083138C1E19291A08800041303C07840062
:10024000831300082E3C031D2D2941303C078400F8
:1002500083138001BC0155142E29BC0A8C128A110B
:100260000A123128513084008317000803194529E8
:100270000630F800F701F70B3B29F80B3A297B30E1
:10028000F700F70B4129800B38290800031758188D
:100290004D29031307104F290317031307143110B7
:1002A00031088316870083120317D8185B290313BC
:1002B00087105D29031703138714B11031088316C3
:1002C00087008312031758196929031307116B2933
:1002D00003170313071531113108831687008312A2
:1002E0000317D819772903138711792903170313E3
:1002F0008715B11131088316870000008312091495
:10030000831609100230F700F70B842987290000B3
:100310008312091083160910831208000317D901EC
:100320000313311431088316870000308312071835
:1003300001300317D9040313B11431088316870061
:100340000030831287180130F7000310F70D77088B
:100350000317D904031331153108831687000030C1
:10036000831207190130F700F70DF70DFC30F70580
:1003700077080317D9040313B115310883168700D2
:100380000030831287190130F700F70DF70DF70DD4
:10039000F830F70577080317D9045908F800031354
:1003A0000800831609108910091183128910831619
:1003B00089100714871407158715831209158316EA
:1003C000091100008312091483160910000083121A
:1003D0008E2178080317D80003130910831609101B
:1003E00000008312091483160910F629F72900006A
:1003F00083128E2178080317D70003130910831680
:100400000910831231103108831687008312B1104E
:100410003108831687008312311131088316870053
:100420008312B11131088316870083120317580E07
:10043000F700F030F70577085704F8007808D70080
:10044000D71F252A83160313D929D508031D2C2A63
:10045000031389102E2A0317031389148316891096
:10046000000083120911831609110000831209107C
:100470008316091083120317560ED7000F30D705C5
:100480005708D80003134621031756080F39D70021
:10049000D80003134621080028300317CD000C3084
:1004A000CE000130CF000630D000031309108316B0
:1004B000091083128910831689108312091183167B
:1004C0000911831231103108831687008312B1108D
:1004D0003108831687008312311131088316870093
:1004E0008312B11131088316870009108910091190
:1004F0000F3083120317D100031332210130031789
:10050000CC004C08033C031C912A0330D800031391
:10051000462105300317D100031332210317CC0AFB
:10052000812A0230D8000313462105300317D10079
:10053000031332210317CC014C08033C031CAE2AE1
:100540004D304C07840083170008D100D5015108B5
:10055000D6000313D1210317CC0A9C2A03138A1156
:100560000A1694290317520BB62AB92A4030D30031
:10057000BA2AD30101305102D30753088038D4007E
:10058000D5015408D6000313D121080003175008E1
:10059000073A03130319D62A0B3A0319DD2A063A40
:1005A0000319E92A023A0319F12AF82A013003173C
:1005B000D100D2000313B222FF2A0317D501013064
:1005C000D6000313D12102300317D10003133221C7
:1005D000FF2A01300317D1000230D2000313B222E8
:1005E000FF2A0317D5011030D6000313D121FF2AAB
:1005F00001300317D5005008D6000313D12108009D
:100600000B080317CD0003138B13831603178C17E6
:100610000C14000000008312CD1F112B03138B1745
:1006200003170C087F3903194E2BCD000D08CE009F
:100630000F08CF004D08D0000313C62203174E0841
:100640008D004F088F0003130B080317D00003130E
:100650008B13831603178C170C14000000008312F1
:10066000D01F352B03138B1703170C0D0E0D7F397D
:1006700003194E2BCD000D08CE000F08CF004D08FA
:10068000D0000313C62203174E088D004F088F00B9
:100690008D0A03198F0A0313002B03170313080095
:1006A0008318552B903084008317031768086C0655
:1006B0008039831695008312E81F692BE509E60946
:1006C000E709E809E50A0319E60A0319E70A031925
:1006D000E80AEC1F762BE909EA09EB09EC09E90ABB
:1006E0000319EA0A0319EB0A0319EC0AF701F801E6
:1006F000F901FA018316900191019201930183128D
:100700006C086B046A0469040319D22B2030831629
:10071000940003108312E50DE60DE70DE80D831636
:10072000900D910D920D930D83126C088316130298
:10073000031DAA2B83126B0883161202031DAA2B1A
:1007400083126A0883161102031DAA2B83126908FB
:1007500083161002031CCB2B8312690883169002A8
:1007600083126A08031C6A0FB62BB92B83169102F9
:1007700083126B08031C6B0FBE2BC12B83169202D6
:1007800083126C08031C6C0FC62BC92B83169302B3
:10079000831203148316F70DF80DF90DFA0D940B5F
:1007A000892B83128316951FE02BF709F809F909A5
:1007B000FA09F70A0319F80A0319F90A0319FA0AD8
:1007C00010088000840A11088000840A1208800042
:1007D000840A130880008312031308000317D8014A
:1007E000D701D6010130D500DA01DB01D11F382C49
:1007F0000130DA005108E0005008DF004F08DE0049
:100800004E08DD00FF30E400E300E200E1002030AC
:10081000E900E501E601E701E8016008FA005F0888
:10082000F9005E08F8005D08F7000310771C262C1D
:100830006108E50762080318620FE60763080318FA
:10084000630FE70764080318640FE807E80CE70C78
:10085000E60CE50CFA0CF90CF80CF70CE90B152C6E
:100860007A08D1007908D0007808CF007708CE0048
:10087000D508031D442CD608031D442CD708031D9E
:10088000442CD8080319C02C83105108E8005008E4
:10089000E7004F08E6004E08E500EC01EB01EA0135
:1008A0005208E900031350237A080317D800790887
:1008B000D7007808D6007708D5005B085307F80002
:1008C0005408FA000318FA0A7808DD007A08DE00F6
:1008D000E0010408DF006010831B601483146130A2
:1008E000840083175108E8005008E7004F08E6002D
:1008F0004E08E500EC01EB01EA015208E9000313A0
:10090000502303175F088400831360188317303067
:100910006107F7006208F800003003180130F8079B
:100920006308F900003003180130F9076408FA0081
:10093000003003180130FA075D08840083135E1845
:100940008317770880005B085307840083135418CB
:1009500083170008393C0318B62C5B085307840042
:10096000831354188317073000078000DB0A5808E8
:10097000D1005708D0005608CF005508CE00382CBB
:100980005A0BCB2C5B08530784008313541883172E
:100990002D308000DB0AD90103105B0C59020318CB
:1009A000012D590853078400831354188317000836
:1009B000DC0059085307F8005408FA000318FA0A33
:1009C0007808DD007A08DE0059085B02FF3E530715
:1009D00084008313541883170008DF005D08840027
:1009E00083135E1883175F08800059085B02FF3E7F
:1009F000530784008313541883175C088000D90AB6
:100A0000CC2C5B0853078400831354188317800190
:100A10005308F8005408F90003130800800803196C
:100A20002A2D0317CE010408CD004E10831B4E144F
:100A30000008D0000313C62203174D088400831357
:100A40004E188317840A031D282D0313850A0317E4
:100A500003130E2D080003174E080739F7004E0C3C
:100A6000F800F80CF80C1F30F80578084F078400E0
:100A70008313501883170008F800F70A402DF80C6C
:100A8000F70B3F2D0313080003174D080739F70034
:100A90004D0CF800F80CF80C1F30F80578084F07DB
:100AA0008400831350188317F801F80AF70A592DA8
:100AB000F80DF70B582DCE080319612D7808800426
:100AC000642DF809780880050313080055160130D5
:100AD0000317D100D2000313B2220A300317D1004A
:100AE00003133221983003178D0000308F00031359
:100AF000002301300317D1000230D2000313B222C9
:100B00000A300317D10003133221A03003178D00E0
:100B100000308F0003130023551EE42D83160615A5
:100B200083120619E32DB80A0330B8050230031703
:100B3000CC009630D100031332210317CC0B992D32
:100B40000630D1000230D2000313B2220317D101C4
:100B5000D001CF01031338080317CE000A30D200AA
:100B6000D401D830D3000313EE230A300317D10089
:100B700003133221D830840083130E253808FC3E3D
:100B80000318E32D043EEC2DA83003178D00003030
:100B90008F0003130023E32DB03003178D000030C6
:100BA0008F0003130023E32DB83003178D000030AE
:100BB0008F0003130023E32DC03003178D00003096
:100BC0008F00031300238C2DD519E92D8A150028D9
:100BD0008A118A110A16A2290A148A100A15820794
:100BE000C42DCC2DD42DDC2D03174F08D3004E0877
:100BF000D2005308FA005208840083137A1883172E
:100C000080080319072ED20A0319D30AF92D5108B7
:100C1000FA005008840083137A1883178008031998
:100C2000262E500884008313511883170008D6001D
:100C30005208840083135318831756088000D20A81
:100C40000319D30AD00A0319D10A072E52088400C7
:100C500083135318831780014E08F8004F08F900DA
:100C600003130800800803194F2E0317D00104084E
:100C7000CF005010831B5014000803130C1E3E2E8F
:100C8000990003174F088400831350188317840AB0
:100C9000031D4D2E0313850A03170313322E08007C
:100CA0005512D512FA01E8300317CD007A08CE00AC
:100CB0004D08840083134E1883178001CC014C0823
:100CC000033C031C862E7B304C07840083130008F2
:100CD000CD00D101D001CF014D08CE000A30D200A5
:100CE000D401D830D3000313EE2301300317D10011
:100CF000031332210317CF01E830CE00D101D830E1
:100D0000D0000313F4250317CC0A5F2E83160313B8
:100D1000CB01E830CA00023083120317D10003135D
:100D200032218316CD017130CC00023083120317BB
:100D3000D100031332210317CD01CE0158308400B6
:100D400083134D0884074E0803135E20800000388B
:100D50000319AF2E0317CE0ACD0A9E2E0313FA01F4
:100D6000D830840083137A1883178001FA01583031
:100D7000840083137A18831780010317CD014D086F
:100D8000073C031CEA2E4D08CE00D0015630CF00A0
:100D900003132B25781CE72E0317D101D001CF01B7
:100DA0004D08CE000A30D200D401D830D30003134E
:100DB000EE2301300317D100031332210317CF01B3
:100DC0005830CE00D101D830D0000313F4250317DA
:100DD000CD0ABF2EFA01D830840083137A18831706
:100DE0008001FA01DD30840083137A1883178001B3
:100DF000CD014D08043C031C242F4D08CE00D0012A
:100E00005730CF0003132B25781C212F0317D10156
:100E1000D001CF014D08CE000A30D200D401D83025
:100E2000D3000313EE2301300317D1000313322143
:100E30000317CF01DD30CE00D101D830D00003132D
:100E4000F4250317CD0AF92E83160313D301583066
:100E5000D200023083120317D1000313322183160C
:100E6000D501DD30D400F6013130CE003230CF0074
:100E700083120317CC014C08083C031C6F2F03108E
:100E80004C0DC83E84008313840A0008CE008403FE
:100E90000008CD004E08D0004D08CF005008D20009
:100EA0004F08D1005208FA005108840083137A18C1
:100EB000831780080319602FD10A0319D20A522F11
:100EC0004F085102F7005208FA005008031C500F57
:100ED000FA027708F8007808F607CC0A3B2F0730AB
:100EE000F607D101D001CF017608CE000A30D2003A
:100EF000D401D830D3000313EE238316CF01D830AA
:100F0000CE0083120317CC014C08073C031CA02F12
:100F100003104C0DC83E84008313840A0008CE00E1
:100F200084030008CD00840083134E188317031335
:100F3000322640300C1E9A2F99000317CC0A842FBA
:100F40000130D100D2000313B2220A300317D100BE
:100F500003133221C83003178D0000308F000313B4
:100F6000002301300317D1000230D2000313B22254
:100F70000A300317D10003133221D23003178D003A
:100F800000308F0003130023E6017130E500D51116
:100F90008A110A16A8290317CC014C081E3C031C11
:100FA000DF2F831603138810023083128806643003
:100FB0000317D100031332210317CC0ACD2F0313DB
:100FC0008A110A16AE2901300317D100D20003138B
:100FD000B2220A300317D1000313322141308400BA
:100FE00083130E2501300317D100031332218A1118
:040FF0000A161D2A96
:10100000D5113808FC3E0318612B043E642BD51122
:10101000D51601300317D1000230D2008A11031314
:10102000B2228A150A300317D1008A110313322124
:101030008A15693003178D0000308F008A11031361
:1010400000238A15D51E6D288316061583120619EE
:101050006C28B90A39080F3C031CB9010230031788
:10106000CC009630D1008A11031332218A15031760
:10107000CC0B3128D101D001CF010313390803175C
:10108000CE000A30D200D4017130D3008A1103138C
:10109000EE238A1509300317D1000230D2008A11DD
:1010A0000313B2228A150A300317D1008A110313E1
:1010B00032218A157130840083138A110E258A1516
:1010C00001300317D1008A11031332218A158316C8
:1010D00008100130831288062228612BD511D516FD
:1010E00001300317D1000230D2008A110313B2225B
:1010F0008A150A300317D1008A11031332218A1589
:10110000723003178D0000308F008A110313002303
:101110008A15D51E752983160615831206191A29F4
:10112000BA0A3A08073C031CBA0102300317CC0084
:101130009630D1008A11031332218A150317CC0B84
:101140009828D101D001CF0103133A080317CE002C
:101150000A30D200D401D830D3008A110313EE2311
:101160008A1509300317D1000230D2008A11031307
:10117000B2228A150A300317D1008A1103133221D3
:101180008A15D830840083138A110E258A15013000
:101190000317D1008A11031332218A152030031757
:1011A000D0008A110313C6228A153A300317D000E3
:1011B0008A110313C6228A1520300317D0008A1122
:1011C0000313C6228A1501300317D1008A110313B5
:1011D00032218A153A080317CE00D0015630CF00CD
:1011E0008A1103132B258A15003078180130031754
:1011F000CC00D101D001CF014C08CE000A30D20082
:10120000D401D830D3008A110313EE238A15D830C5
:10121000840083138A110E258A1501300317D1002B
:101220008A11031332218A158316081001308312A4
:1012300088067429831686158312861974293A083C
:101240000317CE00D0015630CF008A1103132B258F
:101250008A150030781C01300317CC0003133A08BC
:101260000317CD004C08CE00D0015630CF008A11B4
:10127000031344258A150D300317D1000230D20024
:101280008A110313B2228A1502300317CC0096305C
:10129000D1008A11031332218A150317CC0B472979
:1012A00003133A080317CE00D0015630CF008A113D
:1012B00003132B258A150030781801300317CC0052
:1012C000D101D001CF014C08CE000A30D200D401A8
:1012D000D830D3008A110313EE238A15D830840046
:1012E00083138A110E258A158928612BD511D516ED
:1012F00001300317D1000230D2008A110313B22249
:101300008A150A300317D1008A11031332218A1576
:101310007C3003178D0000308F008A1103130023E7
:101320008A15D51E7D2A8316061583120619222AD0
:10133000BB0A3B08033C031CBB0102300317CC0073
:101340009630D1008A11031332218A150317CC0B72
:10135000A029D101D001CF0103133B080317CE0010
:101360000A30D200D401D830D3008A110313EE23FF
:101370008A1509300317D1000230D2008A110313F5
:10138000B2228A150A300317D1008A1103133221C1
:101390008A15D830840083138A110E258A150130EE
:1013A0000317D1008A11031332218A152030031745
:1013B000D0008A110313C6228A153A300317D000D1
:1013C0008A110313C6228A1520300317D0008A1110
:1013D0000313C6228A1501300317D1008A110313A3
:1013E00032218A153B080317CE00D0015730CF00B9
:1013F0008A1103132B258A15003078180130031742
:10140000CC00D101D001CF014C08CE000A30D2006F
:10141000D401D830D3008A110313EE238A15D830B3
:10142000840083138A110E258A1501300317D10019
:101430008A11031332218A15831608100130831292
:1014400088067C2A83168615831286197C2A3B0817
:101450000317CE00D0015730CF008A1103132B257C
:101460008A150030781C01300317CC0003133B08A9
:101470000317CD004C08CE00D0015730CF008A11A1
:10148000031344258A150D300317D1000230D20012
:101490008A110313B2228A1502300317CC0096304A
:1014A000D1008A11031332218A150317CC0B4F2A5E
:1014B00003133B080317CE00D0015730CF008A1129
:1014C00003132B258A150030781801300317CC0040
:1014D000D101D001CF014C08CE000A30D200D40196
:1014E000D830D3008A110313EE238A15D830840034
:1014F00083138A110E258A159129612B0317CC01BC
:10150000CD01CE01D830840083134D0884074E08E6
:101510008A11031358208A15800000380319952A70
:101520000317CE0ACD0A822A0313D511D51601302E
:101530000317D1000230D2008A110313B2228A1598
:101540000A300317D1008A11031332218A1585301E
:1015500003178D0000308F008A11031300238A15B2
:1015600001300317D100D2008A110313B2228A1569
:101570008C3003178D0000308F008A110313002375
:101580008A15D51E612B8316061583120619ED2ABE
:101590000317CC0A0330CC0505304C07CD00D10031
:1015A0000130D2008A110313B2228A159330031737
:1015B0008D0000308F008A11031300238A1502303A
:1015C0000317CD009630D1008A11031332218A15FA
:1015D0000317CD0BE22A5F2B0313831686158312A4
:1015E0008619602B7B3003174C0784008313800A15
:1015F0007B304C07F800FA010318FA0A7808CD008E
:101600007A08CE007B304C07840083130008D0009A
:101610000A30D1005108F80150020318122B50086B
:10162000F7001E2BF7010830D200D00DF70D51083E
:1016300077020318F700F80DD20B152B7708CF00AF
:101640004D08840083134E1883174F0880007B30A9
:101650004C07840083130008CD00D101D001CF01D5
:101660004D08CE000A30D200D401D830D3008A1100
:101670000313EE238A15093003174C07CD00D10060
:101680000230D2008A110313B2228A150A300317DE
:10169000D1008A11031332218A15D83084008313B4
:1016A0008A110E258A1502300317CD009630D1001D
:1016B0008A11031332218A150317CD0B562B0313FE
:1016C000C12A8A110A12E82D0A148A140A11820703
:1016D00007286E2876297E2A03174C084D04031923
:1016E000752B4D08FA004C087A2B03132C08FA00CE
:1016F0002B080317D0007A08D1005108D5005008F4
:10170000D4004F08D7004E08D6005508D900540819
:10171000D8005908FA005808840083137A188317F0
:1017200080080319CA2B5708DB005608DA005B084B
:10173000FA005A08840083137A1883178008031D5F
:10174000AE2B54085802F7005908FA005508031C3C
:10175000550FFA027708F800D52BC22B5908FA006A
:101760005808840083137A1883170008DC005B088C
:10177000FA005A08840083137A18831700085C0261
:101780000319C62BDA0A0319DB0A972BD80A0319A7
:10179000D90A892B54085802F7005908FA0055084D
:1017A000031C550FFA027708F8007808D0070318D1
:1017B000D10A5108FA005008840083137A1883175D
:1017C0008008031DF02B03132B08840083132C18AF
:1017D0008317203080000030F800F9005C2C0317DC
:1017E0005108D5005008D4004F08D7004E08D60045
:1017F0005508D9005408D8005908FA005808840040
:1018000083137A18831780080319352C5708DB00D7
:101810005608DA005B08FA005A08840083137A1825
:10182000831780080319312C5908FA0058088400DE
:1018300083137A1883170008DC005B08FA005A0843
:10184000840083137A18831700085C02031D2D2C73
:101850005808F8005908F900382CDA0A0319DB0A8D
:101860000A2CD80A0319D90AFC2B0030F800F90019
:101870007908D3007808D2005308FA00520884008F
:1018800083137A188317800803194F2C5208840099
:101890008313531883178001D20A0319D30A5308FC
:1018A0000313AC00031752080313AB0003175008CF
:1018B000F8005108F900031308000317D101CF0104
:1018C0000A30D000CE014C084D04031D6A2C0030B4
:1018D000F8005D2D5108D10A4C07840083134D1880
:1018E00083170008D20052082D3C031D832C0130C1
:1018F000CF005108D10A4C07840083134D18831779
:101900000008D200902C52082B3C031D902C51084B
:10191000D10A4C07840083134D1883170008D200A6
:1019200052082F3C0318532D5208393C031C532DE9
:101930005208303C031DBC2C51084C078400831313
:101940004D1883170008783C0319B02C51084C0738
:10195000840083134D1883170008583C031DBC2CCA
:101960001030D000D10A5108D10A4C0784008313EB
:101970004D1883170008D20050080A3C031D012DA2
:1019800052082F3C0318002D5208393C031C002D2F
:101990000A30D3004E08D400F701F80153080310B1
:1019A0005418F707F70CF80CD418F707F70CF80CD5
:1019B0005419F707F70CF80CD419F707F70CF80CC3
:1019C000541AF707F70CF80CD41AF707F70CF80CB1
:1019D000541BF707F70CF80CD41BF707F70CF80C9F
:1019E0007808D300303052025307CE005108D10A94
:1019F0004C07840083134D1883170008D200C02CB5
:101A0000532D5008103C031D532D5208603C031801
:101A1000102D52087A3C031C102D5208DF39112D6D
:101A20005208D20052082F3C03181A2D5208393C94
:101A30000318222D5208403C0318532D5208463CEF
:101A4000031C532D52082F3C0318332D5208393CE8
:101A5000031C332D4E0ED300F030D305303052022C
:101A60005307CE003C2D4E0ED300F030D30541304D
:101A700052020A3E5307CE005108D10A4C07840097
:101A800083134D1883170008D2005208603C0318D6
:101A9000502D52087A3C031C502D5208DF39512D2D
:101AA0005208D200122D4F0B5B2D50080A3C031D2B
:0E1AB0005B2DCE09CE0A4E08F8000313080085
:1020000003081F398300831603178715083003134D
:10201000990002309A00A630980090308312980000
:10202000FF30B100B801B901BA01BB01BC01BD016B
:102030005510D5105511D5115512D512F60183162C
:1020400003170908C039890003131F129F120030BB
:102050000317880083128701880189018313031302
:10206000AB01AC014830C1004930C2004830C30068
:102070004930C400C501D630D6000F30D70030300B
:10208000DA00DB00DC00DD00DE00DF00E000E10064
:10209000E201D9015A30D8002A308316A000A101EC
:1020A0004930A2004430A3005F30A4004730A500AF
:1020B0005730A600A7014930A8004430A9005F307E
:1020C000AA004E30AB004F30AC004430AD0045307C
:1020D000AE00AF014C30B0004530B1004E30B20020
:1020E0004730B3004830B4005430B500B601533027
:1020F000B7005F30B8005330B900BA015430BB00AC
:10210000BC005F30BD006330BE006130BF006D3089
:10211000C0006230C1006930C2006530C3006E305B
:10212000C400C5012330C600C7018312E401A030FA
:10213000E300E601A230E500E801A830E700EA018B
:10214000B030E900EC01B730EB00EE01BB30ED0040
:10215000F001C630EF002A3003179000910149309A
:102160009200443093005F30940047309500573020
:102170009600970149309800443099005F309A00EA
:102180004E309B004F309C0044309D0045309E00F7
:102190009F014C30A0004530A1004E30A2004730D6
:1021A000A3004830A4005430A500A6014330A70086
:1021B0005F30A8004630A900AA014430AB0045308A
:1021C000AC005630AD004930AE004330AF00453072
:1021D000B0003130B1003230B2003330B3003430AF
:1021E000B400B5015330B6004530B7004E30B800EA
:1021F0005330B9004F30BA005230BB003130BC0010
:102200003230BD003330BE003430BF00C001233057
:10221000C100C201013083160313C9001030C80089
:102220000130CB001230CA000130CD001830CC0094
:102230000130CF002030CE000130D1002730D00057
:102240000130D3002B30D2000130D5003630D4001D
:102250000130D7004130D6003030F300F400F501F2
:10226000F2017330F100FB01FC01FD01FE01303091
:10227000DA00DB00DC01D901DA30D8003030DF00D1
:10228000E000E100E200E300E400E500E600E70131
:10229000DE01DF30DD003030EA00EB00EC00ED0065
:1022A000EE01E901EA30E800323083120317C3007F
:1022B0003730C400C5013230C6003730C700C8010E
:1022C0000030831603138800FF3086000910891040
:1022D00009118911803087008312B1001F179F13E5
:1022E00083169F1783121F14831603170908C0391A
:1022F000890003131F129F120130031788008312F5
:1023000003138B160B160B16831601138C16C03095
:1023100083128B04353090008E010B308F00DC303F
:102320008E000C100A124C2A0A16B901D510D511CC
:10233000551583168801831288015510D51CA429D0
:102340000A12662D0A16C92AD51DAA290A12502E6C
:102350000A16C92AD518C92A0A12CB2F0A16B50897
:10236000031DB62934081A3C0318172A0317D10194
:10237000D001031335080317CF00031334080317E4
:10238000CE000A30D2000130D4004330D3000A120C
:102390000313EE230A160130EC004330EB00031761
:1023A000D101D001031337080317CF0003133608F8
:1023B0000317CE000A30D2000130D4004630D300DB
:1023C0000A120313EE230A160130EE004630ED0028
:1023D0000317C9014908073C031C0B2A0310490DC8
:1023E000633E84008313840A0008CD008403000840
:1023F000CC00840083134D1883170A12031332266E
:102400000A1601300317D1000A12031332210A16EB
:102410000317C90AEA290430CC00FA30D1000A12A5
:10242000031332210A160317CC0B0D2A0313551C74
:10243000C82A5510BD010A12E32F0A160317CC0152
:10244000CD01D830840083134C0884074D080A124C
:10245000031363200A16800000380319342A031777
:10246000CD0ACC0A212A03130317CD014130CC0039
:10247000CF01D830CE000A128A1503136C230A1636
:102480008A1179080317CB007808CA000130D100FF
:102490000230D2000A120313B2220A160317CA0826
:1024A000031D552ACB080319A62A03133D08031957
:1024B000602A013A03196E2A033A03197D2A8A2AEF
:1024C00003174B08CD004A08CC000A128A150313E3
:1024D0005D240A168A117808BE008A2A03174B0861
:1024E000CD004A08CC000A128A1503135D240A168F
:1024F0008A1140307807BF008A2A03174B08CD00A5
:102500004A08CC000A128A1503135D240A168A11A0
:102510007808C00001300317D1000A1203133221DA
:102520000A160317CD01CC01CF01D830CE000A1214
:102530008A1503136C230A168A1179080317CB0036
:102540007808CA000313BD0A4E2A0317031339087B
:102550003E02031DC82AC008031DB02A0030B12A5C
:102560000130F7003F080317CD007708CE00D001F7
:10257000CF010A12031344250A163F080317CD00A2
:10258000CE01D0018030CF000A12031344250A1671
:06259000AA299E29630048
:04400E00E22FFF3F5F
:00000001FF
;PIC16F887
;CRC=3534  CREATED="26-Oct-21 01:55"
