:100000000D308A004D2D0000FF00030E8301A1007A
:100010000A08A0008A010408A2007708A300780853
:10002000A4007908A5007A08A60003170D08031399
:10003000A70003170F080313A80003170C080313E6
:10004000A90003170E080313AA00831383120B1EC3
:100050002B288B1852288C308400801E31288C1A53
:100060005528220884002308F7002408F8002508F2
:10007000F9002608FA00270803178D000313280843
:1000800003178F000313290803178C0003132A0892
:1000900003178E00031320088A00210E8300FF0E31
:1000A0007F0E09008A110A12DC288A110A1211290E
:1000B0000A108A100A118207003400340A108A10CC
:1000C0000A118207303400340A108A100A1182079C
:1000D000003449223A102010201020102010201047
:1000E00020100000C422D624C3223A102010201071
:1000F0002010201020100001D322CE294F293A10C1
:10010000201020102010201000014922DF23571D4D
:10011000201030183018200020102010201020103F
:100120005F1020102000201020105F1020102000F1
:10013000C3274E23C9233A1020102010201020007E
:10014000C320D3223A1020102010201020102000AD
:10015000A016A02444102010201020102010000110
:10016000A0162022452BC921C529201020100001EE
:10017000A016A0294527D327D2292010201000013E
:10018000A016A02444102D10C72B3A1020102000D8
:10019000C3274E23C92320224F27451020102010AB
:1001A00020102000C3274E23C92320224F274510AB
:1001B000201020102010200083160317A60103131F
:1001C000861483128618FB280C1CF6288316081147
:1001D0000430831288060C108E010B308F00DC3047
:1001E0008E0083160317A60A8312031383160317C0
:1001F000DF2883120313831603172608143C031801
:1002000008290130F3060230F3067315F3110B29A8
:100210007311F3117312831203138B108A110A12D4
:1002200031285F305A07840083138C1E15291A0861
:1002300080005F305A078400831300082E3C031DA2
:100240002A295F305A07840083138001DA010130C4
:10025000DB002B29DA0A8C128A110A123128643049
:10026000840083170008031942290630F800F701BB
:10027000F70B3829F80B37297B30F700F70B3E29AD
:10028000800B3529080003176B184A290313071040
:100290004C29031703130714311031088316870004
:1002A00083120317EB185829031387105A290317D1
:1002B00003138714B11031088316870083120317C4
:1002C0006B19662903130711682903170313071510
:1002D000311131088316870083120317EB19742933
:1002E000031387117629031703138715B1113108FA
:1002F0008316870000008312091483160910023048
:10030000F700F70B81298429000083120910831656
:100310000910831208000317EC010313311431088C
:100320008316870000308312071801300317EC048E
:100330000313B11431088316870000308312871825
:100340000130F7000310F70D77080317EC040313CF
:1003500031153108831687000030831207190130E8
:10036000F700F70DF70DFC30F70577080317EC04DD
:100370000313B115310883168700003083128719E3
:100380000130F700F70DF70DF70DF830F705770896
:100390000317EC046C08F800031308008316091017
:1003A0008910091183128910831689100714871484
:1003B000071587158312091583160911000083128A
:1003C000091483160910000083128B217808031783
:1003D000EB0003130910831609100000831209149F
:1003E00083160910F329F429000083128B21780861
:1003F0000317EA0003130910831609108312311042
:100400003108831687008312B110310883168700E4
:10041000831231113108831687008312B11131081C
:1004200083168700831203176B0EF700F030F70571
:1004300077086A04F8007808EA00EA1F222A83167F
:100440000313D629E808031D292A031389102B2A30
:1004500003170313891483168910000083120911EE
:1004600083160911000083120910831609108312E4
:100470000317690EEA000F30EA056A08EB00031360
:100480004321031769080F39EA00EB0003134321E6
:10049000080028300317E0000C30E1000130E200D2
:1004A0000630E30003130910831609108312891024
:1004B00083168910831209118316091183123110D2
:1004C0003108831687008312B11031088316870024
:1004D000831231113108831687008312B11131085C
:1004E000831687000910891009110F308312031732
:1004F000E40003132F2101300317DF005F08033CE2
:10050000031C8E2A0330EB0003134321053003172D
:10051000E40003132F210317DF0A7E2A0230EB00C9
:100520000313432105300317E40003132F2103179E
:10053000DF015F08033C031CAB2A60305F078400C7
:1005400083170008E400E8016408E9000313CE21E2
:100550000317DF0A992A03138A150A12E42E0317D8
:100560005F0DF700F70DFC30F70503131F08C339C3
:1005700077049F00B301B2010317E0016008633CF8
:10058000031CD62A03139F149F18C42A83161E081F
:100590008312B2071E0803181E0FB307013003179A
:1005A000E40003132F210317E00ABE2A03133308C4
:1005B0000317E200031332080317E1008E30F7003F
:1005C0006208F8006108F900FA01F808031DF22A30
:1005D0007908F800F9010830F702F808031DF22A3B
:1005E000F701FA2A0310F81BF92AF90DF80DF703A1
:1005F000F22AF8137A08E4007908E3007808E200A8
:100600007708E1009A30E8009930E7004C30E600C6
:100610008630E50061080319CF2BED00650803194A
:10062000CF2BED02031C192B7F30ED070318CF2BC6
:100630001F2B8130ED02031CCF2B0319CF2B6D082C
:10064000F700F801F901FA01EC016208EB00EB1781
:100650006308EA006408E9001930ED006808E9025F
:100660000318422B0130EA020318422BEB02031855
:10067000422BEC020318422BEC0AEB0AEA0A680848
:10068000E907742B6708EA0203185D2B0130EB02BF
:1006900003185D2BEC0203185D2BEC0AEB0A6708CC
:1006A000EA076808E907031C742BEA0A031D742B88
:1006B000EB0A031D742BEC0A742B66088038EB02DE
:1006C0000318732B0130EC020318732BEC0A660835
:1006D0008038EB076708EA07031C512BEB0A031D60
:1006E000512BEC0A512B7A14ED0B772B822B031034
:1006F000E90DEA0DEB0DEC0D0310FA0DF90DF80DF7
:10070000EE0D2E2B6E1C8A2B0310F80CF90CFA0C34
:10071000EE0C8D2BF7030319CF2BEE1BB62B03101A
:10072000E90DEA0DEB0DEC0D6808E9020318A22BA8
:100730000130EA020318A22BEB020318A22BEC02F1
:10074000031CC52B6708EA020318AD2B0130EB022E
:100750000318AD2BEC02031CC52B66088038EB0296
:100760000318B62B0130EC02031CC52BFA0A031D3B
:10077000C52BF90A031DC52BF80A031DC52BF70A63
:100780000319CF2BF80CF90CFA0C6208ED0066087F
:10079000ED06ED1FCD2BF817D32BF813D32BF70154
:1007A000F801F901FA017A08E4007908E300780811
:1007B000E2007708E1008E30F7006108F702620876
:1007C000F9006308F800F917F7080319F22B031072
:1007D000F908031DEE2BF8080319F22BF90CF80C9D
:1007E000F70BE72BE21FF92BF809F909F80A0319AF
:1007F000F90A79080313B3007808B2003208F80048
:100800008A150A12F32E0317650B072C0A2C4030A9
:10081000E6000B2CE60101306402E607660880382A
:10082000E700E8016708E9000313CE210800031779
:100830006308073A03130319272C0B3A03192E2CCC
:10084000063A03193A2C023A0319422C492C01307A
:100850000317E400E50003130324502C0317E801F9
:100860000130E9000313CE2102300317E400031323
:100870002F21502C01300317E4000230E500031350
:100880000324502C0317E8011030E9000313CE2194
:10089000502C01300317E8006308E9000313CE2150
:1008A00008000B080317E00003138B1383160317CC
:1008B0008C170C14000000008312E01F622C03133D
:1008C0008B1703170C087F3903199F2CE0000D08C4
:1008D000E1000F08E2006008E30003131724031788
:1008E00061088D0062088F0003130B080317E300F3
:1008F00003138B13831603178C170C1400000000CE
:100900008312E31F862C03138B1703170C0D0E0D98
:100910007F3903199F2CE0000D08E1000F08E20069
:100920006008E30003131724031761088D006208B1
:100930008F008D0A03198F0A0313512C0317031319
:1009400008008318A62CA030840083178316031791
:100950001B081F068039A5009B1FB92C980999090F
:100960009A099B09980A0319990A03199A0A031903
:100970009B0A9F1FC62C9C099D099E099F099C0AE2
:1009800003199D0A03199E0A03199F0AF701F8012A
:10099000F901FA01A001A101A201A3011F081E048F
:1009A0001D041C040319042D2030A4000310980D0D
:1009B000990D9A0D9B0DA00DA10DA20DA30D1F0861
:1009C0002302031DED2C1E082202031DED2C1D0821
:1009D0002102031DED2C1C082002031CFE2C1C0808
:1009E000A0021D08031C1D0FA1021E08031C1E0FE0
:1009F000A2021F08031C1F0FA3020314F70DF80D1A
:100A0000F90DFA0DA40BD62CA51F112DF709F80925
:100A1000F909FA09F70A0319F80A0319F90A031977
:100A2000FA0A20088000840A21088000840A22082B
:100A30008000840A23088000831203130800031730
:100A4000EB01EA01E9010130E800ED01EE01E41FEC
:100A5000712D0130ED006408831693008312630842
:100A60008316920083126208831691008312610834
:100A700083169000FF309700960095009400203078
:100A80009C00980199019A019B011308FA00120831
:100A9000F9001108F8001008F7000310771C5E2D0C
:100AA0001408980715080318150F99071608031856
:100AB000160F9A0717080318170F9B079B0C9A0C21
:100AC000990C980CFA0CF90CF80CF70C9C0B4D2DAA
:100AD0007A088312E4007908E3007808E2007708D6
:100AE000E100E808031D7D2DE908031D7D2DEA08BE
:100AF000031D7D2DEB080319112E83106408831646
:100B00009B008312630883169A008312620883167F
:100B1000990083126108831698009F019E019D0130
:100B20008312650883169C0083120313A1247A089C
:100B30000317EB007908EA007808E9007708E80075
:100B40006E086607F8006708FA000318FA0A7808C2
:100B5000831690007A089100930104089200131004
:100B6000831B131483149430840083178312640846
:100B700083169B008312630883169A00831262080F
:100B80008316990083126108831698009F019E01C5
:100B90009D018312650883169C0083120313A12410
:100BA0008316031712088400831313188317303039
:100BB0001407F7001508F800003003180130F80793
:100BC0001608F900003003180130F9071708FA0079
:100BD000003003180130FA0710088400831311183D
:100BE00083177708800083126E08660784008313DA
:100BF000671883170008393C0318072E6E0866072C
:100C00008400831367188317073000078000EE0AFB
:100C10006B08E4006A08E3006908E2006808E10084
:100C2000712D6D0B1C2E6E086607840083136718E8
:100C300083172D308000EE0AEC0103106E0C6C025D
:100C40000318562E6C0866078400831367188317F1
:100C50000008EF006C086607F8006708FA00031840
:100C6000FA0A7808831690007A08910083126C08BB
:100C70006E02FF3E6607840083136718831700081F
:100C8000831692001008840083131118831712082A
:100C9000800083126C086E02FF3E66078400831397
:100CA000671883176F088000EC0A1D2E6E08660710
:100CB000840083136718831780016608F8006708AB
:100CC000F90003130800800803197F2E0317E101C0
:100CD0000408E0006110831B61140008E3000313A3
:100CE0001724031760088400831361188317840A8C
:100CF000031D7D2E0313850A03170313632E0800BB
:100D0000031761080739F700610CF800F80CF80CBC
:100D10001F30F8057808620784008313631883176F
:100D20000008F800F70A952EF80CF70B942E031321
:100D30000800031760080739F700600CF800F80C8A
:100D4000F80C1F30F80578086207840083136318D5
:100D50008317F801F80AF70AAE2EF80DF70BAD2E3F
:100D6000E1080319B62E78088004B92EF80978082E
:100D700080050313080003176208E6006108E50018
:100D80006608FA006508840083137A1883178008C0
:100D90000319CE2EE50A0319E60AC02E6408FA00EC
:100DA0006308840083137A18831780080319ED2ED3
:100DB000630884008313641883170008E90065083A
:100DC000840083136618831769088000E50A0319F5
:100DD000E60AE30A0319E40ACE2E650884008313A9
:100DE0006618831780016108F8006208F900031390
:100DF0000800F31501300317E400E5000313032492
:100E00000A300317E40003132F21983003178D00D5
:100E100000308F000313512401300317E400023027
:100E2000E500031303240A300317E40003132F2102
:100E3000A03003178D0000308F0003135124F31DE1
:100E4000782F8316061583120619772FB80A0330F8
:100E5000B80502300317DF009630E40003132F219A
:100E60000317DF0B2C2F0630E4000230E5000313DC
:100E700003240317E401E301E20103133808031715
:100E8000E1000A30E5000130E7004C30E6000313D2
:100E90001F250A300317E40003132F214C30840070
:100EA000831763263808FC3E0318772F043E802FF3
:100EB000A83003178D0000308F0003135124772FC3
:100EC000B03003178D0000308F0003135124772FAB
:100ED000B83003178D0000308F0003135124772F93
:100EE000C03003178D0000308F00031351241F2FD3
:100EF00073197D2F8A1500288A118A150A12FB2E74
:100F00000A148A140A158207582F602F682F702F31
:100F100080080319A52F0317E3010408E2006310FA
:100F2000831B6314000803130C1E942F99000317EE
:100F300062088400831363188317840A031DA32F98
:100F40000313850A03170313882F08000317DF0113
:100F50005F081E3C031CBA2F83160313881002304F
:100F60008312880664300317E40003132F2103174C
:100F7000DF0AA82F03138A150A12052F0130031761
:100F8000E400E500031303240A300317E40003130D
:100F90002F215F3084008313632601300317E400A0
:0A0FA00003132F218A150A12812F76
:1010000073113808FC3E0318B12B043EB42B731146
:10101000731601300317E4000230E5008A11031350
:1010200003248A150A300317E4008A1103132F21C1
:101030008A15693003178D0000308F008A11031361
:1010400051248A15731E6D288316061583120619FE
:101050006C28B90A39080F3C031CB9010230031788
:10106000DF009630E4008A1103132F218A1503173D
:10107000DF0B3128E401E301E20103133908031710
:10108000E1000A30E500E701EA30E6008A110313C7
:101090001F258A1509300317E4000230E5008A1184
:1010A000031303248A150A300317E4008A1103137B
:1010B0002F218A15EA30840083138A1163268A154A
:1010C00001300317E4008A1103132F218A158316B8
:1010D00008100130831288062228B12B7311731671
:1010E00001300317E4000230E5008A1103130324E2
:1010F0008A150A300317E4008A1103132F218A1579
:10110000723003178D0000308F008A1103135124B1
:101110008A15731E782983160615831206191C2951
:10112000BA0A3A08073C031CBA0102300317DF0071
:101130009630E4008A1103132F218A150317DF0B61
:101140009828E401E301E20103133A080317E100E0
:101150000A30E5000130E7004C30E6008A11031345
:101160001F258A1509300317E4000230E5008A11B3
:10117000031303248A150A300317E4008A110313AA
:101180002F218A154C30840083178A1163268A1513
:1011900001300317E4008A1103132F218A15203030
:1011A0000317E3008A11031317248A153A30031733
:1011B000E3008A11031317248A1520300317E30074
:1011C0008A11031317248A1501300317E4008A11CA
:1011D00003132F218A153A080317E100E301743045
:1011E000E2008A11031380268A1500307818013036
:1011F0000317DF00E401E301E2015F08E1000A30C8
:10120000E5000130E7004C30E6008A1103131F258A
:101210008A154C30840083178A1163268A150130A1
:101220000317E4008A1103132F218A15831608106F
:101230000130831288067729831686158312861952
:1012400077293A080317E100E3017430E2008A11BC
:10125000031380268A150030781C01300317DF0045
:1012600003133A080317E0005F08E100E30174305C
:10127000E2008A11031399268A150D300317E40042
:101280000230E5008A11031303248A150230031784
:10129000DF009630E4008A1103132F218A1503170B
:1012A000DF0B492903133A080317E100E301743007
:1012B000E2008A11031380268A1500307818013065
:1012C0000317DF00E401E301E2015F08E1000A30F7
:1012D000E5000130E7004C30E6008A1103131F25BA
:1012E0008A154C30840083178A1163268A15892851
:1012F000B12B7311731601300317E4000230E500BF
:101300008A11031303248A150A300317E4008A1193
:1013100003132F218A157C3003178D0000308F00B6
:101320008A11031351248A15731E832A8316061506
:1013300083120619272ABB0A3B08033C031CBB0186
:1013400002300317DF009630E4008A1103132F21C7
:101350008A150317DF0BA329E401E301E20103135C
:101360003B080317E1000A30E5000130E7004C308C
:10137000E6008A1103131F258A1509300317E400BC
:101380000230E5008A11031303248A150A3003177B
:10139000E4008A1103132F218A154C30840083172F
:1013A0008A1163268A1501300317E4008A1103139A
:1013B0002F218A1520300317E3008A110313172405
:1013C0008A153A300317E3008A11031317248A158C
:1013D00020300317E3008A11031317248A15013004
:1013E0000317E4008A1103132F218A153B08031702
:1013F000E100E3017530E2008A11031380268A15AB
:101400000030781801300317DF00E401E301E20146
:101410005F08E1000A30E5000130E7004C30E600EB
:101420008A1103131F258A154C30840083178A11F3
:1014300063268A1501300317E4008A1103132F2154
:101440008A1583160810013083128806822A8316B3
:10145000861583128619822A3B080317E100E301EF
:101460007530E2008A11031380268A150030781C3B
:1014700001300317DF0003133B080317E0005F0888
:10148000E100E3017530E2008A11031399268A1501
:101490000D300317E4000230E5008A110313032422
:1014A0008A1502300317DF009630E4008A11031317
:1014B0002F218A150317DF0B542A03133B08031748
:1014C000E100E3017530E2008A11031380268A15DA
:1014D0000030781801300317DF00E401E301E20176
:1014E0005F08E1000A30E5000130E7004C30E6001B
:1014F0008A1103131F258A154C30840083178A1123
:1015000063268A159429B12B0317DF01E001E1015D
:10151000EE30840083136008840761088A11031386
:1015200058208A158000003803199B2A0317E10A06
:10153000E00A882A03130317E001E1015430840014
:1015400083176008840761088A1103135E208A15D7
:10155000800000380319B12A0317E10AE00A9E2A25
:1015600003137311731601300317E4000230E50012
:101570008A11031303248A150A300317E4008A1121
:1015800003132F218A15853003178D0000308F003B
:101590008A11031351248A1501300317E400E50072
:1015A0008A11031303248A158C3003178D00003031
:1015B0008F008A11031351248A15731E7F2B831603
:1015C000061583120619092B0317DF0A0330DF05FE
:1015D00005305F07E000E4000130E5008A110313E5
:1015E00003248A15933003178D0000308F008A1171
:1015F000031351248A1502300317E0009630E400EB
:101600008A1103132F218A150317E00BFE2A7D2B65
:10161000031383168615831286197E2B4830031711
:101620005F0784008317800A48305F07F8000130A5
:10163000FA000318FA0A7808E0007A08E100483056
:101640005F07840083170008E3000A30E4006408A1
:10165000F801630203182F2B6308F7003B2BF701F7
:101660000830E500E30DF70D640877020318F70072
:10167000F80DE50B322B7708E20060088400831335
:10168000611883176208800048305F078400831761
:101690000008E000E401E301E2016008E1000A3033
:1016A000E5000130E7005430E6008A1103131F25DE
:1016B0008A15093003175F07E000E4000230E500F7
:1016C0008A11031303248A150A300317E4008A11D0
:1016D00003132F218A155430840083178A1163263F
:1016E0008A1502300317E0009630E4008A110313D4
:1016F0002F218A150317E00B742B0313DD2A031720
:10170000DF015F08033C031CB02B48305F078400F7
:1017100083170008E000E401E301E2016008E10052
:101720000A30E5000130E7005430E6008A11031367
:101730001F258A1501300317E4008A1103132F2196
:101740008A150317E201EE30E1000130E400543065
:10175000E3008A110313BB268A150317DF0A812BC6
:1017600003138A110A127C2F0A148A140A118207A1
:1017700007286E287929842AF31173128316DD0154
:10178000EE30DC00023083120317E4008A110313E9
:101790002F218A158316DF01EA30DE000230831222
:1017A0000317E4008A1103132F218A150317E001A0
:1017B000E1017B30840083136008840761088A118B
:1017C000031364208A15800000380319EC2B0317DB
:1017D000E10AE00AD92B03130317E001E101A0306D
:1017E000840083136008840761088A11031364204E
:1017F0008A15800000380319022C0317E10AE00A59
:10180000EF2B03130130FA005030840083137A1851
:1018100083178001FA017B30840083137A188317C1
:1018200080010317E0016008073C031C482C600896
:10183000E100E3017430E2008A11031380268A1567
:10184000781C452C0317E401E301E2016008E10084
:101850000A30E5000130E7005030E6008A1103133A
:101860001F258A1501300317E4008A1103132F2165
:101870008A150317E2017B30E1000130E4005030AB
:10188000E3008A110313BB268A150317E00A132C01
:101890000130FA005030840083137A1883178001D6
:1018A0000130FA005430840083137A1883178001C2
:1018B000E0016008043C031C8F2C6008E100E30198
:1018C0007530E2008A11031380268A15781C8C2C4F
:1018D0000317E401E301E2016008E1000A30E500DA
:1018E0000130E7005030E6008A1103131F258A15E6
:1018F00001300317E4008A1103132F218A150130E8
:101900000317E2005430E1000130E4005030E300FE
:101910008A110313BB268A150317E00A592C831674
:101920000313E5017B30E400023083120317E40067
:101930008A1103132F218A1501308316E7005430D2
:10194000E600F6013130E0003230E1008312031787
:10195000DF015F08083C031CDD2C03105F0DDA3E3D
:1019600084008313840A0008E10084030008E00077
:101970006108E3006008E2006308E5006208E40033
:101980006508FA006408840083137A1883178008B6
:101990000319CE2CE40A0319E50AC02C620864027C
:1019A000F7006508FA006308031C630FFA02770862
:1019B000F8007808F607DF0AA92C0630F607E401DC
:1019C000E301E2017608E1000A30E5000130E700BA
:1019D0004C30E6008A1103131F258A150130831647
:1019E000E1004C30E00083120317DF015F08073C81
:1019F000031C142D03105F0DDA3E84008313840A48
:101A00000008E10084030008E000840083136118EB
:101A100083178A11031388278A1540300C1E0E2D58
:101A200099000317DF0AF62C0130E400E5008A1163
:101A3000031303248A150A300317E4008A110313E1
:101A40002F218A15C83003178D0000308F008A11AE
:101A5000031351248A1501300317E4000230E50016
:101A60008A11031303248A150A300317E4008A112C
:101A700003132F218A15D23003178D0000308F00F9
:101A80008A11031351248A158316A701EA30A60090
:101A9000731183128A150A12002F03081F3983005D
:101AA00083160317871508300313990002309A0034
:101AB000A6309800903083129800FF30B100B80132
:101AC000B901BA01BB01DA01DB017310F310731124
:101AD000F3117312F601831603170908C039890040
:101AE00003131F129F12003003178800831287010F
:101AF0008801890183130313AB01AC014830DF0077
:101B00004930E0004830E1004930E200E301D630DE
:101B1000F4000F30F5002030FD00FE01FC017D30A7
:101B2000FB0020308316A200A301A101A230A00077
:101B30002A30B200B3014930B4004430B5005F3000
:101B4000B6004730B7005730B800B9014930BA0085
:101B50004430BB005F30BC004E30BD004F30BE0093
:101B60004430BF004530C000C1014C30C200453098
:101B7000C3004E30C4004730C5004830C600543062
:101B8000C700C8015330C9005F30CA005330CB00D2
:101B9000CC015430CD00CE005F30CF006330D00098
:101BA0006130D1006D30D2006230D3006930D40092
:101BB0006530D5006E30D600D7012330D800D9016A
:101BC000A501B230A400A701B430A600A901BA3023
:101BD000A800AB01C230AA00AD01C930AC00AF0112
:101BE000CD30AE00B101D830B0002A3083120317D7
:101BF0009000910149309200443093005F3094008E
:101C0000473095005730960097014930980044308E
:101C100099005F309A004E309B004F309C0044305A
:101C20009D0045309E009F014C30A0004530A10032
:101C30004E30A2004730A3004830A4005430A50025
:101C4000A6014330A7005F30A8004630A900AA01D2
:101C50004430AB004530AC005630AD004930AE00EA
:101C60004330AF004530B0003130B1003230B20007
:101C70003330B3003430B400B5015330B6004530D2
:101C8000B7004E30B8005330B9004F30BA00523070
:101C9000BB003130BC003230BD003330BE003430C8
:101CA000BF00C0012330C100C201013083160313FD
:101CB000DB001030DA000130DD001230DC000130D2
:101CC000DF001830DE000130E1002030E00001309C
:101CD000E3002730E2000130E5002B30E400013062
:101CE000E7003630E6000130E9004130E8003030EE
:101CF000EC00ED01EB01EC30EA0030308312031709
:101D0000C300C400C500C600C70101308316031319
:101D1000EF004330EE0083120317C801C901CA0166
:101D2000CB013030CE00CF010130CD004E30CC00A1
:101D30003030D200D3010130D1005230D0003030E9
:101D4000D600D7010130D5005630D4003230D8004B
:101D50003730D900DA013230DB003730DC00DD010A
:101D60000030831603138800FF30860009108910A5
:101D700009118911803087008312B1001F179F134A
:101D800083169F1783121F14831603170908C0397F
:101D9000890003131F129F1201300317880083125A
:101DA00003138B160B160B16831601138C16C030FB
:101DB00083128B04353090008E010B308F00DC30A5
:101DC0008E000C108A11492A8A15B90173107311FB
:101DD000F3148316880183128801DB010317DF01E6
:101DE0008A110313AF2A8A15B5017808B400731C51
:101DF000FD2E8A11F92E8A15A42F731D012FBC2BDD
:101E0000A42F7318A42F8A11A62F8A15B508031DB5
:101E10000D2F34081A3C0318722F0317E401E30155
:101E2000031335080317E200031334080317E10016
:101E30000A30E5000130E7005830E6008A1103134C
:101E40001F258A1501308316AD005830AC0083126F
:101E50000317E401E301031337080317E200031338
:101E600036080317E1000A30E5000130E7005B3077
:101E7000E6008A1103131F258A1501308316AF006F
:101E80005B30AE0083120317DE015E08073C031CC3
:101E9000662F03105E0DA43E84008313840A00089D
:101EA000E00084030008DF008400831360188317B8
:101EB0008A11031388278A1501300317E4008A1159
:101EC00003132F218A150317DE0A452F0430DF0084
:101ED000FA30E4008A1103132F218A150317DF0B50
:101EE000682F03135B0BA32FDB0130303D02DC00B6
:101EF00030303E02403EDD0030303F02DE008A11CD
:101F0000BE2F8A1539085C02031DA32FDE08031DAE
:101F10008B2F00308C2F0130F7005D080317E00095
:101F20007708E100E301E2018A11031399268A157B
:101F30005D080317E000E101E3018030E2008A114F
:0C1F4000031399268A15012FEE2E630072
:04400E00E22FFF3F5F
:00000001FF
;PIC16F887
;CRC=DFCC  CREATED="25-Oct-21 01:56"
