:1000000002308A00012A0000C837613767003530A6
:1000100084008313000803191A280630F800F7013A
:10002000F70B1028F80B0F287B30F700F70B16287A
:10003000800B0D2808003C181F28081220280816DD
:10004000831608128312BC182728881228288816BD
:100050008316881283123C192F280813302808179A
:10006000831608138312BC19372888133828881779
:1000700083168813000083120914831609100230B6
:10008000F700F70B4128442800008312091083165B
:10009000091083120800BD01831608160030831270
:1000A000081A0130BD048316881600308312881A9E
:1000B0000130F7000310F70D7708BD048316081709
:1000C00000308312081B0130F700F70DF70DFC30EC
:1000D000F7057708BD048316881700308312881B44
:1000E0000130F700F70DF70DF70DF830F705770839
:1000F000BD043D08F8000800831609108910091195
:100100008312891083168910081688160817881715
:10011000831209158316091100008312091483162E
:100120000910000083124B207808BC0009108316C8
:100130000910000083120914831609109F28A028B3
:10014000000083124B207808BB00091083160910A9
:10015000081288120813881383123C0EF700F0303F
:10016000F70577083B04F8007808BB00BB1FBA28E6
:1001700083168428B908031DBF288910C028891454
:1001800083168910000083120911831609110000DB
:10019000831209108316091083123A0EBB000F3028
:1001A000BB053B08BC001B203A080F39BB00BC0054
:1001B0001B2008002830B0000C30B1000130B20024
:1001C0000630B300091083160910831289108316B4
:1001D0008910831209118316091108128812081355
:1001E00088130910891009110F308312B5000720F8
:1001F0000130AF002F08033C031C06290330BC006C
:100200001B200530B5000720AF0AFA280230BC00D9
:100210001B200530B5000720AF012F08033C031C4D
:100220001D2930302F07840083130008B400B90162
:100230003408BA007C20AF0A0D298A110A126C2AF0
:10024000360B232926294030B7002729B701013072
:100250003502B70737088038B800B9013808BA0046
:100260007C2008003408073A031940290B3A031987
:100270004529063A03194D29023A031953295829E9
:100280000130B500B60020215D29B9010130BA0066
:100290007C200230B50007205D290130B500023016
:1002A000B60020215D29B9011030BA007C205D29FB
:1002B0000130B9003408BA007C2008000B08AF00F8
:1002C0008B13831603178C170C1400000000831285
:1002D0000313AF1B8B1703170C087F390319B229BF
:1002E0000313AF0003170D080313B00003170F0823
:1002F0000313B1002F08B4003221300803178D001A
:100300000313310803178F0003130B08B2008B137C
:10031000831603178C170C140000000083120313BC
:10032000B21B8B1703170C0D0E0D7F390319B22961
:100330000313AF0003170D080313B00003170F08D2
:100340000313B1002F08B4003221300803178D00C9
:100350000313310803178F008D0A03198F0A031343
:100360005E29031703138A110A127A2A0130B50095
:100370000230B60020210230B200FA30B50007206A
:10038000B20BBD292F08840083133018831780080F
:100390000319DC29B3010408B2003310831B3314A2
:1003A0000008B40032213208840083133318831705
:1003B000840A0319850AC729B10131082F0784006F
:1003C000831330188317000831020318FE292930DF
:1003D0003107F800FA010318FA0A31082F078400E0
:1003E0008313301883170008B4007808840083133F
:1003F0007A18831734088000B10ADD298A110A129D
:10040000872A03081F3983008316031787150830CE
:100410000313990002309A00A6309800903083129E
:100420009800831603170908C039890003131F12A7
:100430009F12003003178800831287018801890109
:100440000313A7014330A6003130C300C501A0301B
:10045000C4004D308316A0000130A2001030A1006E
:100460005D308312031790000130920090309100AC
:100470005D30831690009201910183120313831360
:10048000A001A1014830A9004930AA00AB004830C2
:10049000AC004930AD00AE01F03083168800FF306B
:1004A0008600091089100911891183121F179F13E3
:1004B00083169F1383121F14831603170908C0396C
:1004C000890003131F129F121130031788000313B2
:1004D000081083120810DA280130B500B600202178
:1004E0000A30B5000720043003178D0000308F005C
:1004F00003135E290830AF00FA30B5000720AF0BB8
:100500007C2A4330A800B0012808AF00B6290A3081
:10051000B50007200430AF00FA30B5000720AF0B5C
:060520008C2A912A630001
:04400E00E22FFF3F5F
:00000001FF
;PIC16F887
;CRC=3F27  CREATED="12-Oct-21 15:08"
